:020000040800F2
:1000000008180020F5310008E7300008E930000842
:10001000EB300008ED300008EF3000080000000071
:10002000000000000000000000000000F1300008A7
:10003000F330000800000000F530000845320008E9
:10004000493200084D32000851320008F7300008EC
:10005000593200085D32000861320008653200083C
:10006000693200086D3200087132000875320008EC
:10007000793200087D32000881320008853200089C
:10008000893200088D32000891320008953200084C
:10009000993200089D320008A1320008D7300008CC
:1000A000A9320008AD320008B1320008B5320008AC
:1000B000D9300008BD3200080B0B0008C53200081B
:1000C000FB300008CD320008D1320008D5320008DC
:1000D000F9300008DF090008D5300008E5320008D3
:1000E000E9320008FD300008F13200080100CA6B57
:1000F000DFF8E0331B689A4202D00122100001E0D1
:1001000000221000CA6BDFF8CC331A60C0B270470F
:1001100001000A881000C0B2072801DB012210008C
:10012000C0B2704730B403009BB2B3F5807F0ADCE5
:100130009BB289B2CD18B5F5807F04DC89B2002965
:1001400001D0002A02D10025280011E0DFF88853F1
:100150009BB215EB83052C000D00691EADB2002D7E
:1001600004D015682560121D241DF5E7012528001F
:10017000C0B230BC704730B403009BB2B3F5007F0F
:100180000ADA9BB289B2CD18B5F5007F04DA89B2DC
:10019000002901D0002A02D10025280011E0DFF853
:1001A00038539BB215EB83052C000D00691EADB2D0
:1001B000002D04D025681560241D121DF5E70125CA
:1001C0002800C0B230BC70472DE9F04786B0070068
:1001D0000024002543F2010600A8182100F088F948
:1001E000DFF8F882B94617F5807A72B6B9F80200DE
:1001F000ADF80C00B9F80400ADF80000B9F806003D
:10020000ADF80200B9F80800ADF80400B9F80A002A
:10021000ADF80600D9F820000490D9F82400059024
:1002200062B6B8F80800ADF80800B8F80A00ADF8F2
:100230000A00BDF80A00002805D043F204000600B9
:10024000300000B237E1BDF80C00512826DABDF8C5
:100250000C00002822D0BDF8080000280ED0B8F805
:100260000C00BDF80C10884202D1012004001AE0F5
:1002700043F2060006000020040014E0BDF80C0064
:10028000B8F80C10491C884202D1012004000AE091
:1002900043F2070006000020040004E043F20500DA
:1002A000060000200400E4B2002C0FD0BDF80000CE
:1002B000052806DABDF80000002802D0012004005D
:1002C00004E043F20800060000200400E4B2002C21
:1002D00016D0BDF80200B0F5807F0CD1BDF8020049
:1002E000BDF80610BDF80420891A491C884202D1C5
:1002F0000120040004E043F209000600002004008D
:10030000E4B2002C15D09DF8040000060CD1BDF815
:100310000400BDF80010491E4FF48072514388421A
:1003200002D10120040004E043F20A00060000208C
:100330000400E4B2002C12D0BDF808006849BDF8F2
:10034000002011EB420131F8021C884202D1012049
:10035000040004E043F20B00060000200400E4B2B5
:10036000002C0ED005980499401A401CB0F5806FFF
:1003700002D10120040004E043F20C00060000203A
:100380000400E4B2002C0FD004985649884206D3EA
:1003900005985549884202D20120040004E043F246
:1003A0000D00060000200400E4B2002C22D0B8F8B2
:1003B0000C0000280CD104984A49884202D101203F
:1003C000040017E043F20E0006000020040011E0D4
:1003D0000498BDF80C104FF48062444B02FB0131CD
:1003E000884202D10120040004E043F20F0006001D
:1003F00000200400E4B2002C5BD05246BDF802009D
:1004000080B28108BDF8040080B28008FFF78AFE40
:100410000500EDB2002D46D0BDF80000A8F80000A0
:10042000BDF80200A8F80200BDF80400A8F8040016
:10043000BDF80600A8F80600BDF80C00A8F80C00EE
:100440000498C8F810000598C8F81400B8F8080017
:100450000121BDF80020521E91400843A8F8080071
:10046000B8F808001E490989884215D10120A8F86A
:100470000A000020A8F808000020A8F800000020CA
:10048000A8F802000020A8F804000020A8F8060040
:1004900043F2030006000CE00020A8F80A0043F233
:1004A0000200060005E043F2100006000020A8F854
:1004B0000A00300000B206B0BDE8F0870748408966
:1004C000C0B2704705490160704700200349488168
:1004D00070470000B40F0020A00100209C0F0020F6
:1004E0005031000800C000080000020800BC0008ED
:1004F000002200F011B850F8041B61B150F8042B31
:10050000D30744BFA9F101039A18002342F8043B22
:10051000091FFAD1EFE7704700B500BF13009646F8
:100520009446103928BFA0E80C50FAD85FEA417C05
:1005300028BF0CC048BF40F8042BC90728BF20F8CB
:10054000022B48BF00F8012B00BD00002DE9F0414F
:1005500004000D0016001F005FF0000872B60A20AC
:10056000DFF83C1308703B00DBB2072231002800A3
:10057000C0B200F0DFF9012802D00320804607E076
:1005800044F6206000F050FA012801D00320804694
:1005900062B64046C0B2BDE8F08180B572B60021B7
:1005A000012000F0D1F90020BE49087062B6002099
:1005B00000F0C5FA01BD80B572B60021002000F040
:1005C000C3F900F089FA62B601BDF8B504000D0068
:1005D0001600002772B6B4480088032814DBB2481E
:1005E0000188B248006800F096F900280CD1AF48A5
:1005F000006800782070AC480088801E3080AB48CE
:100600000068401C286001E00520070062B6380041
:10061000C0B2F2BD2DE9F04104000D001600002724
:1006200072B6A0480078002826D1681EA04908604C
:100630000120A04908809E48006804709D480088F9
:1006400030189C4908809B4801889948006800F050
:1006500062F9804697480088411C964A1180934968
:10066000096880B200F801800120934908700121D7
:10067000002000F069F901E00520070062B63800AB
:10068000C0B2BDE8F08138B5002400A800F095F9AB
:100690008449097800296FD0022949D07BD200F023
:1006A00008FA9DF800003A2806D100208349087016
:1006B00000207D4908803AE09DF800000D2803D114
:1006C00002207849087032E09DF8000000F0F8F848
:1006D00005007A480078002802D0012814D026E0CE
:1006E00071480088FF2809DC2801704909686E4AB2
:1006F0001288505401207149087018E0002069499F
:10070000087000F0E9F912E0674800886749096855
:1007100080B2415C2943654A126880B281546248C4
:100720000088401C6049088000206449087032E05D
:100730009DF800005A490978884209D100F0CCF9A7
:10074000002058490870012000F0F9F9040012E077
:100750009DF800003A280BD100205849087000206D
:100760005149088001204F49087000F0A2F902E0C9
:1007700000204C4908700EE09DF800003A280AD18C
:1007800000F097F900204849088000204B49087084
:100790000120444908702000C0B232BD38B50024A1
:1007A00045480078002866D0022811D003D30428D9
:1007B00052D049D363E03A2005002800C0B200F0CF
:1007C000F2F802203C49087000203C49087056E0CD
:1007D00038480088002830D038480078002802D0F7
:1007E000012810D02FE0324800680078C0B200091C
:1007F00000F07DF805002800C0B200F0D4F8012018
:100800002E4908701FE02A480068007810F00F0099
:1008100000F06DF805002800C0B200F0C4F82448CC
:100820000068401C224908600020244908702148C3
:100830000088401E1F49088005E00D2000F0B3F835
:1008400003201D4908701AE01548007800F0ABF845
:1008500004201949087012E000201749087003208D
:1008600000F06DF904000021012000F06DF8002077
:100870001149087003E00021012000F065F8200014
:10088000C0B232BD80B507480078401E012803D8A9
:10089000002004490870FFE700F01EF9002002BDA7
:1008A000FF0F0020FD0F0020E80F00209001002026
:1008B000DC0F0020EA0F0020FC0F0020FE0F0020BC
:1008C0000100C9B2302906DBC9B23A2903DAB1F115
:1008D0003000C0B20AE0C9B2412906DBC9B24729DB
:1008E00003DAB1F13700C0B200E0FF207047010029
:1008F000C9B20A2903DA11F13000C0B20AE0C9B264
:100900000A2906DBC9B2102903DA11F13700C0B297
:1009100000E030207047020000200B00591E9BB2FF
:10092000002B03D013781818521CF6E7C0B24042CF
:10093000C0B27047F8B504000D0016001F0037481C
:1009400000F0D4F90120F2BD38B504000D00E4B286
:10095000002C08D000F09AFA012240F225512F48CD
:1009600000F01CFB07E000F08AFA002240F225515B
:100970002A4800F013FBEDB2002D08D000F094FAE5
:10098000012240F22771254800F008FB0AE005200B
:1009900000F094FB00F081FA002240F227711F481A
:1009A00000F0FCFA31BD10B50400E4B2210089B2B8
:1009B0001A4800F01EFB012010BD10B504001748B6
:1009C00000F01BFB2070012010BD80B514480068AA
:1009D000804701BD80B513480068804701BD80B5E0
:1009E00040F225510D4800F00CFB012806D1FFF71D
:1009F000F1FF40F22551094800F03AFB40F227711F
:100A0000064800F0FEFA012806D1FFF7DEFF40F2AB
:100A10002771024800F02CFB01BD0000800F002070
:100A2000D00F0020CC0F002030B585B00400002589
:100A30000121042000F0E5FB3B48006844F62061FA
:100A4000B0FBF1F0401E0500ADF80840ADF80450D1
:100A50000020ADF80A000020ADF8060001A93348D7
:100A600000F0ECFB0121314800F04BFC4FF4C0607A
:100A700000F08CFC1E208DF8000000208DF8010095
:100A800003208DF8020001208DF8030000A800F07B
:100A900082FC0121254800F061FC0022012123484D
:100AA00000F024FC0021214800F012FC012005B0D8
:100AB00030BD80B501211D4800F050FC012201210C
:100AC0001A4800F013FC0021184800F028FC01210E
:100AD000164800F0FDFB01BD80B50121134800F070
:100AE0003DFC00220121114800F000FC00210F48CC
:100AF00000F015FC00210D4800F0EAFB01BD704735
:100B000080B50B480068804701BD80B501210748CA
:100B100000F00BFC002805D00121044800F01EFC69
:100B2000FFF7EEFF01BD0000980100200008004023
:100B3000D40F002000200E490870012070470100EA
:100B400001200B4A10700B48017001207047010012
:100B50000020074A1278002A07D0064A12780A7045
:100B60000022034B1A7001221000C0B2704700002F
:100B7000031000200210002080B5284800680028DB
:100B800003D001202649087002E0002024490870A3
:100B900000F04AF800F078F800F078F900F07DF9FC
:100BA00072B600F029F91F490870022000904FF436
:100BB000964301221B480178002000F03DFC00F024
:100BC000C5FC62B601BD0100154A1278012A0BD19D
:100BD000124A126812680A60002902D0012210002D
:100BE00004E00022100001E000221000C0B27047B3
:100BF00001000B4A1278012A0BD1084A1268526888
:100C00000A60002902D00122100004E00022100036
:100C100001E000221000C0B270470000203200083E
:100C2000F20F0020F30F002030B589B000200090B3
:100C300000A8FFF7C8FF0400E4B2002C22D0002077
:100C400005002800C0B20099098880B2884219D2F4
:100C500002A800994968EDB20C2202FB051109684F
:100C60001C2200F063FD00984068EDB20C2101FBEE
:100C70000500D0F80600019001A902A800F082FD4D
:100C80006D1CDEE709B030BD30B58DB0002000909E
:100C900000A8FFF7ADFF0400E4B2002C24D0002030
:100CA00005002800C0B20099098880B288421BD292
:100CB00005A800994968EDB2142202FB05110968E4
:100CC0001C2200F023FD01A800994968EDB214220E
:100CD00002FB0511091D102200F028FD01A905A83D
:100CE00000F0EAF86D1CDCE70DB030BD70B582B0E5
:100CF00004000020009000A8FFF77AFF0500EDB285
:100D0000002D18D0002006003000C0B200990988DC
:100D100080B288420FD2F6B21C2000FB0640009938
:100D20004968F6B2142202FB061109681C2200F081
:100D3000EDFC761CE8E773BD2DE9F84F04000D00CB
:100D400016005FF00009002000905FF0000B00A883
:100D5000FFF739FF0700FFB2002F49D00098008845
:100D600082460098406883465FFA8AFABAF1000F1B
:100D700002D0BBF1000F01D100203BE000208046F3
:100D80005FFA88F85FFA8AFAD04531D25FFA88F8BC
:100D90000C2000FB08B00079E4B2A04225D1EDB2EE
:100DA000002D10D13200D2B25FFA88F80C2000FB7F
:100DB00008B0C1885FFA88F80C2000FB08B0006812
:100DC00000F088FD11E0EDB2012D0ED15FFA88F838
:100DD0000C2000FB08B0C1885FFA88F80C2000FBEB
:100DE00008B0006800F069FD814618F10108C7E706
:100DF0004846C0B2BDE8F28F2DE9F8430026002036
:100E000000905FF0000900A8FFF7DDFE0400E4B2E7
:100E1000002C30D000984088804600984068814679
:100E20005FFA88F8B8F1000F02D0B9F1000F01D1D4
:100E3000002022E000200500EDB25FFA88F8454569
:100E400019D2EDB20C2000FB05900079002810D1DA
:100E5000EDB20C2000FB0590C188EDB20C2000FB28
:100E60000590006800F029FD0700FFB217FA05F0B1
:100E700006436D1CE0E73000C0B2BDE8F28380B5E8
:100E8000012200210320FFF757FF01BD80B500229A
:100E900000210320FFF750FF01BD80B50122002192
:100EA0000320FFF749FF01BD80B500220021032088
:100EB000FFF742FF01BD00002DE9F04786B00400B6
:100EC0000D00002600275FF000085FF000095FF0CA
:100ED000000AA8890028A246208A06004CF6FF7066
:100EE0000640E88806432682A08906004EF6F310E5
:100EF0000640A88829890843698908430643A681D2
:100F0000A08A06004FF6FF400640A8890643A68245
:100F100000A800F0F9F82048824502D103980700A4
:100F200001E002980700A089000408D5192000FB01
:100F300007F029684900B0FBF1F0804607E019206E
:100F400000FB07F029688900B0FBF1F080466420BF
:100F5000B8FBF0F0000106003009642101FB1080AD
:100F60008146A089000409D55FEAC90032306421B6
:100F7000B0FBF1F010F00700064308E05FEA09104B
:100F800032306421B0FBF1F010F00F0006432681EF
:100F900006B0BDE8F087000000380140F0B400233F
:100FA00000240025002689B240F66A17B9420600DF
:100FB0000F00FFB27F09FFB23B0089B211F01F079B
:100FC0003C000127A7403D00012B01D10C3604E075
:100FD000022B01D1103600E01436D2B2002A03D021
:100FE00037682F43376002E03768AF433760F0BCA3
:100FF0007047CA05D20D828070478088C005C00D39
:10100000704770B40200002300250024002089B23C
:1010100040F66A16B1420E00F6B27609F6B2340016
:1010200089B211F01F063500012616FA05F5012CCC
:1010300002D19689354006E0022C02D1168A35404D
:1010400001E0968A354089B20E0AB6B23300012615
:1010500016FA03F316883340002D04D0002B02D07B
:101060000126300001E000263000C0B270BC70479D
:1010700010B40022002389B240F66A14A14289B25A
:101080000C0A22000124944023009BB2DC4304801C
:1010900010BC704710B504007FF0040000F0AFF9F9
:1010A000E4B2082094FBF0F012490870114800786F
:1010B0004FF47A7148431049088010BD80B20E4A3F
:1010C000128802FB00F20D4B1A6000220C4B1A60D2
:1010D00001220C4B1A600B4A1268110011F0011228
:1010E000012AF8D00022074B1A600022044B1A6034
:1010F00070470000F60F0020E40F002014E000E02D
:1011000018E000E010E000E030B4002100220023ED
:101110000024434D2D6815F00C0529000D00002D0D
:1011200004D0042D05D0082D06D026E03D4D0560E5
:1011300025E03C4D056022E0394D2D6815F4701511
:101140002A00374D2D6815F480352B00920C921C27
:10115000002B04D1344D05FB02F505600CE0304D49
:101160002D68AD0304D5304D05FB02F5056003E0A5
:101170002C4D05FB02F5056001E02A4D0560284D68
:101180002D6815F0F00529000909284D4D5D2C004A
:101190000568E5404560224D2D6815F4E06529009D
:1011A000090A224D4D5D2C004568E54085601C4DC7
:1011B0002D6815F460552900C90A1C4D4D5D2C00A1
:1011C0004568E540C560164D2D6815F44045290079
:1011D000890B174D4D5D2C00C568B5FBF4F5056115
:1011E00030BC7047C9B2002905D0124A12680243C8
:1011F000104B1A6004E00F4A126882430D4B1A60CC
:101200007047C9B2002905D00B4A126802430A4B45
:101210001A6004E0084A12688243074B1A6070475C
:101220000410024000127A0000093D0080010020F5
:1012300094010020181002401C1002400022038874
:101240001A00DFF82031984212D0DFF8303198428E
:101250000ED0B0F1804F0BD0DFF80C31984207D0A0
:10126000DFF80831984203D0DFF80431984204D106
:101270004FF68F731A404B881A43DFF8F8309842C4
:1012800008D0DFF8F430984204D04FF6FF431A40FC
:10129000CB881A4302808B8883850B880385DFF80F
:1012A000C43098420FD0DFF8D43098420BD0DFF82A
:1012B000D030984207D0DFF8CC30984203D0DFF826
:1012C000C830984201D10B7A03860123838270478C
:1012D000C9B2002904D0028852F00102028004E061
:1012E00002884FF6FE731A4002807047D2B2002A7D
:1012F00003D083890B43838102E083898B438381FD
:101300007047C9B2002904D0028852F080020280DE
:1013100004E002884FF67F731A4002807047818490
:10132000704789B2CA430282704730B4020000207D
:1013300000230024158A0D402B0095890D402C00B8
:101340009BB2002B05D0A4B2002C02D001252800AE
:1013500001E000252800C0B230BC704789B2CA4302
:1013600002827047002C0140000400400008004049
:10137000000C004000100040001400400034014008
:10138000004001400044014000480140244901431D
:10139000244A1160704770B4002300210F22C478E2
:1013A000002C20D01F4C246814F4E064D4F5E064D1
:1013B000240A2300D3F104042100DA4044788C404D
:1013C00023008478144023431B01174C05782B55C8
:1013D0000124057815F01F05AC40144D06787611F0
:1013E00045F8264009E00124057815F01F05AC40BA
:1013F0000F4D0678761145F8264070BC70470428DA
:1014000006D10C49096851F004010A4A116005E04F
:101410000849096831F00401064A1160704700006C
:101420000000FA050CED00E000E400E000E100E05F
:1014300080E100E010E000E02DE9F84305000E0037
:1014400017009846089C5FF00009F6B2002E05D000
:10145000F6B2002E02D0F6B2F82E02DB0220814650
:1014600070E0DFF82C020670EDB2002D02D0012DE5
:1014700032D054E0DFF81C02DFF81C120860DFF8FD
:101480001C02DFF81C120860DFF81802DFF81812DF
:101490000860DFF81802DFF8181208600020DFF893
:1014A00014120860DFF81002DFF810120860DFF88D
:1014B0001002DFF810120860DFF80C02DFF80C12DF
:1014C00008602300DBB242463900C9B27048007898
:1014D00000F00AFA814624E07D486F4908607D48A3
:1014E0006F4908607C48704908607C487049086012
:1014F0000020704908607A4870490860794871494D
:1015000008607948714908602300DBB2424639001F
:10151000C9B25F480078FFF719F8814601E0022060
:1015200081465FFA89F9B9F1000F0BD1FFF702FB91
:10153000002802D10320814604E06C480570012098
:101540006B4908704846C0B2BDE8F28310B500246C
:1015500067480078012806D14F480068804700207E
:101560006349087001E0062004002000C0B210BDED
:1015700038B500255E480078002801D0062085E0B7
:1015800000A8FFF7E4FA012840F07F809DF80000F2
:10159000002805D002281CD003D3032875D074E09E
:1015A00073E0554A55495648414B1B68984705001A
:1015B000EDB2002D0CD152480078354909788842A7
:1015C00003D04F480078002802D10220FFF7B7FA75
:1015D0005BE04A48006800784A49087001204A499F
:1015E000087000200400102C18DA424810F834006B
:1015F000002813D03F4810F8340042490978884247
:101600000AD13D493D4800683A4A12EBC40252688B
:1016100090473D49087001E0641CE4E738480078D1
:10162000002831D03848007800281CD000203249EA
:1016300008803448007850F08000304909682E4A0C
:10164000128850542C480088401C2B4908802E4892
:1016500000782A490968284A128850542648008888
:10166000401C2549088021480078012802D10A2021
:10167000FFF745FA204802882048016804480078AE
:10168000094B1B6898470500FFE7002032BD0000AA
:10169000F70F002045190008BC0F00205F19000853
:1016A000C00F0020C1190008B80F002073190008EE
:1016B000C40F0020C80F0020491A0008CC0F0020DA
:1016C000C91A0008D00F0020291B0008D40F0020E1
:1016D0009B050008B705000815060008CB050008A3
:1016E000870600089D07000885080008F80F0020FD
:1016F0009E01002000010020E60F0020D80F0020EE
:10170000F90F0020FA0F0020FB0F002062B38B07B7
:1017100008D0521E11F8013B00F8013B00F0248074
:101720008B07F6D1830740F0208000BF103A07D323
:1017300030B4B1E83810103AA0E83810F9D230BC13
:10174000530724BFB1E80810A0E8081044BF51F8BF
:10175000043B40F8043BD20724BF31F8022B20F8A9
:10176000022B44BF0B7803707047083A07D3B1E8E7
:101770000810083A40F8043B40F804CBF7D253076E
:10178000E4E70000F0B50027002200230024002534
:10179000002691F803C01CF00F0C674691F803C0B7
:1017A0005FEACC6C03D591F802C05CEA070791F8B8
:1017B00000C05FEA0C6C3AD0D0F800C065465FF01C
:1017C000000C6346082B31D25FF0010C1CFA03FCBD
:1017D0006446B1F800C014EA0C0C6246A24223D160
:1017E0005FEA830C64465FF00F0C1CFA04FC66464B
:1017F000B54317FA04FC5CEA050591F803C0BCF197
:10180000280F06D15FF0010C1CFA03FCC0F814C0CD
:101810000AE091F803C0BCF1480F05D15FF0010C5C
:101820001CFA03FCC0F810C05B1CCBE70560B1F8E4
:1018300000C0BCF1FF0F3FDDD0F804C065465FF08B
:10184000000C6346082B36D25FF0010C13F1080E32
:101850001CFA0EFC6446B1F800C014EA0C0C624697
:10186000A24226D15FEA830C64465FF00F0C1CFA9B
:1018700004FC6646B54317FA04FC5CEA050591F8DA
:1018800003C0BCF1280F07D15FF0010C13F1080E63
:101890001CFA0EFCC0F814C091F803C0BCF1480F4C
:1018A00007D15FF0010C13F1080E1CFA0EFCC0F812
:1018B00010C05B1CC6E74560F0BD020000209368C5
:1018C00089B20B4202D00123180001E00023180066
:1018D000C0B27047D2B2002A02D089B2016101E0E1
:1018E00089B24161704700002DE9F84304000D0002
:1018F00016001F005FF0000872B63B00DBB2082242
:1019000031002800C0B2FFF715F8012802D00320EB
:10191000804612E0B6F5964F02D92320814604E0B6
:1019200090487100B0FBF1F08146484680B2FFF765
:101930007BF8012801D00320804662B64046C0B241
:10194000BDE8F28380B572B6002087490870002197
:101950000120FEF7F9FFFFF7ACF862B601BD80B5D4
:1019600072B600210020FEF7EFFFFFF7B5F862B670
:1019700001BD2DE9F04104000D00160000275FF0C5
:10198000000872B679480088042812DB774801887D
:10199000774800F0F7F800280BD1754800782070E0
:1019A00072480088C01E30807248286001200700FD
:1019B00001E00520804662B64046C0B2BDE8F08135
:1019C0002DE9F04104000D001600002772B66648AC
:1019D0000078012831D1681E6749086001206749F5
:1019E00008806548006804706448008830186349BE
:1019F0000880624801886048006800F0C3F88046AB
:101A00005E480088411C5D4A1180594980B200F847
:101A100001805A480088411C584A11801FFA88F8F2
:101A20005FEA1821524A80B281540120544908705B
:101A300001210020FEF788FF01E00520070062B6C3
:101A40003800C0B2BDE8F08110B582B0002400A813
:101A5000FEF7B3FF44490978002905D002291CD0BC
:101A600008D3032903D02CE0FFF723F829E0FFF780
:101A700020F826E000203D4908803C480088411CB1
:101A80003A4A11809DF80010394A80B281540220F0
:101A900035490870FFF70DF813E034480088FF2837
:101AA0000ADC32480088411C304A11809DF8001041
:101AB0002F4A80B2815402E003202B490870FEF7C0
:101AC000F8FF2000C0B216BD10B500242C480078E5
:101AD000002802D0012805D023E000210120FEF7D4
:101AE00033FF1EE02548008800280FD022480068F8
:101AF0000078FEF758FF20480068401C1E49086027
:101B00001E480088401E1D4908800AE00320FFF798
:101B100016F8040000210120FEF716FF00201849E6
:101B200008702000C0B210BD10B500240E48007827
:101B3000002804D0022807D003280AD00AE0002099
:101B4000FEF7FDFF040005E00120FEF7F8FF0400AA
:101B500000E0FFE7FEF7C0FF012003490870200006
:101B6000C0B210BDA07F170001100020F00F0020B0
:101B7000600E0020610E0020E00F0020EE0F00201C
:101B80000010002030B40200FF20FF230D00691E6A
:101B9000ADB2002D0CD0DBB215785D402C00521C8C
:101BA000074D655D45402B00064D655D2800EDE75E
:101BB000C0B2DBB253EA002080B230BC704700BF35
:101BC000442B0008442C00082DE9F04104000D00CE
:101BD00000262888052818D1607800028046A07861
:101BE00050EA080818F1010801230122414689B290
:101BF000E01C00F02FF90700FFB2002F07D03800DB
:101C0000C0B200F0E3F9060001E003200600300056
:101C1000C0B2BDE8F0812DE9F04704000D005FF08F
:101C200000092888062833DB607800020600A078C7
:101C30000643761CE07800020700207907436079AC
:101C40008046BFB2002F20D0BFB2792F1DDABFB2BD
:101C500078005FFA88F8C0B2804516D101233A00B7
:101C600092B2310089B2A01D00F0F4F882465FFA0A
:101C70008AFABAF1000F05D05046C0B200F0A6F9BA
:101C8000814607E00520288004E00320814601E02A
:101C9000032081464846C0B2BDE8F0872DE9F047F1
:101CA00004000D005FF000092888052842D1607803
:101CB00000020600A0780643761CE07800020700C8
:101CC00020790700BFB2002F31D0BFB27E2F2EDAAD
:101CD000A04600202880032088F8000018F10108A1
:101CE0002888401C28803800C0B2400088F80000D6
:101CF00018F101082888401C288000233A0092B27D
:101D0000310089B2404600F0A5F882465FFA8AFAAF
:101D1000BAF1000F05D05046C0B200F057F9814625
:101D20000AE02888BFB210EB4700288004E00320B7
:101D3000814601E0032081464846C0B2BDE8F087F5
:101D40002DE9F84F04000D00002628880A287CDBC6
:101D5000607800020700A07807437F1CE07800024B
:101D60008046207950EA0808607900028146A0790F
:101D700050EA090919F10109E07900028246207A46
:101D800050EA0A0A607A8DF801001FFA88F8B8F163
:101D9000000F58D01FFA88F8B8F17E0F53DA1FFAF7
:101DA0008AFABAF1000F4ED01FFA8AFABAF17A0F06
:101DB00049DA1FFA8AFA5FEA4A009DF80110884260
:101DC00041D10123524692B2494689B214F10A0028
:101DD00000F040F88DF800009DF80000002828D1A0
:101DE000A3460020288017208BF800001BF1010B70
:101DF0002888401C28804046C0B240008BF8000074
:101E00001BF1010B2888401C28800023424692B217
:101E1000390089B2584600F01DF88DF800009DF891
:101E20000000002805D128881FFA88F810EB480028
:101E300028809DF80000002807D09DF8000000F0E1
:101E4000C5F8060001E0032006003000C0B2BDE87E
:101E5000F28F0000F0B404000025002C01D1022014
:101E600038E089B2002931D089B292B25018B0F569
:101E7000817F2BDA481E0700DBB2002B02D0012B3A
:101E800012D025E092B2002A0DD04E48BFB230F8F1
:101E900017000600B6B2300A2070641C2670641C5D
:101EA0007F1C521EEEE713E092B2002A0DD020787C
:101EB00000020600641C20780643641C4148BFB23F
:101EC00020F817607F1C521EEEE701E0012005009C
:101ED0002800C0B2F0BC704770B403000024002B8F
:101EE00001D102201EE089B2002917D089B292B236
:101EF0005018822812DA481E050092B2002A0FD02C
:101F00003148ADB230F815000600B6B2300A18708C
:101F10005B1C1E705B1C6D1C521EEEE70120040052
:101F20002000C0B270BC704710B40400002010BC88
:101F3000704703000020704770B403000024002B9A
:101F400001D1022018E089B292B2501881280FDA2C
:101F50000D0072B692B2002A08D018881A4EADB29F
:101F600026F815009B1C6D1C521EF3E762B601E0BB
:101F7000012004002000C0B270BC704730B40300E0
:101F80000024002B01D1022019E089B292B250182E
:101F9000B0F5807F0FDC0D0072B692B2002A08D037
:101FA0000848ADB230F8150018809B1C6D1C521EFD
:101FB000F3E762B601E0012004002000C0B230BCAB
:101FC00070470000600B0020000000200100C9B233
:101FD0000A00002A04D0012A05D0072A06D008E00A
:101FE0000022100007E00222100004E00622100088
:101FF00001E004221000C0B270472DE9F84F040040
:102000000D005FF0000A2888052850D16078000292
:102010000600A0780643761CE078000207002079CD
:102020000743BFB2002F3FD0BFB2B7F5FA6F3BDA1C
:10203000A14600202880012089F8000019F101093B
:102040002888401C288007210F4206D0BFB20820F4
:1020500097FBF0F0401C804604E0BFB2082097FBDD
:10206000F0F0804689F8008019F101092888401CA9
:10207000288000233A0092B2310089B24846FFF727
:1020800053FF83465FFA8BFBBBF1000F05D0584628
:10209000C0B2FFF79BFF82460BE028885FFA88F802
:1020A00018EB0000288004E00320824601E00320B2
:1020B00082465046C0B2BDE8F28F2DE9F04182B0B1
:1020C00004000D0000272888052831D1607800021F
:1020D0000600A0780643761C2079002825D1E078F8
:1020E000FF2802D0E07800281FD100208DF80100E1
:1020F000E078FF2803D101208DF8000002E00020E5
:102100008DF8000001230122310089B200A8FFF7F9
:102110000BFF80465FFA88F8B8F1000F0AD04046FE
:10212000C0B2FFF753FF070004E00320070001E0FF
:10213000032007003800C0B2BDE8F6812DE9F84F52
:1021400004000D005FF000092888062842DB607853
:1021500000020600A0780643761CE0780002070023
:10216000207907436079834607210F4206D0BFB22A
:10217000082097FBF0F0401C804604E0BFB2082026
:1021800097FBF0F08046BFB2002F20D0BFB2B7F56A
:10219000F66F1CDC5FFA88F85FFA8BFBD84516D126
:1021A00001233A0092B2310089B2A01DFFF7BCFEB4
:1021B00082465FFA8AFABAF1000F05D05046C0B2E3
:1021C000FFF704FF814607E00520288004E0032094
:1021D000814601E0032081464846C0B2BDE8F28F47
:1021E0002DE9F04F85B004005FF000085FF00009B2
:1021F00044F2010A019400A8FEF764F9009800284F
:1022000012D000984089ADF80C0000988089050034
:10221000009800690600009840690700B81B401C40
:1022200002900120804604E00020804644F2040031
:1022300082465FFA88F8B8F1010F0BD1BDF80C00A7
:10224000002802D00120804604E044F205008246C6
:10225000002080465FFA88F8B8F1010F0FD1ADB2C7
:102260004FF48060554900FB0510864202D10120E1
:10227000804604E044F206008246002080465FFA71
:1022800088F8B8F1010F0BD10298B0F5806F02D138
:102290000120804604E044F2070082460020804688
:1022A0005FFA88F8B8F1010F0DD1ADB2002D05D05D
:1022B000ADB2512D02DA0120804604E044F208005C
:1022C0008246002080465FFA88F8B8F1010F0CD1F1
:1022D00001984088ADB2A84202D10120804604E0B6
:1022E00044F209008246002080465FFA88F8B8F17F
:1022F000010F0FD10198006AB04206D10198406ADF
:10230000B84202D10120804604E044F20A0082462D
:10231000002080465FFA88F8B8F1010F2ED12848D6
:10232000ADB20C2101FB05000C388346BBF802005E
:10233000002805D1029A3900300000F07AF8814671
:10234000ABF80050CBF80460CBF808705FFA89F95D
:10235000ABF802905FFA89F9B9F1000F0BD000F0E9
:1023600012F8002803D044F20300824606E044F24B
:102370000200824602E044F20B008246504600B260
:1023800005B0BDE8F08F00200D4B1A0000231900A6
:1023900089B2502907DA89B20C2303FB01235B8839
:1023A000002B491CF4E789B2502902D101231800FF
:1023B00001E000231800C0B27047000000BC000814
:1023C000A0050020BFF34F8F3848006810F4E0608C
:1023D0003749084335490860BFF34F8FFEE780B5A2
:1023E000012080F31388FFF7EDFF01BDF8B507006A
:1023F0000C003048874217D32F48874214D272B658
:1024000000F05CF817F48067380000F06BF8060005
:1024100000F05FF862B6F6B2042E02D1012005008A
:1024200004E00020050001E0002005002800C0B203
:10243000F2BD2DE9F84304000D0016005FF001091C
:102440001C4884422CD31C48844229D272B600F026
:1024500035F8002080461FFA88F8B8F1FF0F11DC2C
:1024600000AA0121404680B2FDF785FE0700FFB2B9
:10247000002F07D00099200000F063F8814618F182
:102480000108E8E700F025F862B65FFA89F9B9F1CA
:10249000040F02D10120070004E00020070001E042
:1024A000002007003800C0B2BDE8F2830CED00E068
:1024B0000400FA0500C00008FFFF0108DFF838013A
:1024C000DFF838110860DFF83801DFF830110860F4
:1024D0007047DFF83001006850F08000DFF8241109
:1024E0000860704738B5040004255FF4302000F020
:1024F0008FF80500EDB2042D20D1DFF80801006847
:1025000050F00200DFF8FC100860DFF8FC00046007
:10251000DFF8F000006850F04000DFF8E8100860D5
:102520005FF4302000F074F80500DFF8D800006890
:1025300041F6FD710840DFF8CC1008602800C0B2F9
:1025400032BD70B582B004000D000426002000905A
:102550004FF4005000F05CF80600F6B2042E2DD1C6
:10256000DFF8A000006850F00100DFF89810086064
:1025700025804FF4005000F04BF80600F6B2042E10
:1025800013D1A01C0090280C009908804FF4005033
:1025900000F03EF80600DFF86C00006841F6FE71BE
:1025A0000840DFF86010086008E0DFF858000068B5
:1025B00041F6FE710840DFF84C1008603000C0B2F0
:1025C00076BD042011490968C90702D50121080018
:1025D0000FE00E490968490702D50221080008E00A
:1025E0000A490968C90602D50321080001E004214F
:1025F0000800C0B270470000230167450420024074
:10260000AB89EFCD10200240142002400C20024084
:1026100038B504000425FFF7D4FF0500EDB2012D05
:1026200006D1002C04D0FFF7CCFF0500641EF5E7AF
:10263000002C01D1052005002800C0B232BD0000E9
:10264000024908707047014800787047F50F002074
:102650002DE9F843FFF7F7FF0500002700A800F079
:10266000ECF8DDF80080009810F5807900F0CAF8E9
:10267000EDB2002D0AD0022D1ED00DD3042D4AD06C
:1026800033D3062D00F0938073D398E000F09BF8CD
:102690000120FFF7D5FF92E04046FDF727FD04003B
:1026A000E4B2002C07D04046FDF732FD06003000B2
:1026B000C0B2FFF7C5FF82E041F20201022000F044
:1026C000C3F800F0C3F80700390009B2022000F097
:1026D000BBF83FB241F20100874202D000F0F4F8AB
:1026E00002E00120FFF7ACFF69E043F201010320A3
:1026F00000F0AAF80098FDF767FD0700390009B25D
:10270000032000F0A1F8FDF7D9FE002802D0012037
:10271000FFF796FF53E044F20101042000F094F823
:102720000098FFF75DFD0700390009B2042000F0B2
:102730008BF83FB244F20200874205D1FDF7C5FE97
:102740000120FFF77DFF13E03FB244F20300874210
:1027500003D10520FFF774FF0AE03FB244F20B00FB
:10276000874202D100F0B0F802E00120FFF768FFD5
:1027700025E045F20101052000F066F800F0ACF814
:102780000700390009B2052000F05EF83FB245F2BB
:102790000300874203D10620FFF752FF06E03FB255
:1027A00045F20200874201D100F08EF807E046F2C0
:1027B0000101062000F048F800F012F9FFE700F0F0
:1027C00027F8BDE8F18338B500F068F80400E4B2FA
:1027D000002C0DD100F080F805002DB245F2030069
:1027E000854202D100F0FCF80AE0FEF7C5F907E0E7
:1027F000E4B2012C02D1FEF7BFF901E000F064F869
:1028000031BD000080B5FEF7B3FE00F007F801BD52
:1028100080B500F00BF8FEF7ABFE01BD80B54FF4BC
:10282000807200210648FFF7A9FB01BD80B5802218
:1028300002210448FFF780FB01BD01490160704798
:1028400060090020600D0020704700002DE9F04174
:102850000124104D104E4FF4806741F20208B5423A
:1028600009D2E4B2002C04D039002800FFF7BEFDE5
:1028700004007D19F3E7E4B2002C03D041F201001B
:10288000804602E041F203008046404600B2BDE8C7
:10289000F08100BF00C00008FFFF01085FF000509A
:1028A0000088010089B24AF6CD30814203D101206F
:1028B000044A107002E00020024A107001480078BB
:1028C00070470000F40F002080B500205FF0005139
:1028D0000880FFF784FD01BD10B53B480068002863
:1028E00011D03948006800F016F80400E4B2002C5A
:1028F00004D045F203003549088008E045F20200A3
:102900003249088003E045F20400304908802F482E
:10291000B0F9000010BD70B4010000208A68CB68D7
:102920002B4DAA424AD32B4DAA4247D22A4DAB4245
:1029300044D32A4DAB4241D200252C00E4B2102CE6
:102940000CDAE4B2A55CE4B2E65CB54202D0002544
:10295000280003E001252800641CEFE7C0B200282E
:1029600015D000252C00E4B2102C10DAE4B2A51822
:1029700095F82050E4B2E61896F82060B54202D0EF
:102980000025280003E001252800641CEBE7C0B205
:10299000002815D000252C00E4B2102C10DAE4B287
:1029A000A5182D7CE4B2E618367CB54202D000258D
:1029B000280005E001252800641CEDE7002528001B
:1029C000C0B270BC70470000203200089C0100209B
:1029D00000C4000800C8000800FC0108000002084C
:1029E00080B50148804701BD00C0000880B54E4851
:1029F000006850F001004C4908604C4800684C49A0
:102A000008404A490860484800684A490840464921
:102A100008604548006830F4802043490860434816
:102A2000006830F4FE00414908605FF41F0042492D
:102A3000086000F005F85FF000604049086001BDE3
:102A400080B500F001F801BD82B0002001900020A7
:102A500000903548006850F48030334908603248AF
:102A6000006810F4003000900198401C019000981C
:102A7000002803D10198B0F5A06FF0D12A48006872
:102A8000800302D50120009001E000200090009812
:102A9000012847D12A48006850F0100028490860F2
:102AA000274800688008800025490860244800689D
:102AB00050F00200224908601C4800681B49086069
:102AC0001A480068194908601848006850F4806086
:102AD000164908601548006830F47C1013490860F6
:102AE0001248006850F4E810104908600E48006869
:102AF00050F080700C4908600B4800688001FBD5DD
:102B00000A48006880088000084908600748006893
:102B100050F00200054908600448006810F00C00FD
:102B20000828F9D102B0704700100240041002409A
:102B30000000FFF8FFFFF6FE0810024008ED00E07D
:102B40000020024000C1814001C0804101C080419D
:102B500000C1814001C0804100C1814000C181406D
:102B600001C0804101C0804100C1814000C181405D
:102B700001C0804100C1814001C0804101C080414D
:102B800000C1814001C0804100C1814000C181403D
:102B900001C0804100C1814001C0804101C080412D
:102BA00000C1814000C1814001C0804101C080411D
:102BB00000C1814001C0804100C1814000C181400D
:102BC00001C0804101C0804100C1814000C18140FD
:102BD00001C0804100C1814001C0804101C08041ED
:102BE00000C1814000C1814001C0804101C08041DD
:102BF00000C1814001C0804100C1814000C18140CD
:102C000001C0804100C1814001C0804101C08041BC
:102C100000C1814001C0804100C1814000C18140AC
:102C200001C0804101C0804100C1814000C181409C
:102C300001C0804100C1814001C0804101C080418C
:102C400000C1814000C0C101C30302C2C60607C75C
:102C500005C5C404CC0C0DCD0FCFCE0E0ACACB0BCC
:102C6000C90908C8D81819D91BDBDA1A1EDEDF1FFC
:102C7000DD1D1CDC14D4D515D71716D6D21213D3EC
:102C800011D1D010F03031F133F3F23236F6F7379C
:102C9000F53534F43CFCFD3DFF3F3EFEFA3A3BFB8C
:102CA00039F9F83828E8E929EB2B2AEAEE2E2FEF3C
:102CB0002DEDEC2CE42425E527E7E62622E2E323AC
:102CC000E12120E0A06061A163A3A26266A6A767DC
:102CD000A56564A46CACAD6DAF6F6EAEAA6A6BAB4C
:102CE00069A9A86878B8B979BB7B7ABABE7E7FBF7C
:102CF0007DBDBC7CB47475B577B7B67672B2B3736C
:102D0000B17170B05090915193535292965657971B
:102D1000559594549C5C5D9D5F9F9E5E5A9A9B5B0B
:102D200099595898884849894B8B8A4A4E8E8F4FBB
:102D30008D4D4C8C4484854587474686824243832B
:102D400041818040816807E00268116853688918F2
:102D50005B18C36008320260C2689142F4D04A1C1A
:102D60008260087870472DE9FF4D00F1080100915D
:102D700000270268520801EBC2010191B846002108
:102D8000029103910168490800EBC101406800F01D
:102D9000010501F10804400804EBC00631E000A879
:102DA000FFF7D0FF4FFA80FA0AE000980168081890
:102DB0000099029049680818039000980830009024
:102DC000029803998842F0D0401C029010F801BD8F
:102DD00047450CD1B44208BF00F01DF8276805B183
:102DE0004F44606800EB070808344745F2D007F805
:102DF00001BBBAF1000F0AD51AF1010AE8D1474523
:102E0000CDD1B442CBD1304604B0BDE8F08DBAF19B
:102E1000010AD5D5F3E7012000F000B880B5C0461F
:102E2000C046024A11001820ABBEFBE72600020094
:102E30002DE9F84F04000D005FF0000A28880528EE
:102E40004FD1607800020600A0780643761CE07837
:102E50000002070020790743BFB2002F3ED0BFB267
:102E6000B7F5FA6F3ADAA14600202880022089F8E7
:102E7000000019F101092888401C288007210F4211
:102E800006D0BFB2082097FBF0F0401C804604E05B
:102E9000BFB2082097FBF0F0804689F8008019F156
:102EA00001092888401C28803A0092B2310089B27A
:102EB0004846FFF73EF883465FFA8BFBBBF1000FF5
:102EC00005D05846C0B2FFF781F882460BE028884B
:102ED0005FFA88F818EB0000288004E0032082469F
:102EE00001E0032082465046C0B2BDE8F28F2DE9D2
:102EF000F04704000D005FF000092888052841D143
:102F0000607800020600A0780643761CE078000294
:102F1000070020790743BFB2002F30D0BFB27D2F0A
:102F20002DDAA04600202880042088F8000018F13F
:102F300001082888401C28803800C0B2400088F86A
:102F4000000018F101082888401C28803A0092B23D
:102F5000310089B24046FEF7BFFF82465FFA8AFA27
:102F6000BAF1000F05D05046C0B2FFF72FF88146E6
:102F70000AE02888BFB210EB4700288004E0032055
:102F8000814601E0032081464846C0B2BDE8F08793
:102F9000000C01400000010003280000000C01406B
:102FA0000000020003280000000C01400000200087
:102FB00003280000000C014000000001032800006D
:102FC000000C01400000000203280000000C01403A
:102FD0000000000403280000000801400100000474
:102FE0000304000000080140020000020318000072
:102FF0000008014003000008031000000008014021
:103000000400001003100000000C0140050000083F
:1030100003100000001001400600008003100000B3
:1030200080B500F003F800F014F801BD80B501216F
:103030003C20FEF7D7F801211848FEF7E2F80121FD
:1030400044F20100FEF7CEF801210120FEF7CAF894
:1030500001BD80B54FF4C060FEF798F925208DF8CA
:10306000000000208DF8010000208DF802000120F2
:103070008DF8030000A8FEF78EF926208DF80000D9
:1030800000208DF8010000208DF8020001208DF84D
:10309000030000A8FEF77FF901BD00000100020057
:1030A0002DE9F04104000D0008480688084F14F18E
:1030B0000108320039004046FEF728FB034800882B
:1030C000401C28800020BDE8F0810000EC0F0020AB
:1030D000600F00207047704780B501215FF080408D
:1030E000FEF71FF901BD7047FEE7FEE7FEE7FEE7CA
:1030F00070477047704770477047704770470000CF
:1031000080B5FFF773FCFFF78BFF4820FDF7C2FF88
:103110000448006850F0007002490860FFF798FA10
:10312000FCE700BF0400014010B50749794418319D
:10313000064C7C44163404E00A68081D5118884780
:103140000146A142F8D110BD2C000000540000003F
:1031500000000100030007000F001F003F007F0078
:10316000FF00FF01FF03FF07FF0FFF1FFF3FFF7F70
:10317000FFFF000083D3FFFF640E0000A0010020CA
:1031800000000000E3FBFFFF02000000020000005F
:103190006401000078000000000000209F01000092
:1031A00000F00BF8002801D0FFF7BEFF0020C0465A
:1031B000C046FFF7A5FF00F002F80120704700F0BD
:1031C00001B8000007463846FFF728FEFBE700007D
:1031D00000380140004B00000010000000040C000B
:1031E00000000000103200081832000800C4000877
:1031F00000FC01080148804701480047ED2900080C
:1032000005320008C046C046C046C046FFF7C8FFAA
:103210000C000600902F000801000000D0310008CB
:10322000E4310008FFF75FBFFFF75EBFFFF75DBF48
:10323000FFF75CBFFFF75BBFFFF75ABFFFF759BF50
:10324000FFF758BFFFF7FEBFFFF7FEBFFFF7FEBF58
:10325000FFF7FEBFFFF74FBFFFF7FEBFFFF7FEBF51
:10326000FFF7FEBFFFF7FEBFFFF7FEBFFFF7FEBF92
:10327000FFF7FEBFFFF7FEBFFFF7FEBFFFF7FEBF82
:10328000FFF7FEBFFFF7FEBFFFF7FEBFFFF7FEBF72
:10329000FFF7FEBFFFF7FEBFFFF7FEBFFFF7FEBF62
:1032A000FFF7FEBFFFF717BFFFF7FEBFFFF7FEBF39
:1032B000FFF7FEBFFFF7FEBFFFF70EBFFFF7FEBF32
:1032C000FDF723BCFFF7FEBFFFF717BFFFF7FEBFF9
:1032D000FFF7FEBFFFF7FEBFFFF70EBFFDF77FBB97
:1032E000FFF7F8BEFFF7FEBFFFF7FEBFFFF706BF11
:1032F000FFF7FEBF0319202005810083000011FDA8
:103300000004A130000804FD0004EF2E000803FDB6
:1033100000049D1C000810FD0004171C000806FD99
:103320000004C91B000817FD0004411D000801FD31
:103330000004FB1F000805FD0004BB2000080FFD72
:1033400000043D21000802FD0003312E0008CC00DE
:103350001A010203040102030406070809600E00B3
:0C336000200204060800A24A04025002E9
:0400000508003205B8
:00000001FF
