:020000040800F2
:10000000A0180020893100088F30000891300008C6
:100010009330000895300008973000080000000079
:1000200000000000000000000000000099300008FF
:100030009B300008000000009D300008C931000816
:10004000CD310008D1310008D53100089F300008BB
:10005000DD310008E1310008E5310008E931000830
:10006000ED310008F1310008F5310008F9310008E0
:10007000FD3100080132000805320008093200088D
:100080000D3200081132000815320008193200083C
:100090001D32000821320008253200087F30000898
:1000A0002D3200083132000835320008393200089C
:1000B00081300008413200081F0B00084932000857
:1000C000A3300008513200085532000859320008A8
:1000D000A1300008EB0900087D30000869320008F3
:1000E0006D320008A5300008753200080100CA6BA7
:1000F000DFF8E0331B689A4202D00122100001E0D1
:1001000000221000CA6BDFF8CC331A60C0B270470F
:1001100001000A881000C0B2072801DB012210008C
:10012000C0B2704730B403009BB2B3F5807F0ADCE5
:100130009BB289B2CD18B5F5807F04DC89B2002965
:1001400001D0002A02D10025280011E0DFF88853F1
:100150009BB215EB83052C000D00691EADB2002D7E
:1001600004D015682560121D241DF5E7012528001F
:10017000C0B230BC704730B403009BB2B3F5007F0F
:100180000ADA9BB289B2CD18B5F5007F04DA89B2DC
:10019000002901D0002A02D10025280011E0DFF853
:1001A00038539BB215EB83052C000D00691EADB2D0
:1001B000002D04D025681560241D121DF5E70125CA
:1001C0002800C0B230BC70472DE9F04786B0070068
:1001D0000024002543F2010600A8182100F088F948
:1001E000DFF8F882B94617F5807A72B6B9F80200DE
:1001F000ADF80C00B9F80400ADF80000B9F806003D
:10020000ADF80200B9F80800ADF80400B9F80A002A
:10021000ADF80600D9F820000490D9F82400059024
:1002200062B6B8F80800ADF80800B8F80A00ADF8F2
:100230000A00BDF80A00002805D043F204000600B9
:10024000300000B237E1BDF80C00512826DABDF8C5
:100250000C00002822D0BDF8080000280ED0B8F805
:100260000C00BDF80C10884202D1012004001AE0F5
:1002700043F2060006000020040014E0BDF80C0064
:10028000B8F80C10491C884202D1012004000AE091
:1002900043F2070006000020040004E043F20500DA
:1002A000060000200400E4B2002C0FD0BDF80000CE
:1002B000052806DABDF80000002802D0012004005D
:1002C00004E043F20800060000200400E4B2002C21
:1002D00016D0BDF80200B0F5807F0CD1BDF8020049
:1002E000BDF80610BDF80420891A491C884202D1C5
:1002F0000120040004E043F209000600002004008D
:10030000E4B2002C15D09DF8040000060CD1BDF815
:100310000400BDF80010491E4FF48072514388421A
:1003200002D10120040004E043F20A00060000208C
:100330000400E4B2002C12D0BDF808006849BDF8F2
:10034000002011EB420131F8021C884202D1012049
:10035000040004E043F20B00060000200400E4B2B5
:10036000002C0ED005980499401A401CB0F5806FFF
:1003700002D10120040004E043F20C00060000203A
:100380000400E4B2002C0FD004985649884206D3EA
:1003900005985549884202D20120040004E043F246
:1003A0000D00060000200400E4B2002C22D0B8F8B2
:1003B0000C0000280CD104984A49884202D101203F
:1003C000040017E043F20E0006000020040011E0D4
:1003D0000498BDF80C104FF48062444B02FB0131CD
:1003E000884202D10120040004E043F20F0006001D
:1003F00000200400E4B2002C5BD05246BDF802009D
:1004000080B28108BDF8040080B28008FFF78AFE40
:100410000500EDB2002D46D0BDF80000A8F80000A0
:10042000BDF80200A8F80200BDF80400A8F8040016
:10043000BDF80600A8F80600BDF80C00A8F80C00EE
:100440000498C8F810000598C8F81400B8F8080017
:100450000121BDF80020521E91400843A8F8080071
:10046000B8F808001E490989884215D10120A8F86A
:100470000A000020A8F808000020A8F800000020CA
:10048000A8F802000020A8F804000020A8F8060040
:1004900043F2030006000CE00020A8F80A0043F233
:1004A0000200060005E043F2100006000020A8F854
:1004B0000A00300000B206B0BDE8F0870748408966
:1004C000C0B2704705490160704700200349488168
:1004D000704700004C10002054020020341000200F
:1004E000F830000800C000080000020800BC000846
:1004F000002200F011B850F8041B61B150F8042B31
:10050000D30744BFA9F101039A18002342F8043B22
:10051000091FFAD1EFE7704700B500BF13009646F8
:100520009446103928BFA0E80C50FAD85FEA417C05
:1005300028BF0CC048BF40F8042BC90728BF20F8CB
:10054000022B48BF00F8012B00BD00002DE9F0414F
:1005500004000D0016001F005FF0000872B60A20AC
:10056000DFF83C1308703B00DBB2072231002800A3
:10057000C0B200F0DFF9012802D00320804607E076
:1005800044F6206000F05AFA012801D0032080468A
:1005900062B64046C0B2BDE8F08180B572B60021B7
:1005A000012000F0D1F90020BE49087062B6002099
:1005B00000F0CFFA01BD80B572B60021002000F036
:1005C000C3F900F093FA62B601BDF8B504000D005E
:1005D0001600002772B6B4480088032814DBB2481E
:1005E0000188B248006800F096F900280CD1AF48A5
:1005F000006800782070AC480088801E3080AB48CE
:100600000068401C286001E00520070062B6380041
:10061000C0B2F2BD2DE9F04104000D001600002724
:1006200072B6A0480078002826D1681EA04908604C
:100630000120A04908809E48006804709D480088F9
:1006400030189C4908809B4801889948006800F050
:1006500062F9804697480088411C964A1180934968
:10066000096880B200F801800120934908700121D7
:10067000002000F069F901E00520070062B63800AB
:10068000C0B2BDE8F08138B5002400A800F09AF9A6
:100690008449097800296FD0022949D07BD200F023
:1006A00012FA9DF800003A2806D10020834908700C
:1006B00000207D4908803AE09DF800000D2803D114
:1006C00002207849087032E09DF8000000F0F8F848
:1006D00005007A480078002802D0012814D026E0CE
:1006E00071480088FF2809DC2801704909686E4AB2
:1006F0001288505401207149087018E0002069499F
:10070000087000F0F3F912E067480088674909684B
:1007100080B2415C2943654A126880B281546248C4
:100720000088401C6049088000206449087032E05D
:100730009DF800005A490978884209D100F0D6F99D
:10074000002058490870012000F003FA040012E06C
:100750009DF800003A280BD100205849087000206D
:100760005149088001204F49087000F0ACF902E0BF
:1007700000204C4908700EE09DF800003A280AD18C
:1007800000F0A1F900204849088000204B4908707A
:100790000120444908702000C0B232BD38B50024A1
:1007A00045480078002866D0022811D003D30428D9
:1007B00052D049D363E03A2005002800C0B200F0CF
:1007C000F6F802203C49087000203C49087056E0C9
:1007D00038480088002830D038480078002802D0F7
:1007E000012810D02FE0324800680078C0B200091C
:1007F00000F07DF805002800C0B200F0D8F8012014
:100800002E4908701FE02A480068007810F00F0099
:1008100000F06DF805002800C0B200F0C8F82448C8
:100820000068401C224908600020244908702148C3
:100830000088401E1F49088005E00D2000F0B7F831
:1008400003201D4908701AE01548007800F0AFF841
:1008500004201949087012E000201749087003208D
:1008600000F077F904000021012000F06DF800206D
:100870001149087003E00021012000F065F8200014
:10088000C0B232BD80B507480078401E012803D8A9
:10089000002004490870FFE700F028F9002002BD9D
:1008A0009B1000209910002084100020440200209A
:1008B0007410002086100020981000209A1000204C
:1008C0000100C9B2302906DBC9B23A2903DAB1F115
:1008D0003000C0B20AE0C9B2412906DBC9B24729DB
:1008E00003DAB1F13700C0B200E0FF207047010029
:1008F000C9B20A2903DA11F13000C0B20AE0C9B264
:100900000A2906DBC9B2102903DA11F13700C0B297
:1009100000E030207047020000200B00591E9BB2FF
:10092000002B03D013781818521CF6E7C0B24042CF
:10093000C0B27047F8B504000D0016001F003C4817
:1009400000F0D4F90120F2BD38B504000D00E4B286
:10095000002C09D000F096FA012240F225513448CB
:10096000006800F025FB08E000F085FA002240F264
:1009700025512F48006800F01BFBEDB2002D09D077
:1009800000F08EFA012240F227712948006800F039
:100990000FFB0BE0052000F09BFB00F07AFA002231
:1009A00040F227712248006800F002FB31BD10B50B
:1009B0000400E4B2210089B21D48006800F023FB66
:1009C000012010BD10B504001948006800F01FFB9D
:1009D0002070012010BD80B516480068804701BD19
:1009E00080B515480068804701BD80B540F22551AB
:1009F0000F48006800F00FFB012807D1FFF7F0FF58
:100A000040F225510A48006800F03CFB40F2277193
:100A10000748006800F0FFFA012807D1FFF7DBFF65
:100A200040F227710248006800F02CFB01BD000075
:100A30007C100020681000206410002030B585B0C4
:100A4000040000250121042000F0E5FB3B4800687C
:100A500044F62061B0FBF1F0401E0500ADF80840FF
:100A6000ADF804500020ADF80A000020ADF80600F3
:100A700001A9334800F0ECFB0121314800F04BFCA8
:100A80004FF4C06000F08CFC1E208DF800000020A8
:100A90008DF8010003208DF8020001208DF803007D
:100AA00000A800F082FC0121254800F061FC002232
:100AB0000121234800F024FC0021214800F012FC11
:100AC000012005B030BD80B501211D4800F050FC6B
:100AD000012201211A4800F013FC0021184800F0FF
:100AE00028FC0121164800F0FDFB01BD80B5012165
:100AF000134800F03DFC00220121114800F000FCE9
:100B000000210F4800F015FC00210D4800F0EAFB21
:100B100001BD704780B50B480068804701BD80B5B6
:100B20000121074800F00BFC002805D001210448F2
:100B300000F01EFCFFF7EEFF01BD00004C0200209C
:100B4000000800406C10002000200E4908700120B1
:100B50007047010001200B4A10700B480170012002
:100B6000704701000020074A1278002A07D0064A81
:100B700012780A700022034B1A7001221000C0B2D2
:100B8000704700009F1000209E10002080B528486C
:100B90000068002803D001202649087002E00020E8
:100BA0002449087000F04AF800F072F800F06AF981
:100BB00000F06FF972B600F01BF91F4908700220AF
:100BC00000904FF4964301221B480178002000F06A
:100BD00047FC00F0CFFC62B601BD0100154A127857
:100BE000012A0BD1124A126812680A60002902D049
:100BF0000122100004E00022100001E00022100099
:100C0000C0B2704701000B4A1278012A0BD1084A82
:100C1000126852680A60002902D00122100004E024
:100C20000022100001E000221000C0B27047000056
:100C3000A43100088E1000208F100020F8B500208D
:100C4000009000A8FFF7C9FF0400E4B2002C1ED0FA
:100C5000002005002800C0B20099098880B28842AF
:100C600015D200984068EDB20C2101FB0500006828
:100C7000060000984068EDB20C2101FB0500801DC4
:100C800007003900300000F055FD6D1CE2E7F1BDB2
:100C9000F8B50020009000A8FFF7B4FF0400E4B20C
:100CA000002C22D0002005002800C0B2009909883D
:100CB00080B2884219D200984068EDB2142101FB3D
:100CC00005000068060000984068EDB2142101FBA1
:100CD0000500001D07003900300000F0E9F801218F
:100CE000300000F057F96D1CDEE7F1BD70B582B041
:100CF00004000020009000A8FFF784FF0500EDB27B
:100D0000002D14D0002006003000C0B200990988E0
:100D100080B288420BD200984068F6B2142101FBE1
:100D200006000068F6B244F82600761CECE773BDB6
:100D30002DE9F84F04000D0016005FF000090020B7
:100D400000905FF0000B00A8FFF747FF0700FFB21D
:100D5000002F49D00098008882460098406883465A
:100D60005FFA8AFABAF1000F02D0BBF1000F01D18D
:100D700000203BE0002080465FFA88F85FFA8AFA9C
:100D8000D04531D25FFA88F80C2000FB08B000791A
:100D9000E4B2A04225D1EDB2002D10D13200D2B282
:100DA0005FFA88F80C2000FB08B0C1885FFA88F869
:100DB0000C2000FB08B0006800F064FD11E0EDB20B
:100DC000012D0ED15FFA88F80C2000FB08B0C18815
:100DD0005FFA88F80C2000FB08B0006800F045FDC1
:100DE000814618F10108C7E74846C0B2BDE8F28F56
:100DF0002DE9F8430026002000905FF0000900A8CC
:100E0000FFF7EBFE0400E4B2002C30D000984088DD
:100E100080460098406881465FFA88F8B8F1000F74
:100E200002D0B9F1000F01D1002022E0002005001E
:100E3000EDB25FFA88F8454519D2EDB20C2000FBFF
:100E400005900079002810D1EDB20C2000FB059030
:100E5000C188EDB20C2000FB0590006800F005FD94
:100E60000700FFB217FA05F006436D1CE0E73000FB
:100E7000C0B2BDE8F28380B5012200210320FFF754
:100E800057FF01BD80B5002200210320FFF750FF6E
:100E900001BD80B5002200210420FFF749FF01BDFC
:100EA00080B5012200210420FFF742FF01BD0000B0
:100EB0002DE9F04786B004000D00002600275FF002
:100EC00000085FF000095FF0000AA8890028A24628
:100ED000208A06004CF6FF700640E888064326820A
:100EE000A08906004EF6F3100640A8882989084319
:100EF000698908430643A681A08A06004FF6FF4091
:100F00000640A8890643A68200A800F007F92048F9
:100F1000824502D10398070001E002980700A089EA
:100F2000000408D5192000FB07F029684900B0FB30
:100F3000F1F0804607E0192000FB07F029688900DE
:100F4000B0FBF1F080466420B8FBF0F00001060031
:100F50003009642101FB10808146A089000409D575
:100F60005FEAC90032306421B0FBF1F010F00700F5
:100F7000064308E05FEA091032306421B0FBF1F06B
:100F800010F00F000643268106B0BDE8F087000090
:100F900000380140C9B2012904D1828952F40052BB
:100FA000828104E082894DF6FF731A408281704786
:100FB000F0B4002300240025002689B240F66A1709
:100FC000B94206000F00FFB27F09FFB23B0089B2B1
:100FD00011F01F073C000127A7403D00012B01D164
:100FE0000C3604E0022B01D1103600E01436D2B2E8
:100FF000002A03D037682F43376002E03768AF43D9
:101000003760F0BC7047CA05D20D82807047808877
:10101000C005C00D704770B40200002300250024F5
:10102000002089B240F66A16B1420E00F6B2760987
:10103000F6B2340089B211F01F063500012616FA07
:1010400005F5012C02D19689354006E0022C02D12B
:10105000168A354001E0968A354089B20E0AB6B24A
:101060003300012616FA03F316883340002D04D00E
:10107000002B02D00126300001E000263000C0B273
:1010800070BC704710B40022002389B240F66A1485
:10109000A14289B20C0A22000124944023009BB291
:1010A000DC43048010BC704710B504007FF00400DE
:1010B00000F0B5F9E4B2082094FBF0F01249087092
:1010C000114800784FF47A7148431049088010BDE8
:1010D00080B20E4A128802FB00F20D4B1A60002209
:1010E0000C4B1A6001220C4B1A600B4A126811005B
:1010F00011F00112012AF8D00022074B1A600022D9
:10110000044B1A60704700009210002080100020ED
:1011100014E000E018E000E010E000E030B400214E
:10112000002200230024434D2D6815F00C052900F2
:101130000D00002D04D0042D05D0082D06D026E08A
:101140003D4D056025E03C4D056022E0394D2D68A0
:1011500015F470152A00374D2D6815F480352B00D5
:10116000920C921C002B04D1344D05FB02F5056056
:101170000CE0304D2D68AD0304D5304D05FB02F574
:10118000056003E02C4D05FB02F5056001E02A4DEA
:101190000560284D2D6815F0F00529000909284D36
:1011A0004D5D2C000568E5404560224D2D6815F425
:1011B000E0652900090A224D4D5D2C004568E54097
:1011C00085601C4D2D6815F460552900C90A1C4D19
:1011D0004D5D2C004568E540C560164D2D6815F441
:1011E00040452900890B174D4D5D2C00C568B5FBA6
:1011F000F4F5056130BC7047C9B2002905D0124A28
:1012000012680243104B1A6004E00F4A12688243CE
:101210000D4B1A607047C9B2002905D00B4A1268FD
:1012200002430A4B1A6004E0084A12688243074BE3
:101230001A6070470410024000127A0000093D0055
:101240002402002048020020181002401C10024016
:10125000002203881A00DFF82031984212D0DFF80C
:10126000303198420ED0B0F1804F0BD0DFF80C3106
:10127000984207D0DFF80831984203D0DFF80431F4
:10128000984204D14FF68F731A404B881A43DFF807
:10129000F830984208D0DFF8F430984204D04FF686
:1012A000FF431A40CB881A4302808B8883850B88C2
:1012B0000385DFF8C43098420FD0DFF8D43098426D
:1012C0000BD0DFF8D030984207D0DFF8CC3098420E
:1012D00003D0DFF8C830984201D10B7A038601238E
:1012E00083827047C9B2002904D0028852F00102FB
:1012F000028004E002884FF6FE731A4002807047B5
:10130000D2B2002A03D083890B43838102E0838910
:101310008B4383817047C9B2002904D0028852F000
:101320008002028004E002884FF67F731A40028038
:1013300070478184704789B2CA430282704730B4D3
:101340000200002000230024158A0D402B009589FF
:101350000D402C009BB2002B05D0A4B2002C02D073
:101360000125280001E000252800C0B230BC7047EC
:1013700089B2CA4302827047002C01400004004039
:1013800000080040000C0040001000400014004025
:101390000034014000400140004401400048014049
:1013A00027490143274A1160704770B40023002188
:1013B0000F22C478002C20D0224C246814F4E0645E
:1013C000D4F5E064240A2300D3F104042100DA40B8
:1013D00044788C4023008478144023431B011A4C2A
:1013E00005782B550124057815F01F05AC40174DE5
:1013F0000678761145F8264009E00124057815F0B5
:101400001F05AC40124D0678761145F8264070BC99
:101410007047104A0A4002430F4B1A607047042875
:1014200006D10E49096851F004010C4A116005E02B
:101430000A49096831F00401084A11607047000048
:101440000000FA050CED00E000E400E000E100E03F
:1014500080E100E080FFFF1F08ED00E010E000E009
:101460002DE9F84305000E0017009846089C5FF030
:101470000009F6B2002E05D0F6B2002E02D0F6B268
:10148000F82E02DB0220814670E0DFF82C020670A5
:10149000EDB2002D02D0012D32D054E0DFF81C0255
:1014A000DFF81C120860DFF81C02DFF81C1208606D
:1014B000DFF81802DFF818120860DFF81802DFF80A
:1014C000181208600020DFF814120860DFF810021C
:1014D000DFF810120860DFF81002DFF81012086061
:1014E000DFF80C02DFF80C1208602300DBB2424682
:1014F0003900C9B27048007800F0CEF9814624E086
:101500007D486F4908607D486F4908607C48704994
:1015100008607C48704908600020704908607A487B
:1015200070490860794871490860794871490860D4
:101530002300DBB242463900C9B25F480078FFF7AA
:1015400005F8814601E0022081465FFA89F9B9F188
:10155000000F0BD1FFF7F8FA002802D103208146D3
:1015600004E06C48057001206B4908704846C0B221
:10157000BDE8F28310B5002467480078012806D141
:101580004F480068804700206349087001E006204A
:1015900004002000C0B210BD38B500255E480078B8
:1015A000002801D0062085E000A8FFF7DAFA01281C
:1015B00040F07F809DF80000002805D002281CD054
:1015C00003D3032875D074E073E0554A5549564853
:1015D000414B1B6898470500EDB2002D0CD15248D5
:1015E000007835490978884203D04F4800780028B0
:1015F00002D10220FFF7ADFA5BE04A4800680078AC
:101600004A49087001204A49087000200400102C43
:1016100018DA424810F83400002813D03F4810F878
:1016200034004249097888420AD13D493D48006862
:101630003A4A12EBC402526890473D49087001E0F3
:10164000641CE4E738480078002831D03848007836
:1016500000281CD00020324908803448007850F01F
:101660008000304909682E4A128850542C4800885E
:10167000401C2B4908802E4800782A490968284ACE
:101680001288505426480088401C2549088021486B
:101690000078012802D10A20FFF73BFA204802888F
:1016A0002048016804480078094B1B6898470500EA
:1016B000FFE7002032BD000093100020F51800085D
:1016C000541000200F19000858100020711900084C
:1016D00050100020231900085C100020601000202A
:1016E000F919000864100020791A00086810002019
:1016F000D91A00086C1000209B050008B7050008E7
:1017000015060008CB050008870600089D0700089D
:10171000850800089410002052020020900100204B
:1017200082100020701000209510002096100020DC
:1017300097100020F0B50027002200230024002588
:10174000002691F803C01CF00F0C674691F803C007
:101750005FEACC6C03D591F802C05CEA070791F808
:1017600000C05FEA0C6C3AD0D0F800C065465FF06C
:10177000000C6346082B31D25FF0010C1CFA03FC0D
:101780006446B1F800C014EA0C0C6246A24223D1B0
:101790005FEA830C64465FF00F0C1CFA04FC66469B
:1017A000B54317FA04FC5CEA050591F803C0BCF1E7
:1017B000280F06D15FF0010C1CFA03FCC0F814C01E
:1017C0000AE091F803C0BCF1480F05D15FF0010CAD
:1017D0001CFA03FCC0F810C05B1CCBE70560B1F835
:1017E00000C0BCF1FF0F3FDDD0F804C065465FF0DC
:1017F000000C6346082B36D25FF0010C13F1080E83
:101800001CFA0EFC6446B1F800C014EA0C0C6246E7
:10181000A24226D15FEA830C64465FF00F0C1CFAEB
:1018200004FC6646B54317FA04FC5CEA050591F82A
:1018300003C0BCF1280F07D15FF0010C13F1080EB3
:101840001CFA0EFCC0F814C091F803C0BCF1480F9C
:1018500007D15FF0010C13F1080E1CFA0EFCC0F862
:1018600010C05B1CC6E74560F0BD02000020936815
:1018700089B20B4202D00123180001E000231800B6
:10188000C0B27047D2B2002A02D089B2016101E031
:1018900089B24161704700002DE9F84304000D0052
:1018A00016001F005FF0000872B63B00DBB2082292
:1018B00031002800C0B2FFF73DF8012802D0032014
:1018C000804612E0B6F5964F02D92320814604E007
:1018D00090487100B0FBF1F08146484680B2FFF7B6
:1018E000ADF8012801D00320804662B64046C0B260
:1018F000BDE8F28380B572B60020874908700021E8
:101900000120FFF721F8FFF7DEF862B601BD80B5D0
:1019100072B600210020FFF717F8FFF7E7F862B66C
:1019200001BD2DE9F04104000D00160000275FF015
:10193000000872B679480088042812DB77480188CD
:10194000774800F0F7F800280BD175480078207030
:1019500072480088C01E308072482860012007004D
:1019600001E00520804662B64046C0B2BDE8F08185
:101970002DE9F04104000D001600002772B66648FC
:101980000078012831D1681E674908600120674945
:10199000088065480068047064480088301863490E
:1019A0000880624801886048006800F0C3F88046FB
:1019B0005E480088411C5D4A1180594980B200F898
:1019C00001805A480088411C584A11801FFA88F843
:1019D0005FEA1821524A80B28154012054490870AC
:1019E00001210020FEF7B0FF01E00520070062B6EC
:1019F0003800C0B2BDE8F08110B582B0002400A864
:101A0000FEF7E0FF44490978002905D002291CD0DF
:101A100008D3032903D02CE0FFF755F829E0FFF79E
:101A200052F826E000203D4908803C480088411CCF
:101A30003A4A11809DF80010394A80B28154022040
:101A400035490870FFF73FF813E034480088FF2855
:101A50000ADC32480088411C304A11809DF8001091
:101A60002F4A80B2815402E003202B490870FFF70F
:101A70002AF82000C0B216BD10B500242C4800780A
:101A8000002802D0012805D023E000210120FEF724
:101A90005BFF1EE02548008800280FD02248006820
:101AA0000078FEF784FF20480068401C1E4908604B
:101AB0001E480088401E1D4908800AE00320FFF7E9
:101AC00048F8040000210120FEF73EFF00201849DD
:101AD00008702000C0B210BD10B500240E48007878
:101AE000002804D0022807D003280AD00AE00020EA
:101AF000FFF72FF8040005E00120FFF72AF80400A3
:101B000000E0FFE7FEF7F2FF012003490870200024
:101B1000C0B210BDA07F17009D1000208C100020C7
:101B2000140F0020150F0020781000208A100020CC
:101B30009C10002030B40200FF20FF230D00691E1E
:101B4000ADB2002D0CD0DBB215785D402C00521CDC
:101B5000074D655D45402B00064D655D2800EDE7AE
:101B6000C0B2DBB253EA002080B230BC704700BF85
:101B7000042B0008042C00082DE9F04104000D009E
:101B800000262888052818D1607800028046A078B1
:101B900050EA080818F1010801230122414689B2E0
:101BA000E01C00F02FF90700FFB2002F07D038002B
:101BB000C0B200F0E3F9060001E0032006003000A7
:101BC000C0B2BDE8F0812DE9F04704000D005FF0E0
:101BD00000092888062833DB607800020600A07818
:101BE0000643761CE07800020700207907436079FD
:101BF0008046BFB2002F20D0BFB2792F1DDABFB20E
:101C000078005FFA88F8C0B2804516D101233A0007
:101C100092B2310089B2A01D00F0F4F882465FFA5A
:101C20008AFABAF1000F05D05046C0B200F0A6F90A
:101C3000814607E00520288004E00320814601E07A
:101C4000032081464846C0B2BDE8F0872DE9F04741
:101C500004000D005FF000092888052842D1607853
:101C600000020600A0780643761CE0780002070018
:101C700020790700BFB2002F31D0BFB27E2F2EDAFD
:101C8000A04600202880032088F8000018F10108F1
:101C90002888401C28803800C0B2400088F8000026
:101CA00018F101082888401C288000233A0092B2CD
:101CB000310089B2404600F0A5F882465FFA8AFA00
:101CC000BAF1000F05D05046C0B200F057F9814676
:101CD0000AE02888BFB210EB4700288004E0032008
:101CE000814601E0032081464846C0B2BDE8F08746
:101CF0002DE9F84F04000D00002628880A287CDB17
:101D0000607800020700A07807437F1CE07800029B
:101D10008046207950EA0808607900028146A0795F
:101D200050EA090919F10109E07900028246207A96
:101D300050EA0A0A607A8DF801001FFA88F8B8F1B3
:101D4000000F58D01FFA88F8B8F17E0F53DA1FFA47
:101D50008AFABAF1000F4ED01FFA8AFABAF17A0F56
:101D600049DA1FFA8AFA5FEA4A009DF801108842B0
:101D700041D10123524692B2494689B214F10A0078
:101D800000F040F88DF800009DF80000002828D1F0
:101D9000A3460020288017208BF800001BF1010BC0
:101DA0002888401C28804046C0B240008BF80000C4
:101DB0001BF1010B2888401C28800023424692B268
:101DC000390089B2584600F01DF88DF800009DF8E2
:101DD0000000002805D128881FFA88F810EB480079
:101DE00028809DF80000002807D09DF8000000F032
:101DF000C5F8060001E0032006003000C0B2BDE8CF
:101E0000F28F0000F0B404000025002C01D1022064
:101E100038E089B2002931D089B292B25018B0F5B9
:101E2000817F2BDA481E0700DBB2002B02D0012B8A
:101E300012D025E092B2002A0DD04E48BFB230F841
:101E400017000600B6B2300A2070641C2670641CAD
:101E50007F1C521EEEE713E092B2002A0DD02078CC
:101E600000020600641C20780643641C4148BFB28F
:101E700020F817607F1C521EEEE701E001200500EC
:101E80002800C0B2F0BC704770B403000024002BDF
:101E900001D102201EE089B2002917D089B292B286
:101EA0005018822812DA481E050092B2002A0FD07C
:101EB0003148ADB230F815000600B6B2300A1870DD
:101EC0005B1C1E705B1C6D1C521EEEE701200400A3
:101ED0002000C0B270BC704710B40400002010BCD9
:101EE000704703000020704770B403000024002BEB
:101EF00001D1022018E089B292B2501881280FDA7D
:101F00000D0072B692B2002A08D018881A4EADB2EF
:101F100026F815009B1C6D1C521EF3E762B601E00B
:101F2000012004002000C0B270BC704730B4030030
:101F30000024002B01D1022019E089B292B250187E
:101F4000B0F5807F0FDC0D0072B692B2002A08D087
:101F50000848ADB230F8150018809B1C6D1C521E4D
:101F6000F3E762B601E0012004002000C0B230BCFB
:101F700070470000140C0020000000200100C9B2CE
:101F80000A00002A04D0012A05D0072A06D008E05A
:101F90000022100007E00222100004E006221000D8
:101FA00001E004221000C0B270472DE9F84F040090
:101FB0000D005FF0000A2888052850D160780002E3
:101FC0000600A0780643761CE0780002070020791E
:101FD0000743BFB2002F3FD0BFB2B7F5FA6F3BDA6D
:101FE000A14600202880012089F8000019F101098C
:101FF0002888401C288007210F4206D0BFB2082045
:1020000097FBF0F0401C804604E0BFB2082097FB2D
:10201000F0F0804689F8008019F101092888401CF9
:10202000288000233A0092B2310089B24846FFF777
:1020300053FF83465FFA8BFBBBF1000F05D0584678
:10204000C0B2FFF79BFF82460BE028885FFA88F852
:1020500018EB0000288004E00320824601E0032002
:1020600082465046C0B2BDE8F28F2DE9F04182B001
:1020700004000D0000272888052831D1607800026F
:102080000600A0780643761C2079002825D1E07848
:10209000FF2802D0E07800281FD100208DF8010031
:1020A000E078FF2803D101208DF8000002E0002035
:1020B0008DF8000001230122310089B200A8FFF74A
:1020C0000BFF80465FFA88F8B8F1000F0AD040464F
:1020D000C0B2FFF753FF070004E00320070001E050
:1020E000032007003800C0B2BDE8F6812DE9F84FA3
:1020F00004000D005FF000092888062842DB6078A4
:1021000000020600A0780643761CE0780002070073
:10211000207907436079834607210F4206D0BFB27A
:10212000082097FBF0F0401C804604E0BFB2082076
:1021300097FBF0F08046BFB2002F20D0BFB2B7F5BA
:10214000F66F1CDC5FFA88F85FFA8BFBD84516D176
:1021500001233A0092B2310089B2A01DFFF7BCFE04
:1021600082465FFA8AFABAF1000F05D05046C0B233
:10217000FFF704FF814607E00520288004E00320E4
:10218000814601E0032081464846C0B2BDE8F28F97
:102190002DE9F04F85B004005FF000085FF0000902
:1021A00044F2010A019400A8FEF78CF90098002877
:1021B00012D000984089ADF80C0000988089050085
:1021C000009800690600009840690700B81B401C91
:1021D00002900120804604E00020804644F2040082
:1021E00082465FFA88F8B8F1010F0BD1BDF80C00F8
:1021F000002802D00120804604E044F20500824617
:10220000002080465FFA88F8B8F1010F0FD1ADB217
:102210004FF48060554900FB0510864202D1012031
:10222000804604E044F206008246002080465FFAC1
:1022300088F8B8F1010F0BD10298B0F5806F02D188
:102240000120804604E044F20700824600208046D8
:102250005FFA88F8B8F1010F0DD1ADB2002D05D0AD
:10226000ADB2512D02DA0120804604E044F20800AC
:102270008246002080465FFA88F8B8F1010F0CD141
:1022800001984088ADB2A84202D10120804604E006
:1022900044F209008246002080465FFA88F8B8F1CF
:1022A000010F0FD10198006AB04206D10198406A2F
:1022B000B84202D10120804604E044F20A0082467E
:1022C000002080465FFA88F8B8F1010F2ED1284827
:1022D000ADB20C2101FB05000C388346BBF80200AF
:1022E000002805D1029A3900300000F067F88146D5
:1022F000ABF80050CBF80460CBF808705FFA89F9AE
:10230000ABF802905FFA89F9B9F1000F0BD000F039
:1023100012F8002803D044F20300824606E044F29B
:102320000200824602E044F20B008246504600B2B0
:1023300005B0BDE8F08F00200D4B1A0000231900F6
:1023400089B2502907DA89B20C2303FB01235B8889
:10235000002B491CF4E789B2502902D1012318004F
:1023600001E000231800C0B27047000000BC000864
:10237000540600207047F8B507000C002E4887422D
:1023800017D32E48874214D272B600F059F8BF0A0C
:10239000BF02380000F068F8060000F05CF862B692
:1023A000F6B2042E02D10120050004E00020050051
:1023B00001E0002005002800C0B2F2BD2DE9F8437D
:1023C00004000D0016005FF001091B4884422DD364
:1023D0001A4884422AD272B600F032F800208046B1
:1023E0001FFA88F8B8F1FF0F12DC00AA012140465D
:1023F00080B2FDF7C0FE0700FFB2002F08D00099A1
:10240000200000F060F88146241D18F10108E7E77C
:1024100000F021F862B65FFA89F9B9F1040F02D130
:102420000120070004E00020070001E00020070071
:102430003800C0B2BDE8F28300C00008FFFF010809
:10244000DFF83801DFF838110860DFF83801DFF80D
:10245000301108607047DFF83001006850F08000EC
:10246000DFF824110860704738B5040004255FF4D4
:10247000302000F08FF80500EDB2042D20D1DFF8F8
:102480000801006850F00200DFF8FC100860DFF877
:10249000FC000460DFF8F000006850F04000DFF856
:1024A000E81008605FF4302000F074F80500DFF8F1
:1024B000D800006841F6FD710840DFF8CC100860D4
:1024C0002800C0B232BD70B582B004000D000426F1
:1024D000002000904FF4005000F05CF80600F6B2C7
:1024E000042E2DD1DFF8A000006850F00100DFF8C5
:1024F0009810086025804FF4005000F04BF806005B
:10250000F6B2042E13D1A01C0090280C009908806C
:102510004FF4005000F03EF80600DFF86C00006851
:1025200041F6FE710840DFF86010086008E0DFF84F
:102530005800006841F6FE710840DFF84C10086052
:102540003000C0B276BD042011490968C90702D520
:10255000012108000FE00E490968490702D5022150
:10256000080008E00A490968C90602D503210800E5
:1025700001E004210800C0B2704700002301674554
:1025800004200240AB89EFCD10200240142002400D
:102590000C20024038B504000425FFF7D4FF0500E5
:1025A000EDB2012D06D1002C04D0FFF7CCFF0500C1
:1025B000641EF5E7002C01D1052005002800C0B2FB
:1025C00032BD00000249087070470148007870472A
:1025D000911000202DE9F843FFF7F7FF05000027D1
:1025E0000020009000A800F0F2F8DDF800800098CC
:1025F00010F5807900F0D0F8EDB2002D0AD0022D50
:102600001ED00DD3042D51D033D3062D00F09A8067
:102610007AD39FE000F0A2F80120FFF7D3FF99E002
:102620004046FDF763FD0400E4B2002C07D04046AD
:10263000FDF76EFD06003000C0B2FFF7C3FF89E072
:1026400041F20201022000F0C9F800F0C9F80700C9
:10265000390009B2022000F0C1F83FB241F2010096
:10266000874202D000F0FAF802E00120FFF7AAFF4B
:1026700070E04046FDF73AFD0400E4B2002C14D0AF
:1026800043F20101032000F0A9F80098FDF79CFD3A
:102690000700390009B2032000F0A0F8FDF70EFF93
:1026A000002802D00120FFF78DFF53E044F2010122
:1026B000042000F093F80098FFF76AFD0700390046
:1026C00009B2042000F08AF83FB244F202008742C7
:1026D00005D1FDF7FAFE0120FFF774FF13E03FB2CA
:1026E00044F20300874203D10520FFF76BFF0AE0A5
:1026F0003FB244F20B00874202D100F0AFF802E093
:102700000120FFF75FFF25E045F20101052000F001
:1027100065F800F0ABF80700390009B2052000F0B9
:102720005DF83FB245F20300874203D10620FFF770
:1027300049FF06E03FB245F20200874201D100F0B6
:102740008DF807E046F20101062000F047F800F09E
:1027500011F9FFE700F026F8BDE8F18338B500F085
:1027600067F80400E4B2002C0DD100F07FF80500FA
:102770002DB245F20300854202D100F0FBF80AE0D9
:10278000FEF704FA07E0E4B2012C02D1FEF7FEF9ED
:1027900001E000F063F831BD80B5FEF7FDFE00F00A
:1027A00007F801BD80B500F00BF8FEF7F5FE01BD9E
:1027B00080B54FF4807200210648FFF7B7FB01BDDA
:1027C00080B5802202210448FFF78EFB01BD01493C
:1027D00001607047140A0020140E002070470000AA
:1027E0002DE9F0410124104D104E4FF4806741F265
:1027F0000208B54209D2E4B2002C04D03900280006
:10280000FFF7B9FD04007D19F3E7E4B2002C03D013
:1028100041F20100804602E041F20300804640465A
:1028200000B2BDE8F08100BF00C00008FFFF010852
:102830005FF000500088010089B24AF6CD30814235
:1028400003D10120044A107002E00020024A1070F7
:1028500001480078704700009010002080B50020EB
:102860005FF000510880FFF785FD01BD10B53B48C2
:102870000068002811D03948006800F016F80400FC
:10288000E4B2002C04D045F203003549088008E08A
:1028900045F202003249088003E045F20400304965
:1028A00008802F48B0F9000010BD70B4010000206E
:1028B0008A68CB682B4DAA424AD32B4DAA4247D2F5
:1028C0002A4DAB4244D32A4DAB4241D200252C00C5
:1028D000E4B2102C0CDAE4B2A55CE4B2E65CB542DA
:1028E00002D00025280003E001252800641CEFE742
:1028F000C0B2002815D000252C00E4B2102C10DA4C
:10290000E4B2A51895F82050E4B2E61896F82060D5
:10291000B54202D00025280003E001252800641CF0
:10292000EBE7C0B2002815D000252C00E4B2102C33
:1029300010DAE4B2A5182D7CE4B2E618367CB54274
:1029400002D00025280005E001252800641CEDE7E1
:1029500000252800C0B270BC70470000A4310008F8
:102960005002002000C4000800C8000800FC010854
:102970000000020880B50A4800680A490840B0F122
:10298000005F0BD10648006880F308884FF440418F
:102990005FF00060FEF73DFD0348804701BD00BFCA
:1029A00000C000080000FE2F04C0000880B54E489B
:1029B000006850F001004C4908604C4800684C49E0
:1029C00008404A490860484800684A490840464962
:1029D00008604548006830F4802043490860434857
:1029E000006830F4FE00414908605FF41F0042496E
:1029F000086000F005F85FF000604049086001BD24
:102A000080B500F001F801BD82B0002001900020E7
:102A100000903548006850F48030334908603248EF
:102A2000006810F4003000900198401C019000985C
:102A3000002803D10198B0F5A06FF0D12A480068B2
:102A4000800302D50120009001E000200090009852
:102A5000012847D12A48006850F010002849086032
:102A600027480068800880002549086024480068DD
:102A700050F00200224908601C4800681B490860A9
:102A80001A480068194908601848006850F48060C6
:102A9000164908601548006830F47C101349086036
:102AA0001248006850F4E810104908600E480068A9
:102AB00050F080700C4908600B4800688001FBD51D
:102AC0000A480068800880000849086007480068D4
:102AD00050F00200054908600448006810F00C003E
:102AE0000828F9D102B070470010024004100240DB
:102AF0000000FFF8FFFFF6FE0810024008ED00E0BE
:102B00000020024000C1814001C0804101C08041DD
:102B100000C1814001C0804100C1814000C18140AD
:102B200001C0804101C0804100C1814000C181409D
:102B300001C0804100C1814001C0804101C080418D
:102B400000C1814001C0804100C1814000C181407D
:102B500001C0804100C1814001C0804101C080416D
:102B600000C1814000C1814001C0804101C080415D
:102B700000C1814001C0804100C1814000C181404D
:102B800001C0804101C0804100C1814000C181403D
:102B900001C0804100C1814001C0804101C080412D
:102BA00000C1814000C1814001C0804101C080411D
:102BB00000C1814001C0804100C1814000C181400D
:102BC00001C0804100C1814001C0804101C08041FD
:102BD00000C1814001C0804100C1814000C18140ED
:102BE00001C0804101C0804100C1814000C18140DD
:102BF00001C0804100C1814001C0804101C08041CD
:102C000000C1814000C0C101C30302C2C60607C79C
:102C100005C5C404CC0C0DCD0FCFCE0E0ACACB0B0C
:102C2000C90908C8D81819D91BDBDA1A1EDEDF1F3C
:102C3000DD1D1CDC14D4D515D71716D6D21213D32C
:102C400011D1D010F03031F133F3F23236F6F737DC
:102C5000F53534F43CFCFD3DFF3F3EFEFA3A3BFBCC
:102C600039F9F83828E8E929EB2B2AEAEE2E2FEF7C
:102C70002DEDEC2CE42425E527E7E62622E2E323EC
:102C8000E12120E0A06061A163A3A26266A6A7671C
:102C9000A56564A46CACAD6DAF6F6EAEAA6A6BAB8C
:102CA00069A9A86878B8B979BB7B7ABABE7E7FBFBC
:102CB0007DBDBC7CB47475B577B7B67672B2B373AC
:102CC000B17170B05090915193535292965657975C
:102CD000559594549C5C5D9D5F9F9E5E5A9A9B5B4C
:102CE00099595898884849894B8B8A4A4E8E8F4FFC
:102CF0008D4D4C8C4484854587474686824243836C
:102D000041818040816807E0026811685368891832
:102D10005B18C36008320260C2689142F4D04A1C5A
:102D20008260087870472DE9FF4D00F1080100919D
:102D300000270268520801EBC2010191B846002148
:102D4000029103910168490800EBC101406800F05D
:102D5000010501F10804400804EBC00631E000A8B9
:102D6000FFF7D0FF4FFA80FA0AE0009801680818D0
:102D70000099029049680818039000980830009064
:102D8000029803998842F0D0401C029010F801BDCF
:102D900047450CD1B44208BF00F01DF8276805B1C3
:102DA0004F44606800EB070808344745F2D007F845
:102DB00001BBBAF1000F0AD51AF1010AE8D1474563
:102DC000CDD1B442CBD1304604B0BDE8F08DBAF1DC
:102DD000010AD5D5F3E7012000F000B880B5C04660
:102DE000C046024A11001820ABBEFBE726000200D5
:102DF0002DE9F84F04000D005FF0000A288805282F
:102E00004FD1607800020600A0780643761CE07877
:102E10000002070020790743BFB2002F3ED0BFB2A7
:102E2000B7F5FA6F3ADAA14600202880022089F827
:102E3000000019F101092888401C288007210F4251
:102E400006D0BFB2082097FBF0F0401C804604E09B
:102E5000BFB2082097FBF0F0804689F8008019F196
:102E600001092888401C28803A0092B2310089B2BA
:102E70004846FFF736F883465FFA8BFBBBF1000F3D
:102E800005D05846C0B2FFF779F882460BE0288893
:102E90005FFA88F818EB0000288004E003208246DF
:102EA00001E0032082465046C0B2BDE8F28F2DE912
:102EB000F04704000D005FF000092888052841D183
:102EC000607800020600A0780643761CE0780002D5
:102ED000070020790743BFB2002F30D0BFB27D2F4B
:102EE0002DDAA04600202880042088F8000018F180
:102EF00001082888401C28803800C0B2400088F8AB
:102F0000000018F101082888401C28803A0092B27D
:102F1000310089B24046FEF7B7FF82465FFA8AFA6F
:102F2000BAF1000F05D05046C0B2FFF727F881462E
:102F30000AE02888BFB210EB4700288004E0032095
:102F4000814601E0032081464846C0B2BDE8F087D3
:102F500080B500F003F800F014F801BD80B5012140
:102F60003C20FEF749F901211848FEF754F90121E8
:102F700044F20100FEF740F901210120FEF73CF97F
:102F800001BD80B54FF4C060FEF70AFA25208DF828
:102F9000000000208DF8010000208DF802000120C3
:102FA0008DF8030000A8FEF700FA26208DF8000037
:102FB00000208DF8010000208DF8020001208DF81E
:102FC000030000A8FEF7F1F901BD000001000200B6
:102FD00062B38B0708D0521E11F8013B00F8013B89
:102FE00000F024808B07F6D1830740F0208000BFDB
:102FF000103A07D330B4B1E83810103AA0E83810CE
:10300000F9D230BC530724BFB1E80810A0E808107B
:1030100044BF51F8043B40F8043BD20724BF31F8C9
:10302000022B20F8022B44BF0B7803707047083A3C
:1030300007D3B1E80810083A40F8043B40F804CB45
:10304000F7D25307E4E700002DE9F04104000D003A
:1030500008480688084F14F101083200390040463C
:10306000FFF7B6FF03480088401C28800020BDE819
:10307000F081000088100020141000207047704775
:1030800080B501215FF08040FEF755F901BD704722
:10309000FEE7FEE7FEE7FEE77047704770477047C0
:1030A000704770477047000080B5FFF77FFCFFF75F
:1030B0004FFF4820FDF7F8FF0448006850F000700B
:1030C00002490860FFF786FAFCE700BF04000140F0
:1030D00010B5074979441831064C7C44163404E095
:1030E0000A68081D511888470146A142F8D110BD51
:1030F0002C00000054000000000001000300070045
:103100000F001F003F007F00FF00FF01FF03FF07CC
:10311000FF0FFF1FFF3FFF7FFFFF0000DBD3FFFF1D
:103120004C0E00005402002000000000FBFBFFFFDB
:103130000200000002000000400100002801000021
:10314000000000205302000000F00BF8002801D01E
:10315000FFF7BEFF0020C046C046FFF7A5FF00F006
:1031600002F80120704700F001B800000746384619
:10317000FFF734FEFBE70000340200203C02002091
:1031800000C4000800FC01080148804701480047CE
:10319000AD29000899310008C046C046C046C04667
:1031A000FFF7D2FF78310008FFF771BFFFF770BF5C
:1031B000FFF76FBFFFF76EBFFFF76DBFFFF76CBF85
:1031C000FFF76BBFFFF76ABFFFF7FEBFFFF7FEBF5A
:1031D000FFF7FEBFFFF7FEBFFFF761BFFFF7FEBFC0
:1031E000FFF7FEBFFFF7FEBFFFF7FEBFFFF7FEBF13
:1031F000FFF7FEBFFFF7FEBFFFF7FEBFFFF7FEBF03
:10320000FFF7FEBFFFF7FEBFFFF7FEBFFFF7FEBFF2
:10321000FFF7FEBFFFF7FEBFFFF7FEBFFFF7FEBFE2
:10322000FFF7FEBFFFF7FEBFFFF729BFFFF7FEBFA7
:10323000FFF7FEBFFFF7FEBFFFF7FEBFFFF720BFA0
:10324000FFF7FEBFFDF76BBCFFF7FEBFFFF729BF1F
:10325000FFF7FEBFFFF7FEBFFFF7FEBFFFF720BF80
:10326000FDF7C3BBFFF70ABFFFF7FEBFFFF7FEBFC7
:10327000FFF718BFFFF7FEBF03192020058100826A
:1032800000080C0140000001000328FD00080C01AB
:1032900040000002000328FD00080C01400000204F
:1032A000000328FD00020C0140FD0002010328FD7F
:1032B00000020C0140FD0002020328FD00020C0187
:1032C00040FD0002040328FD000808014001000041
:1032D000040304FD0008080140020000020318FD79
:1032E0000008080140030000080310FD0008080161
:1032F00040040000100310FD00080C014005000010
:10330000080310FD000B10014006000080031000B0
:103310000011FD00044930000804FD0004AF2E0038
:103320000803FD00044D1C000810FD0004C71B002D
:103330000806FD0004791B000817FD0004F11C00BD
:103340000801FD0004AB1F000805FD00046B200010
:10335000080FFD0004ED20000802FD0003F12D0020
:1033600008CF0004380140004BFD000010FD0001B3
:10337000040CF70014010203040102030406070809
:10338000090C0006000001002001FD0012100200DF
:1033900020140F00200204060800A24A0402500272
:040000050800319925
:00000001FF
