:020000040800F2
:10000000B80F0020B9330008333300083533000837
:1000100037330008393300083B3300080000000084
:100020000000000000000000000000003D33000858
:100030003F3300080000000041330008F53300089A
:10004000F9330008FD330008013400084333000889
:10005000093400080D340008113400081534000874
:10006000193400081D340008213400082534000824
:10007000293400082D3400083134000835340008D4
:10008000393400083D340008413400084534000884
:10009000493400084D340008513400085534000834
:1000A000593400085D3400086134000865340008E4
:1000B000253300086D3400089F06000875340008D9
:1000C000473300087D340008813400088534000877
:1000D0004533000875050008913400089534000880
:1000E0009934000849330008A13400082DE9F04193
:1000F00004000D0016001F005FF0000872B60A2011
:10010000DFF83C1308703B00DBB207223100280007
:10011000C0B200F0DFF9012802D00320804607E0DA
:1001200044F6206000F04AFA012801D003208046FE
:1001300062B64046C0B2BDE8F08180B572B600211B
:10014000012000F0CCF90020BE49087062B6002002
:1001500000F0BFFA01BD80B572B60021002000F0AA
:10016000BEF900F083FA62B601BDF8B504000D00D7
:100170001600002772B6B4480088032814DBB24882
:100180000188B248006800F096F900280CD1AF4809
:10019000006800782070AC480088801E3080AB4832
:1001A0000068401C286001E00520070062B63800A6
:1001B000C0B2F2BD2DE9F04104000D001600002789
:1001C00072B6A0480078002826D1681EA0490860B1
:1001D0000120A04908809E48006804709D4800885E
:1001E00030189C4908809B4801889948006800F0B5
:1001F00062F9804697480088411C964A11809349CD
:10020000096880B200F8018001209349087001213B
:10021000002000F064F901E00520070062B6380014
:10022000C0B2BDE8F08138B5002400A800F090F914
:100230008449097800296FD0022949D07BD200F087
:1002400002FA9DF800003A2806D100208349087080
:1002500000207D4908803AE09DF800000D2803D178
:1002600002207849087032E09DF8000000F0F8F8AC
:1002700005007A480078002802D0012814D026E032
:1002800071480088FF2809DC2801704909686E4A16
:100290001288505401207149087018E00020694903
:1002A000087000F0E3F912E06748008867490968C0
:1002B00080B2415C2943654A126880B28154624829
:1002C0000088401C6049088000206449087032E0C2
:1002D0009DF800005A490978884209D100F0C6F912
:1002E000002058490870012000F0F3F9040012E0E2
:1002F0009DF800003A280BD10020584908700020D2
:100300005149088001204F49087000F09CF902E033
:1003100000204C4908700EE09DF800003A280AD1F0
:1003200000F091F900204849088000204B490870EE
:100330000120444908702000C0B232BD38B5002405
:1003400045480078002866D0022811D003D304283D
:1003500052D049D363E03A2005002800C0B200F033
:10036000EDF802203C49087000203C49087056E036
:1003700038480088002830D038480078002802D05B
:10038000012810D02FE0324800680078C0B2000980
:1003900000F07DF805002800C0B200F0CFF8012081
:1003A0002E4908701FE02A480068007810F00F00FE
:1003B00000F06DF805002800C0B200F0BFF8244836
:1003C0000068401C22490860002024490870214828
:1003D0000088401E1F49088005E00D2000F0AEF89F
:1003E00003201D4908701AE01548007800F0A6F8AF
:1003F00004201949087012E00020174908700320F2
:1004000000F067F904000021012000F068F80020E6
:100410001149087003E00021012000F060F820007D
:10042000C0B232BD80B507480078401E012803D80D
:10043000002004490870FFE700F018F9002002BD11
:10044000AD070020AB07002098070020A402002081
:10045000880700209A070020AA070020AC07002088
:100460000100C9B2302906DBC9B23A2903DAB1F179
:100470003000C0B20AE0C9B2412906DBC9B247293F
:1004800003DAB1F13700C0B200E0FF20704701008D
:10049000C9B20A2903DA11F13000C0B20AE0C9B2C8
:1004A0000A2906DBC9B2102903DA11F13700C0B2FC
:1004B00000E030207047020000200B00591E9BB264
:1004C000002B03D013781818521CF6E7C0B2404234
:1004D000C0B2704710B40400012010BC704738B59A
:1004E00004000D00E4B2002C08D000F085F90122D0
:1004F00040F225512E4800F033FB07E000F075F97B
:10050000002240F225512A4800F02AFBEDB2002DCE
:1005100008D000F07FF9012240F22771244800F052
:100520001FFB0AE0052000F0ABFB00F06CF9002295
:1005300040F227711E4800F013FB31BD10B50400D6
:10054000E4B2210089B21A4800F035FB012010BD49
:1005500010B50400164800F032FB2070012010BDD9
:1005600080B514480068804701BD80B51248006816
:10057000804701BD80B540F225510D4800F023FBB6
:10058000012806D1FFF7F1FF40F22551084800F09D
:1005900051FB40F22771064800F015FB012806D1F7
:1005A000FFF7DEFF40F22771014800F043FB01BD79
:1005B000003801407C0700207807002030B585B066
:1005C000040000250121042000F017FC3B480068CE
:1005D00044F62061B0FBF1F0401E0500ADF8084084
:1005E000ADF804500020ADF80A000020ADF8060078
:1005F00001A9334800F01EFC0121314800F07DFCC8
:100600004FF4C06000F0BEFC1E208DF800000020FA
:100610008DF8010003208DF8020001208DF8030001
:1006200000A800F0B4FC0121254800F093FC002252
:100630000121234800F056FC0021214800F044FC31
:10064000012005B030BD80B501211D4800F082FCBD
:10065000012201211A4800F045FC0021184800F051
:100660005AFC0121164800F02FFC01BD80B5012184
:10067000134800F06FFC00220121114800F032FC09
:1006800000210F4800F047FC00210D4800F01CFC41
:1006900001BD704780B50B480068804701BD80B53B
:1006A0000121074800F03DFC002805D00121044845
:1006B00000F050FCFFF7EEFF01BD0000AC0200208F
:1006C000000800408007002000200E49087001202B
:1006D0007047010001200B4A10700B480170012087
:1006E000704701000020074A1278002A07D0064A06
:1006F00012780A700022034B1A7001221000C0B257
:1007000070470000B1070020B0070020DFF8380371
:10071000006850F00100DFF8301308607047DFF820
:100720002C03006850F00100DFF8201308607047C8
:10073000DFF81803006850F00200DFF810130860BB
:100740007047DFF80803006850F00400DFF8FC127F
:1007500008607047DFF8F002006850F00400DFF82E
:10076000E81208607047DFF8E002006850F0080007
:10077000DFF8D41208607047DFF8D002006850F04C
:100780000800DFF8C81208607047DFF8BC02006894
:1007900050F01000DFF8B01208607047DFF8AC02CC
:1007A000006850F01000DFF8A41208607047DFF80E
:1007B0009C02006850F04000DFF89012086070471B
:1007C000A148006850F040009F49086070479F486A
:1007D000006850F480709D49086070479A4800682E
:1007E00050F480709849086070479748006850F44A
:1007F00000609549086070479448006850F40060B4
:100800009249086070479148006850F480508F49C1
:10081000086070478C48006850F480508A4908602E
:1008200070478B48006850F48050894908607047D1
:100830008848006850F480508649086070478648B0
:10084000006850F0010084490860704783480068E0
:1008500050F001008149086070477F48006850F0FF
:1008600002007D49086070477C48006850F0020033
:100870007A49086070477848006850F0040076496B
:10088000086070477548006850F0040073490860BC
:1008900070477148006850F008006F490860704761
:1008A0006E48006850F008006C49086070476B485B
:1008B000006850F040006949086070476648006869
:1008C00050F040006449086070476448006850F088
:1008D00080006249086070475F48006850F08000FF
:1008E0005D49086070475D48006850F480705B495E
:1008F000086070475848006850F480705649086096
:1009000070475648006850F40070544908607047BA
:100910005148006850F400704F49086070474F48D4
:10092000006850F480604D49086070474A4800688C
:1009300050F4806048490860704710B50400E4B284
:10094000002C0CD1FFF7EBFEFFF7B1FFFFF7BDFF67
:10095000FFF7C9FFFFF7D5FFFFF7E1FF5EE0E4B265
:10096000012C0CD1FFF7D2FEFFF7A8FFFFF7ADFF78
:10097000FFF7B9FFFFF7C5FFFFF7D1FF4EE0E4B285
:10098000022C0CD1FFF7C2FEFFF791FFFFF7A4FF87
:10099000FFF7A9FFFFF7B5FFFFF7C1FF3EE0E4B2A5
:1009A000032C0CD1FFF7B2FEFFF781FFFFF78DFF9D
:1009B000FFF7A0FFFFF7A5FFFFF7B1FF2EE0E4B2BE
:1009C000042C0CD1FFF7A2FEFFF771FFFFF77DFFAC
:1009D000FFF789FFFFF79CFFFFF7A1FF1EE0E4B2DE
:1009E000052C0CD1FFF792FEFFF761FFFFF76DFFBB
:1009F000FFF779FFFFF785FFFFF798FF0EE0E4B2FE
:100A0000062C0BD1FFF782FEFFF751FFFFF75DFFCA
:100A1000FFF769FFFFF775FFFFF781FF10BDC00209
:100A20000E49096880B210F4F04211430B4A11607C
:100A30000949096880B2C24312F4F0421143064AE0
:100A400011607047000000001008014014080140C8
:100A5000100C0140140C0140101001401410014012
:100A60002DE9F04786B004000D00002600275FF056
:100A700000085FF000095FF0000AA8890028A2467C
:100A8000208A06004CF6FF700640E888064326825E
:100A9000A08906004EF6F3100640A888298908436D
:100AA000698908430643A681A08A06004FF6FF40E5
:100AB0000640A8890643A68200A800F021F9204834
:100AC000824502D10398070001E002980700A0893F
:100AD000000408D5192000FB07F029684900B0FB85
:100AE000F1F0804607E0192000FB07F02968890033
:100AF000B0FBF1F080466420B8FBF0F00001060086
:100B00003009642101FB10808146A089000409D5C9
:100B10005FEAC90032306421B0FBF1F010F0070049
:100B2000064308E05FEA091032306421B0FBF1F0BF
:100B300010F00F000643268106B0BDE8F0870000E4
:100B400000380140C9B2012904D1828952F400520F
:100B5000828104E082894DF6FF731A4082817047DA
:100B6000F0B4002300240025002689B240F66A175D
:100B7000B94206000F00FFB27F09FFB23B0089B205
:100B800011F01F073C000127A7403D00012B01D1B8
:100B90000C3604E0022B01D1103600E01436D2B23C
:100BA000002A03D037682F43376002E03768AF432D
:100BB0003760F0BC7047CA05D20D828070478088CC
:100BC000C005C00D704770B402000023002500244A
:100BD000002089B240F66A16B1420E00F6B27609DC
:100BE000F6B2340089B211F01F063500012616FA5C
:100BF00005F5012C02D19689354006E0022C02D180
:100C0000168A354001E0968A354089B20E0AB6B29E
:100C10003300012616FA03F316883340002D04D062
:100C2000002B02D00126300001E000263000C0B2C7
:100C300070BC704710B40022002389B240F66A14D9
:100C4000A14289B20C0A22000124944023009BB2E5
:100C5000DC43048010BC704710B504007FF0040032
:100C600000F0C9F9E4B2082094FBF0F01F490870C5
:100C70001E4800784FF47A7148431D49088010BD22
:100C800080B21B4A128802FB00F21A4B1A60002243
:100C9000194B1A600122194B1A60184A1268110088
:100CA00011F00112012AF8D00022144B1A60002220
:100CB000114B1A6070470D4A127802FB00F20D4B7F
:100CC0001A6000220C4B1A6001220C4B1A600B4A6E
:100CD0001268110011F00112012AF8D00022074B0E
:100CE0001A600022044B1A6070470000A20700201F
:100CF0009407002014E000E018E000E010E000E0BD
:100D000030B40021002200230024434D2D6815F04B
:100D10000C0529000D00002D04D0042D05D0082D50
:100D200006D026E03D4D056025E03C4D056022E003
:100D3000394D2D6815F470152A00374D2D6815F4BE
:100D400080352B00920C921C002B04D1344D05FBF6
:100D500002F505600CE0304D2D68AD0304D5304D33
:100D600005FB02F5056003E02C4D05FB02F505606F
:100D700001E02A4D0560284D2D6815F0F005290089
:100D80000909284D4D5D2C000568E5404560224D60
:100D90002D6815F4E0652900090A224D4D5D2C00EF
:100DA0004568E54085601C4D2D6815F460552900A7
:100DB000C90A1C4D4D5D2C004568E540C560164DC7
:100DC0002D6815F440452900890B174D4D5D2C0009
:100DD000C568B5FBF4F5056130BC7047C9B20029A0
:100DE00005D0124A12680243104B1A6004E00F4A01
:100DF000126882430D4B1A607047C9B2002905D0B2
:100E00000B4A126802430A4B1A6004E0084A12684F
:100E10008243074B1A6070470410024000127A00A8
:100E200000093D0090020020A80200201810024096
:100E30001C100240002203881A00DFF8203198427B
:100E400012D0DFF8303198420ED0B0F1804F0BD085
:100E5000DFF80C31984207D0DFF80831984203D010
:100E6000DFF80431984204D14FF68F731A404B8853
:100E70001A43DFF8F830984208D0DFF8F43098428F
:100E800004D04FF6FF431A40CB881A4302808B8868
:100E900083850B880385DFF8C43098420FD0DFF8D4
:100EA000D43098420BD0DFF8D030984207D0DFF82A
:100EB000CC30984203D0DFF8C830984201D10B7A89
:100EC0000386012383827047C9B2002904D00288B7
:100ED00052F00102028004E002884FF6FE731A40CD
:100EE00002807047D2B2002A03D083890B438381EA
:100EF00002E083898B4383817047C9B2002904D003
:100F0000028852F08002028004E002884FF67F736C
:100F10001A40028070478184704789B2CA430282B6
:100F2000704730B40200002000230024158A0D40D1
:100F30002B0095890D402C009BB2002B05D0A4B24C
:100F4000002C02D00125280001E000252800C0B2B5
:100F500030BC704789B2CA4302827047002C0140FE
:100F60000004004000080040000C00400010004059
:100F700000140040003401400040014000440140A2
:100F80000048014024490143244A1160704770B46D
:100F9000002300210F22C478002C20D01F4C24688D
:100FA00014F4E064D4F5E064240A2300D3F10404CB
:100FB0002100DA4044788C40230084781440234395
:100FC0001B01174C05782B550124057815F01F05DA
:100FD000AC40144D0678761145F8264009E001240E
:100FE000057815F01F05AC400F4D0678761145F8D1
:100FF000264070BC7047042806D10C49096851F09E
:1010000004010A4A116005E00849096831F0040149
:10101000064A1160704700000000FA050CED00E080
:1010200000E400E000E100E080E100E010E000E02A
:10103000C84800884DF6AD61884209D1C54840884E
:101040004BF6EF61884203D10020C349087002E0EB
:101050000120C1490870704710B5BF4800780028CA
:101060000FD1BE480088BE490988884209D0BC48D3
:101070000088C0B200F0ABF90400B9480088B74955
:10108000088010BDF8B5B4480078012871D0B54883
:101090000088B5490988884205D1B2484088B249DC
:1010A000498888421BD0B0480088AE490880AE48C5
:1010B0004088AC494880AD480068AD490860A948FF
:1010C0004088A849098851EA0040A8490860A84812
:1010D0000068A64909684840A549086002E0002068
:1010E000A349086000200400E4B2042C3EDAA048C2
:1010F0000068FF21E4B2E2009140084234D00620AB
:10110000FFF71BFC0120FFF7D6FD9A48E4B2205CF4
:10111000FFF713FC0520FFF7CEFD00200500EDB220
:10112000082D21DAE4B2EDB215EBC40006009048B8
:101130000068F040C00715D58C480068F040C00733
:1011400006D5EDB2280080B200F0D5F9070009E01D
:101150008948F6B230F81610EDB2280080B200F0DF
:10116000B6F907006D1CDAE7641CBDE70620FFF73F
:10117000E4FBF1BDF8B578480078012874D0002070
:101180007E49086000200400E4B2042C26DA002026
:101190000500EDB2082D1FDAE4B2EDB215EBC40084
:1011A00006007548F6B230F816007549F6B231F807
:1011B000161088420ED07248F6B230F816006E490A
:1011C000F6B221F816006D4800680121B1400843CD
:1011D0006A4908606D1CDCE7641CD5E70020040048
:1011E000E4B2042C3DDA65480068FF21E4B2E20075
:1011F0009140084233D00620FFF79FFB0120FFF704
:101200005AFD5C48E4B2205CFFF797FB0520FFF72E
:1012100052FD00200500EDB2082D20DAE4B2EDB257
:1012200015EBC400060055480068F04010F00100BE
:10123000C0B2002811D04D480068F04010F0010005
:10124000C0B2002809D14C48F6B230F81610EDB201
:10125000280080B200F03BF907006D1CDBE7641C3E
:10126000BEE70620FFF769FBF1BD38B53A480078C4
:10127000002810D100200400E4B2022C0BDA41480F
:10128000E4B210EB4401E4B2200080B200F040FA76
:101290000500641CF0E731BD38B52F480078002800
:1012A00010D100200400E4B2202C0BDA3648E4B25E
:1012B00010EB4401E4B2200080B200F0E6F9050032
:1012C000641CF0E731BD38B523480078002810D100
:1012D00000200400E4B2202C0BDA2C48E4B210EB1E
:1012E0004401E4B2200080B200F0E4F90500641C7F
:1012F000F0E731BD38B518480078002810D100203B
:101300000400E4B2202C0BDA2148E4B210EB4401D3
:10131000E4B2200080B200F0E4F90500641CF0E7BC
:1013200031BD80B5FFF784FEFFF796FE4FF46040B5
:10133000ADF8000003208DF8020018208DF803009E
:1013400000A9144800F092FAFFF79CFEFFF712FF85
:1013500001BD0000440700208E02002090070020FD
:1013600092070020480700204C070020500700206B
:1013700054070020A0020020C405002058070020C8
:10138000040600205C07002044060020840600209C
:10139000C4060020000C014080B500F0D9F8FFF72A
:1013A00064FFFFF779FFFFF78EFFFFF7A3FF01BD93
:1013B0001CB50024FF208DF8040001A800905023E4
:1013C000012211210B4800F00DFB040013BD30B5C4
:1013D00083B0040000258DF8044001A8009050233C
:1013E00001221121034800F0FDFA05002800C0B2D7
:1013F0003EBD000000540040DFF800F05102002024
:1014000080B50620FFF799FA0120FFF796FA00F061
:1014100085F80220FFF791FA00F080F80320FFF72B
:101420008CFA00F07BF80420FFF787FA00F076F8DA
:101430000620FFF782FA01BDF8B504000D00160082
:101440000027002D01D0002E01D1002012E0320033
:101450002988DFF8EC00FFF7CFFF0700FFB2012F6C
:1014600006D1B21C6988DFF8D800FFF7C5FF070076
:101470003800C0B2F2BD2DE9F04182B004000D0089
:101480001600EDB2082D01DB00201EE0DFF8B400ED
:10149000EDB210EB85008046E4B214F0F000EDB23E
:1014A00015F00F010843ADF80000ADF80260B8F187
:1014B000000F01D1002008E0424600A9DFF88000BB
:1014C000FFF7BAFF07003800C0B2BDE8F68170B57B
:1014D00004000D000026A4B2082C01DB002009E066
:1014E0002A0092B22100C9B23020FFF7C4FF0600E3
:1014F0003000C0B270BD38B504000025A4B2082C7D
:1015000001DB002009E04FF6FF722100C9B2402044
:10151000FFF7B1FF05002800C0B232BD38B5002486
:1015200000200500ADB2082D06DA280080B2FFF7D2
:10153000E2FF04006D1CF5E72000C0B232BD0000E0
:10154000003800400407002080B5FFF7E8F901BD2E
:1015500070B582B04FF48040ADF8000003208DF8E4
:10156000020004208DF8030000A9BA4800F07EF9BB
:101570004FF42040ADF8000003208DF80200102049
:101580008DF8030000A9B34800F070F900200400B2
:10159000A4B2102C78DA200080B2FFF740FA0020C5
:1015A0000500ADB2082D1FDAAB48ADB230F815001A
:1015B00000F0E5F8A848ADB230F8150000F0DFF80B
:1015C000A548ADB230F8150000F0D9F80120FFF7BA
:1015D00072FBA248A4B210EB0416ADB200F003F9FE
:1015E00026F815006D1CDCE79C48A4B22101085ABE
:1015F0009B49A4B221F814009848A4B210EB04103F
:1016000040889749A4B211EB440108849348A4B2DE
:1016100010EB041080889249A4B211EB4401A1F8A8
:1016200040008E48A4B210EB0410C0888C49A4B2CC
:1016300011EB4401A1F860008848A4B210EB04103B
:1016400000898749A4B211EB4401A1F880008348C6
:10165000A4B210EB041040898149A4B211EB4401FB
:10166000A1F8A0007D48A4B210EB041080897C4949
:10167000A1F8C0007948A4B210EB0410C0897849E1
:10168000A1F8C200641C83E773BD02000023002997
:1016900001D100200DE092B2202A01DB002008E0F9
:1016A0006F4892B230F81200088001200300180041
:1016B000C0B2704702000023002901D100200FE0D2
:1016C00092B2202A01DB00200AE0654892B210EBBA
:1016D0004200B0F840000880012003001800C0B2AA
:1016E000704702000023002901D100200FE092B2D0
:1016F000202A01DB00200AE0594892B210EB420098
:10170000B0F880000880012003001800C0B27047C4
:1017100002000020002901D1C0B213E092B2002AD9
:1017200006D14F4BB3F8C0300B800123180008E0FE
:1017300092B2012A05D14A4BB3F8C2300B80012383
:101740001800C0B270474748006850F4004045494F
:10175000086070474448006850F4004042490860FF
:1017600070474048006850F400503E490860704798
:101770003D48006850F400503B490860704770B520
:101780000400002500262500FFF7C9F8FFF7F0FF49
:101790000120FFF790FAFFF7C9F80120FFF78BFA55
:1017A00000200600B6B20E2E14DAFFF7E1FFADB24C
:1017B000280402D5FFF7C7FF01E0FFF7CBFF0120A8
:1017C000FFF779FAFFF7CDFF0120FFF774FA6D00FC
:1017D000761CE7E70120FFF76EFAFFF7A0F801207B
:1017E000FFF769FA70BD38B500240025FFF7ABFF9D
:1017F000FFF795F8FFF7BCFF0120FFF75CFAFFF752
:1018000095F80120FFF757FA002005000E2D15D29C
:1018100064000120FFF74FFAFFF7A3FF0120FFF755
:101820004AFA4FF480410B4800F0BBF8002801D081
:1018300054F00104FFF79CFF6D1CE7E70120FFF760
:101840003AFAFFF76CF80120FFF735FA200080B272
:1018500032BD0000000C0140A8330008B002002097
:10186000B0040020100C0140140C0140F0B500271A
:101870000022002300240025002691F803C01CF05C
:101880000F0C674691F803C05FEACC6C03D591F862
:1018900002C05CEA070791F800C05FEA0C6C3AD01E
:1018A000D0F800C065465FF0000C6346082B31D2CB
:1018B0005FF0010C1CFA03FC6446B1F800C014EAA6
:1018C0000C0C6246A24223D15FEA830C64465FF0AF
:1018D0000F0C1CFA04FC6646B54317FA04FC5CEADC
:1018E000050591F803C0BCF1280F06D15FF0010C8B
:1018F0001CFA03FCC0F814C00AE091F803C0BCF164
:10190000480F05D15FF0010C1CFA03FCC0F810C0B1
:101910005B1CCBE70560B1F800C0BCF1FF0F3FDDF9
:10192000D0F804C065465FF0000C6346082B36D241
:101930005FF0010C13F1080E1CFA0EFC6446B1F8BE
:1019400000C014EA0C0C6246A24226D15FEA830C66
:1019500064465FF00F0C1CFA04FC6646B54317FAA8
:1019600004FC5CEA050591F803C0BCF1280F07D11F
:101970005FF0010C13F1080E1CFA0EFCC0F814C045
:1019800091F803C0BCF1480F07D15FF0010C13F1CF
:10199000080E1CFA0EFCC0F810C05B1CC6E74560C0
:1019A000F0BD02000020936889B20B4202D00123EF
:1019B000180001E000231800C0B27047DFF800F003
:1019C00001000020DFF800F03D000020DFF800F00B
:1019D0007F000020DFF800F0BB000020DFF800F0FF
:1019E0001F0000202DE9F04383B004000D00160015
:1019F0001F00DDF82880002001900020ADF80000D5
:101A00002000FFF7DBFF17F0FE073900C9B2200006
:101A1000FFF7D8FF81465FFA89F9B9F1010F1CD1B0
:101A20002900C9B22000FFF7D1FF81465FFA89F98A
:101A3000B9F1010F0DD1F6B2002E11D03200D2B2A1
:101A400041462000FFF7C6FF81462000FFF7C6FF92
:101A500006E02000FFF7C2FF02E02000FFF7BEFF14
:101A60004846C0B2BDE8FE832DE9F84305000E00EC
:101A700017009846089C5FF00009F6B2002E05D0CA
:101A8000F6B2002E02D0F6B2F82E02DB022081461A
:101A900070E0DFF82C020670EDB2002D02D0012DAF
:101AA00032D054E0DFF81C02DFF81C120860DFF8C7
:101AB0001C02DFF81C120860DFF81802DFF81812A9
:101AC0000860DFF81802DFF8181208600020DFF85D
:101AD00014120860DFF81002DFF810120860DFF857
:101AE0001002DFF810120860DFF80C02DFF80C12A9
:101AF00008602300DBB242463900C9B27048007862
:101B000000F01CF9814624E07D486F4908607D485B
:101B10006F4908607C48704908607C4870490860DB
:101B20000020704908607A48704908607948714916
:101B300008607948714908602300DBB242463900E9
:101B4000C9B25F480078FEF7D1FA814601E0022071
:101B500081465FFA89F9B9F1000F0BD1FEF7B4FDA8
:101B6000002802D10320814604E06C480570012062
:101B70006B4908704846C0B2BDE8F28310B5002436
:101B800067480078012806D14F4800688047002048
:101B90006349087001E0062004002000C0B210BDB7
:101BA00038B500255E480078002801D0062085E081
:101BB00000A8FEF796FD012840F07F809DF8000008
:101BC000002805D002281CD003D3032875D074E068
:101BD00073E0554A55495648414B1B6898470500E4
:101BE000EDB2002D0CD15248007835490978884271
:101BF00003D04F480078002802D10220FEF769FD8B
:101C00005BE04A48006800784A49087001204A4968
:101C1000087000200400102C18DA424810F8340034
:101C2000002813D03F4810F8340042490978884210
:101C30000AD13D493D4800683A4A12EBC402526855
:101C400090473D49087001E0641CE4E7384800789B
:101C5000002831D03848007800281CD000203249B4
:101C600008803448007850F08000304909682E4AD6
:101C7000128850542C480088401C2B4908802E485C
:101C800000782A490968284A128850542648008852
:101C9000401C2549088021480078012802D10A20EB
:101CA000FEF7F7FC204802882048016804480078C5
:101CB000094B1B6898470500FFE7002032BD000074
:101CC000A5070020991D000868070020B31D000823
:101CD0006C070020151E000864070020C71D0008BF
:101CE00070070020740700209D1E00087807002060
:101CF0001D1F00087C0700207D1F000880070020B2
:101D00003B01000857010008B50100086B010008FD
:101D1000270200083D03000825040008A60700204C
:101D20008F020020D00100209607002084070020A9
:101D3000A7070020A8070020A90700202DE9F843E5
:101D400004000D0016001F005FF0000872B63B0093
:101D5000DBB2082231002800C0B2FEF7BBFB01282D
:101D600002D00320804612E0B6F5964F02D9232018
:101D7000814604E090487100B0FBF1F0814648468E
:101D800080B2FEF71BFC012801D00320804662B61A
:101D90004046C0B2BDE8F28380B572B600208749E4
:101DA000087000210120FEF79AFBFEF74CFC62B69A
:101DB00001BD80B572B600210020FEF790FBFEF752
:101DC00055FC62B601BD2DE9F04104000D0016007E
:101DD00000275FF0000872B679480088042812DBFB
:101DE00077480188774800F0F7F800280BD175484C
:101DF0000078207072480088C01E308072482860C9
:101E00000120070001E00520804662B64046C0B2CE
:101E1000BDE8F0812DE9F04104000D001600002717
:101E200072B666480078012831D1681E674908609B
:101E3000012067490880654800680470644800888C
:101E4000301863490880624801886048006800F0E3
:101E5000C3F880465E480088411C5D4A118059499C
:101E600080B200F801805A480088411C584A11800D
:101E70001FFA88F85FEA1821524A80B28154012083
:101E80005449087001210020FEF729FB01E00520DC
:101E9000070062B63800C0B2BDE8F08110B582B06C
:101EA000002400A8FEF754FB44490978002905D016
:101EB00002291CD008D3032903D02CE0FEF7C3FB72
:101EC00029E0FEF7C0FB26E000203D4908803C48A1
:101ED0000088411C3A4A11809DF80010394A80B2AE
:101EE0008154022035490870FEF7ADFB13E03448F9
:101EF0000088FF280ADC32480088411C304A1180E3
:101F00009DF800102F4A80B2815402E003202B4933
:101F10000870FEF798FB2000C0B216BD10B5002473
:101F20002C480078002802D0012805D023E00021A9
:101F30000120FEF7D4FA1EE02548008800280FD0C3
:101F4000224800680078FEF7F9FA20480068401C33
:101F50001E4908601E480088401E1D4908800AE08E
:101F60000320FEF7B6FB040000210120FEF7B7FABC
:101F70000020184908702000C0B210BD10B5002420
:101F80000E480078002804D0022807D003280AD081
:101F90000AE00020FEF79DFB040005E00120FEF7AB
:101FA00098FB040000E0FFE7FEF760FB0120034917
:101FB00008702000C0B210BDA07F1700AF0700203E
:101FC000A0070020B0030020B10300208C070020F0
:101FD0009E070020AE07002030B40200FF20FF2340
:101FE0000D00691EADB2002D0CD0DBB215785D403E
:101FF0002C00521C074D655D45402B00064D655D6C
:102000002800EDE7C0B2DBB253EA002080B230BC5A
:10201000704700BF042E0008042F000880B500F0B0
:102020004BF800F058F800F06BF800F0DAF800F028
:10203000FEF800F023F9FEF784FBFEF7C8FBFEF77D
:10204000B6FBFEF763FBFEF773FBFEF7CEFBFEF776
:10205000DAFBFEF7E6FBFEF7F2FBFEF7FEFBFEF710
:102060000AFCFEF716FCFEF77EFBFEF78EFBFEF782
:1020700071FBFEF7B3FBFEF7A3FBFEF7D9FBFEF700
:10208000E5FBFEF7F1FBFEF7FDFBFEF709FCFEF7B3
:1020900073FBFEF783FB0620FEF74FFC0020FEF7E4
:1020A000BEFCFFF785F9FFF7ABF9FFF74DFAFEF736
:1020B000A3FBFEF7A8FB01BD80B501213C20FEF784
:1020C0008DFE01218048FEF798FE012144F20100B7
:1020D000FEF784FE01BD80B54FF4C060FEF752FFED
:1020E00025208DF8000000208DF8010000208DF8DB
:1020F000020001208DF8030000A8FEF748FF01BD93
:1021000080B541F67F10ADF8000003208DF8020085
:1021100010208DF8030000A96C48FFF7A7FB4FF4CF
:102120008060ADF8000003208DF8020004208DF8D7
:10213000030000A96548FFF799FB4FF40070ADF864
:10214000000003208DF8020018208DF8030000A97C
:102150005E48FFF78BFB40F22370ADF800000320D0
:102160008DF8020004208DF8030000A95848FFF7FD
:102170007DFBC020ADF8000003208DF802001C207C
:102180008DF8030000A95248FFF770FB4FF4604040
:10219000ADF8000003208DF8020018208DF8030030
:1021A00000A94B48FFF762FB4FF4C050ADF80000A8
:1021B00003208DF8020010208DF8030000A9444888
:1021C000FFF754FB4FF6FF70ADF8000003208DF8C9
:1021D000020010208DF8030000A93E48FFF746FBDF
:1021E00001BD00B585B04FF4964000904FF480508B
:1021F000ADF804000020ADF806004FF48060ADF8A3
:1022000008000020ADF80C000C20ADF80A0000A971
:102210003148FEF725FC012240F225512E48FEF7F9
:102220009FFC01212C48FEF78DFC05B000BD00B5D8
:1022300085B00020ADF800004FF48270ADF80200C8
:102240004FF40060ADF804000020ADF80600002057
:10225000ADF808004FF40070ADF80A000020ADF8AA
:102260000C000020ADF80E0000A91C4800F03AF860
:1022700001211A4800F056F805B000BD00B585B040
:102280000020ADF804004BF6FF70ADF806003020DA
:10229000ADF808004FF48060ADF80A004FF48040BC
:1022A000ADF80C0042F21070009000A90C4800F04C
:1022B00047F800210A4800F0D1F80121084800F051
:1022C000BFF805B000BD000001402000000801403B
:1022D000000C01400010014000380140003800406F
:1022E0000054004010B4002203881A0012F4415236
:1022F0000B884C8823438C882343CC8823430C8948
:1023000023434C8923438C892343CC8923431A4399
:102310000280838B4FF2FF74234083830B8A0382F6
:1023200010BC7047C9B2002904D0028852F04002A4
:10233000028004E002884FF6BF731A4002807047A3
:102340002DE9F04385B004000D005FF00009002680
:102350000427DFF8E080A08881464FF6C07010EABD
:10236000090900A8FEF7CCFC029880463248B8FB69
:10237000F0F0060056EA0909A4F8049020884FF608
:10238000FE71084020800020814628682B49884241
:102390000ED228684000B8FBF0F00700BFB2042F4F
:1023A00001DA0420070057EA0909701C208426E09E
:1023B000E8884BF6FF71884206D12868032148431C
:1023C000B8FBF0F0070007E0286819214843B8FB84
:1023D000F0F0070057F48047380501D157F00107A6
:1023E00057F4004050EA0909B6B24FF4967000FB6A
:1023F00006F04FF47A7190FBF1F0401C2084A4F8B1
:102400001C90208850F001002080208881464FF6E3
:10241000F53010EA0909A8886989084350EA0909D2
:10242000A4F80090A88929890843208105B0BDE857
:10243000F083000000127A0040420F00A1860100E4
:10244000C9B2002904D0028852F00102028004E0DF
:1024500002884FF6FE731A4002807047C9B2002905
:1024600004D0028852F02002028004E002884FF675
:10247000DF731A40028070472DE9F04104000D001F
:1024800000262888052818D1607800028046A078A8
:1024900050EA080818F1010801230122414689B2D7
:1024A000E01C00F03FF90700FFB2002F07D0380012
:1024B000C0B200F045FA060001E00320060030003B
:1024C000C0B2BDE8F0812DE9F04704000D005FF0D7
:1024D00000092888062833DB607800020600A0780F
:1024E0000643761CE07800020700207907436079F4
:1024F0008046BFB2002F20D0BFB2792F1DDABFB205
:1025000078005FFA88F8C0B2804516D101233A00FE
:1025100092B2310089B2A01D00F004F982465FFA40
:102520008AFABAF1000F05D05046C0B200F008FA9E
:10253000814607E00520288004E00320814601E071
:10254000032081464846C0B2BDE8F0872DE9F04738
:1025500004000D005FF000092888052842D160784A
:1025600000020600A0780643761CE078000207000F
:1025700020790700BFB2002F31D0BFB27E2F2EDAF4
:10258000A04600202880032088F8000018F10108E8
:102590002888401C28803800C0B2400088F800001D
:1025A00018F101082888401C288000233A0092B2C4
:1025B000310089B2404600F0B5F882465FFA8AFAE7
:1025C000BAF1000F05D05046C0B200F0B9F981460B
:1025D0000AE02888BFB210EB4700288004E00320FF
:1025E000814601E0032081464846C0B2BDE8F0873D
:1025F0002DE9F84F04000D00002628880A287CDB0E
:10260000607800020700A07807437F1CE078000292
:102610008046207950EA0808607900028146A07956
:1026200050EA090919F10109E07900028246207A8D
:1026300050EA0A0A607A8DF801001FFA88F8B8F1AA
:10264000000F58D01FFA88F8B8F17E0F53DA1FFA3E
:102650008AFABAF1000F4ED01FFA8AFABAF17A0F4D
:1026600049DA1FFA8AFA5FEA4A009DF801108842A7
:1026700041D10123524692B2494689B214F10A006F
:1026800000F050F88DF800009DF80000002828D1D7
:10269000A3460020288017208BF800001BF1010BB7
:1026A0002888401C28804046C0B240008BF80000BB
:1026B0001BF1010B2888401C28800023424692B25F
:1026C000390089B2584600F02DF88DF800009DF8C9
:1026D0000000002805D128881FFA88F810EB480070
:1026E00028809DF80000002807D09DF8000000F029
:1026F00027F9060001E0032006003000C0B2BDE863
:10270000F28F50F8041B61B150F8042BD30744BF7B
:10271000A9F101039A18002342F8043B091FFAD1DA
:10272000EFE770472DE9F04704000D0016001F0089
:102730005FF00008002C01D1022057E0ADB2002D5F
:1027400050D0ADB2B6B270192A284BDA681E814655
:10275000FFB2002F02D0012F17D045E0B6B2002EF5
:1027600012D06D481FFA89F930F8190082461FFA15
:102770008AFA5FEA1A202070641C84F800A0641CA6
:1027800019F10109761EE9E72EE0B6B2002E10D04D
:10279000207800028246641C207850EA0A0A641CF1
:1027A0005D481FFA89F920F819A019F10109761E70
:1027B000EBE702220021594800F08CF88046012204
:1027C0000221574800F086F880460222032155482E
:1027D00000F080F8804620220821534800F07AF863
:1027E000804601E0012080464046C0B2BDE8F08747
:1027F0002DE9F84304000D0016000027002C01D13C
:1028000002203BE002220421484800F041F8070082
:1028100020220821464800F03BF80700202228210A
:10282000444800F035F8070020224821424800F0D3
:102830002FF80700ADB2002D1CD0ADB2B6B27019A2
:102840006A2817DA681E8046B6B2002E14D03B48BC
:102850001FFA88F830F8180081461FFA89F95FEAF4
:1028600019202070641C84F80090641C18F1010881
:10287000761EE9E7012007003800C0B2BDE8F28308
:1028800010B40400002010BC704703000020704703
:1028900070B403000024002B01D1022018E089B29B
:1028A00092B2501869280FDA0D0072B692B2002A5F
:1028B00008D01888214EADB226F815009B1C6D1C5F
:1028C000521EF3E762B601E0012004002000C0B20E
:1028D00070BC704730B403000024002B01D10220EB
:1028E00018E089B292B2501829280FDA0D0072B69A
:1028F00092B2002A08D00848ADB230F8150018800E
:102900009B1C6D1C521EF3E762B601E0012004001F
:102910002000C0B230BC704774050020440700207E
:10292000920700204C070020040600205C070020CE
:102930004406002084060020C40600200001002078
:102940000100C9B20A00002A04D0012A05D0072AD2
:1029500006D008E00022100007E00222100004E088
:102960000622100001E004221000C0B270472DE9D9
:10297000F84F04000D005FF0000A2888052850D1A8
:10298000607800020600A0780643761CE07800021A
:10299000070020790743BFB2002F3FD0BFB2B7F581
:1029A000FA6F3BDAA14600202880012089F8000058
:1029B00019F101092888401C288007210F4206D000
:1029C000BFB2082097FBF0F0401C804604E0BFB285
:1029D000082097FBF0F0804689F8008019F1010982
:1029E0002888401C288000233A0092B2310089B226
:1029F0004846FFF745FF83465FFA8BFBBBF1000FAC
:102A000005D05846C0B2FFF79BFF82460BE02888EE
:102A10005FFA88F818EB0000288004E00320824663
:102A200001E0032082465046C0B2BDE8F28F2DE996
:102A3000F04182B004000D0000272888052831D11C
:102A4000607800020600A0780643761C20790028F2
:102A500025D1E078FF2802D0E07800281FD100209F
:102A60008DF80100E078FF2803D101208DF80000E7
:102A700002E000208DF8000001230122310089B21C
:102A800000A8FFF7FDFE80465FFA88F8B8F1000F56
:102A90000AD04046C0B2FFF753FF070004E003200E
:102AA000070001E0032007003800C0B2BDE8F6814E
:102AB0002DE9F84F04000D005FF000092888062872
:102AC00042DB607800020600A0780643761CE078BE
:102AD00000020700207907436079834607210F42EF
:102AE00006D0BFB2082097FBF0F0401C804604E0FF
:102AF000BFB2082097FBF0F08046BFB2002F20D075
:102B0000BFB2B7F5F66F1CDC5FFA88F85FFA8BFB93
:102B1000D84516D101233A0092B2310089B2A01DE6
:102B2000FFF7AEFE82465FFA8AFABAF1000F05D0CF
:102B30005046C0B2FFF704FF814607E00520288019
:102B400004E00320814601E0032081464846C0B2EC
:102B5000BDE8F28FBFF34F8F4E48006810F4E0607D
:102B60004D4908434B490860BFF34F8FFEE74B497F
:102B7000087000214A4A1170704780B500F096F83D
:102B80004820FEF769F84748006850F00070454952
:102B9000086072B6FFF742FA022000904FF49643A5
:102BA000012201210020FEF75FFFFEF7E7FF62B67A
:102BB0000220FFF7DCFF00F001F8FCE780B53748A2
:102BC0000078002803D002282ED019D361E03448C1
:102BD0000078002803D002280ED009D30FE001208E
:102BE00080F31388FFF7B6FF01202D49087006E037
:102BF00002202B49087002E00220FFF7B8FF48E0EE
:102C000027480078002803D0022809D004D30AE01E
:102C100001202349087006E002202149087002E0E3
:102C20000220FFF7A4FF34E01D480078002805D0FB
:102C300002281AD006D3032818D02AE00120184908
:102C4000087026E0FEF7ACFFFEF76BFB1648006845
:102C5000401C1549086014480068052804D1FEF797
:102C60009BFB00201049086013E012E00C4800783C
:102C7000002803D0022809D004D30AE00120084923
:102C8000087006E002200649087002E00020FFF705
:102C90006EFF01BD0CED00E00400FA05A307002063
:102CA000A4070020040001406007002080B54E48C2
:102CB000006850F001004C4908604C4800684C49DD
:102CC00008404A490860484800684A49084046495F
:102CD00008604548006830F4802043490860434854
:102CE000006830F4FE00414908605FF41F0042496B
:102CF000086000F005F85FF000604049086001BD21
:102D000080B500F001F801BD82B0002001900020E4
:102D100000903548006850F48030334908603248EC
:102D2000006810F4003000900198401C0190009859
:102D3000002803D10198B0F5A06FF0D12A480068AF
:102D4000800302D50120009001E00020009000984F
:102D5000012847D12A48006850F01000284908602F
:102D600027480068800880002549086024480068DA
:102D700050F00200224908601C4800681B490860A6
:102D80001A480068194908601848006850F48060C3
:102D9000164908601548006830F47C101349086033
:102DA0001248006850F4E810104908600E480068A6
:102DB00050F080700C4908600B4800688001FBD51A
:102DC0000A480068800880000849086007480068D1
:102DD00050F00200054908600448006810F00C003B
:102DE0000828F9D102B070470010024004100240D8
:102DF0000000FFF8FFFFF6FE0810024008ED00E0BB
:102E00000020024000C1814001C0804101C08041DA
:102E100000C1814001C0804100C1814000C18140AA
:102E200001C0804101C0804100C1814000C181409A
:102E300001C0804100C1814001C0804101C080418A
:102E400000C1814001C0804100C1814000C181407A
:102E500001C0804100C1814001C0804101C080416A
:102E600000C1814000C1814001C0804101C080415A
:102E700000C1814001C0804100C1814000C181404A
:102E800001C0804101C0804100C1814000C181403A
:102E900001C0804100C1814001C0804101C080412A
:102EA00000C1814000C1814001C0804101C080411A
:102EB00000C1814001C0804100C1814000C181400A
:102EC00001C0804100C1814001C0804101C08041FA
:102ED00000C1814001C0804100C1814000C18140EA
:102EE00001C0804101C0804100C1814000C18140DA
:102EF00001C0804100C1814001C0804101C08041CA
:102F000000C1814000C0C101C30302C2C60607C799
:102F100005C5C404CC0C0DCD0FCFCE0E0ACACB0B09
:102F2000C90908C8D81819D91BDBDA1A1EDEDF1F39
:102F3000DD1D1CDC14D4D515D71716D6D21213D329
:102F400011D1D010F03031F133F3F23236F6F737D9
:102F5000F53534F43CFCFD3DFF3F3EFEFA3A3BFBC9
:102F600039F9F83828E8E929EB2B2AEAEE2E2FEF79
:102F70002DEDEC2CE42425E527E7E62622E2E323E9
:102F8000E12120E0A06061A163A3A26266A6A76719
:102F9000A56564A46CACAD6DAF6F6EAEAA6A6BAB89
:102FA00069A9A86878B8B979BB7B7ABABE7E7FBFB9
:102FB0007DBDBC7CB47475B577B7B67672B2B373A9
:102FC000B17170B050909151935352929656579759
:102FD000559594549C5C5D9D5F9F9E5E5A9A9B5B49
:102FE00099595898884849894B8B8A4A4E8E8F4FF9
:102FF0008D4D4C8C44848545874746868242438369
:1030000041818040816807E002681168536889182F
:103010005B18C36008320260C2689142F4D04A1C57
:103020008260087870472DE9FF4D00F1080100919A
:1030300000270268520801EBC2010191B846002145
:10304000029103910168490800EBC101406800F05A
:10305000010501F10804400804EBC00631E000A8B6
:10306000FFF7D0FF4FFA80FA0AE0009801680818CD
:103070000099029049680818039000980830009061
:10308000029803998842F0D0401C029010F801BDCC
:1030900047450CD1B44208BF00F01DF8276805B1C0
:1030A0004F44606800EB070808344745F2D007F842
:1030B00001BBBAF1000F0AD51AF1010AE8D1474560
:1030C000CDD1B442CBD1304604B0BDE8F08DBAF1D9
:1030D000010AD5D5F3E7012000F000B880B5C0465D
:1030E000C046024A11001820ABBEFBE726000200D2
:1030F0002DE9F84F04000D005FF0000A288805282C
:103100004FD1607800020600A0780643761CE07874
:103110000002070020790743BFB2002F3ED0BFB2A4
:10312000B7F5FA6F3ADAA14600202880022089F824
:10313000000019F101092888401C288007210F424E
:1031400006D0BFB2082097FBF0F0401C804604E098
:10315000BFB2082097FBF0F0804689F8008019F193
:1031600001092888401C28803A0092B2310089B2B7
:103170004846FFF78AFB83465FFA8BFBBBF1000FE3
:1031800005D05846C0B2FFF7DBFB82460BE028882B
:103190005FFA88F818EB0000288004E003208246DC
:1031A00001E0032082465046C0B2BDE8F28F2DE90F
:1031B000F04704000D005FF000092888052841D180
:1031C000607800020600A0780643761CE0780002D2
:1031D000070020790743BFB2002F30D0BFB27D2F48
:1031E0002DDAA04600202880042088F8000018F17D
:1031F00001082888401C28803800C0B2400088F8A8
:10320000000018F101082888401C28803A0092B27A
:10321000310089B24046FFF7EBFA82465FFA8AFA3C
:10322000BAF1000F05D05046C0B2FFF789FB8146C6
:103230000AE02888BFB210EB4700288004E0032092
:10324000814601E0032081464846C0B2BDE8F087D0
:1032500062B38B0708D0521E11F8013B00F8013B06
:1032600000F024808B07F6D1830740F0208000BF58
:10327000103A07D330B4B1E83810103AA0E838104B
:10328000F9D230BC530724BFB1E80810A0E80810F9
:1032900044BF51F8043B40F8043BD20724BF31F847
:1032A000022B20F8022B44BF0B7803707047083ABA
:1032B00007D3B1E80810083A40F8043B40F804CBC3
:1032C000F7D25307E4E700002DE9F04104000D00B8
:1032D00008480688084F14F10108320039004046BA
:1032E000FFF7B6FF03480088401C28800020BDE897
:1032F000F08100009C0700202407002010B507493A
:1033000079441831064C7C44163404E00A68081DE0
:10331000511888470146A142F8D110BD3000000085
:103320005800000080B501215FF08040FDF7F5FDF9
:1033300001BD7047FEE7FEE7FEE7FEE77047704716
:10334000704770477047704770470000B7F3FFFF42
:1033500004050000B002002000000000CBFCFFFFCD
:1033600002000000020000003C010000BE0100005D
:1033700000000020B002000000F00BF8002801D08F
:10338000FFF7BCFF0020C046C046FFF7F6FB00F089
:1033900002F80120704700F001B8000007463846E7
:1033A000FFF79CFEFBE70000C4F1C4F3C4F5C4F7CB
:1033B000C4F9C4FBC4FDC4FF01488047014800476D
:1033C000AD2C0008C9330008C046C046C046C04600
:1033D000FFF7D2FFFFF7ADBFFFF7ACBFFFF7ABBF03
:1033E000FFF7AABFFFF7A9BFFFF7A8BFFFF7A7BF67
:1033F000FFF7A6BFFFF7FEBFFFF7FEBFFFF7FEBF59
:10340000FFF7FEBFFFF79DBFFFF7FEBFFFF7FEBF51
:10341000FFF7FEBFFFF7FEBFFFF7FEBFFFF7FEBFE0
:10342000FFF7FEBFFFF7FEBFFFF7FEBFFFF7FEBFD0
:10343000FFF7FEBFFFF7FEBFFFF7FEBFFFF7FEBFC0
:10344000FFF7FEBFFFF7FEBFFFF7FEBFFFF7FEBFB0
:10345000FFF7FEBFFFF7FEBFFFF7FEBFFFF7FEBFA0
:10346000FFF7FEBFFFF7FEBFFFF75CBFFFF7FEBF32
:10347000FDF715B9FFF7FEBFFFF765BFFFF7FEBF0A
:10348000FFF7FEBFFFF7FEBFFFF75CBFFDF772B8A7
:10349000FFF7FEBFFFF7FEBFFFF7FEBFFFF754BF0A
:1034A000FFF7FEBF7E028852F48072028040F6FF72
:1034B000721100828AD20703D4002901D0491EF874
:1034C000E77047028852F40072028040F6FF7211E2
:1034D000000288920503D5002901D0491EF8E77043
:1034E0004781B0020000200090C9B2118240F6FF6F
:1034F000700300908A80070BD4002B09D0908A407B
:103500000504D50020908200200300F2E75B1EF046
:10351000E7108B0090002B01D1002000E00120017A
:10352000B07047027E000023C9B2118240F6FF70DE
:103530000300908A40070CD49BB2002B09D0908ADC
:10354000400504D50020908200200300F1E75B1EB7
:10355000EFE79BB2002B01D1002000E00120704773
:1035600010B403001000421EC0B2002818D0087822
:103570001882491C40F6FF700400988A40070BD45B
:10358000002C09D0988A400504D50020988200209C
:103590000400F2E7641EF0E7002CE3D1002000E015
:1035A000012010BC057047182013108100B30000E3
:1035B00011FD0004C932000804FD0004AF31000809
:1035C00003FD00044D25000810FD0004C724000879
:1035D00006FD00047924000817FD0004F125000809
:1035E00001FD00046F29000805FD00042F2A0008D2
:1035F0000FFD0004B12A000802FD0003F1300008AD
:10360000D0003F70B403000024012099811E893549
:103610000015F08206022E07D02600741CB6B2B642
:10362000F57A7FF3DD00263000C0B2012805D11EF7
:10363000893500EE07FDD59E891680C0B270BC703A
:10364000470102FC001B01020304010203040607F8
:10365000080901020304B00300200204060800A2C6
:023660004A041A
:04000005080033C9F3
:00000001FF
