:020000040800F2
:1000000078120020A53E0008C33D0008C53D000849
:10001000C73D0008C93D0008CB3D000800000000B6
:10002000000000000000000000000000CD3D0008BE
:10003000CF3D000800000000D13D0008F93E000857
:10004000FD3E0008013F0008053F0008D33D0008C1
:100050000D3F0008113F0008153F0008193F000838
:100060001D3F0008213F0008253F0008293F0008E8
:100070002D3F0008313F0008353F0008393F000898
:100080003D3F0008413F0008453F0008493F000848
:100090004D3F0008513F0008553F00089F3D0008B4
:1000A0005D3F0008613F0008653F0008693F0008A8
:1000B000B53D0008713F00080F1E0008793F000899
:1000C000D73D0008813F0008853F0008893F0008B0
:1000D000D53D0008E51C0008953F0008993F000841
:1000E0009D3F0008D93D0008A53F0008DFF8D8046F
:1000F00000884DF6AD6188420BD1DFF8CC04408812
:100100004BF6EF61884204D10020DFF8C01408707C
:1001100003E00120DFF8B4140870704710B5DFF871
:10012000AC040078002814D1DFF8A4040088DFF8BC
:10013000A414098888420CD0DFF898040088C0B263
:1001400000F0A7FA0400DFF88C040088DFF88014C0
:10015000088010BD80B5DFF874040078002811D144
:10016000DFF8740400884AF6CD31884202D100F0ED
:10017000C9FA01E000F0BDFADFF85C040088DFF89E
:100180005C14088001BD2DE9F0415FF00008DFF844
:100190003C040078002837D100200500EDB2022D84
:1001A00032DADFF83C04EDB230F81500DFF8341431
:1001B000EDB231F81510884224D0DFF82804EDB2F2
:1001C00030F815008046404606001FFA88F85FEABE
:1001D000182007003100C9B22800C0B200F0ADFC01
:1001E00004003900C9B22800C0B200F0C4FC040009
:1001F000DFF8F003EDB230F81500DFF8E413EDB2EC
:1002000021F815006D1CC9E7BDE8F081F8B5DFF8ED
:10021000BC030078012800F08580DFF8CC0300885B
:10022000DFF8C8130988884207D1DFF8BC0340888B
:10023000DFF8B8134988884227D0DFF8B003008878
:10024000DFF8A4130880DFF8A4034088DFF89813D0
:100250004880DFF89C030068DFF898130860DFF837
:1002600088034088DFF88013098851EA0040DFF8EE
:1002700080130860DFF87C030068DFF874130968F6
:100280004840DFF87013086003E00020DFF86413D3
:10029000086000200400E4B2042C40DADFF85403C4
:1002A0000068FF21E4B2E2009140084235D0062008
:1002B00000F03EFB012000F03EFDDFF83C03E4B21D
:1002C000205C00F035FB052000F035FD0020050026
:1002D000EDB2082D21DAE4B2EDB215EBC400060050
:1002E000C4480068F040C00715D5C1480068F04018
:1002F000C00706D5EDB2280080B200F0C0FD0700AF
:1003000009E0BE48F6B230F81610EDB2280080B20F
:1003100000F0A1FD07006D1CDAE7641CBBE70620B6
:1003200000F006FBF1BDF8B5A8480078012874D0AC
:100330000020B349086000200400E4B2042C26DA4F
:1003400000200500EDB2082D1FDAE4B2EDB215EB86
:10035000C4000600A948F6B230F81600A949F6B262
:1003600031F8161088420ED0A648F6B230F81600C2
:10037000A249F6B221F81600A14800680121B14057
:1003800008439F4908606D1CDCE7641CD5E700202A
:100390000400E4B2042C3DDA99480068FF21E4B27D
:1003A000E2009140084233D0062000F0C1FA01205B
:1003B00000F0C1FC9048E4B2205C00F0B9FA0520DE
:1003C00000F0B9FC00200500EDB2082D20DAE4B2FF
:1003D000EDB215EBC400060089480068F04010F04B
:1003E0000100C0B2002811D081480068F04010F030
:1003F0000100C0B2002809D18048F6B230F81610CA
:10040000EDB2280080B200F026FD07006D1CDBE78E
:10041000641CBEE7062000F08BFAF1BD38B500255C
:100420006A480078002872D100200400E4B20E2C43
:100430000EDA7548E4B230F814007449E4B231F8C9
:100440001410884202D00120050001E0641CEDE791
:10045000EDB2012D5BD16C4840886B49098851EAA7
:1004600000406B4908606848C0886749898851EA3C
:10047000004068490860644840896349098951EA35
:1004800000406549086063480068112802D31020C5
:100490006049086060480068604988420AD1604B42
:1004A0005C48026892B25A48016889B2002000F0A4
:1004B00037FE1BE0584800685A4988420AD15A4B17
:1004C0005448026892B25248016889B2002000F094
:1004D0003BFE0BE000200400E4B2082C06DA00200A
:1004E0005149E4B221F81400641CF5E7002004002F
:1004F000E4B20E2C09DA4448E4B230F8140043495F
:10050000E4B221F81400641CF2E70020050031BDBC
:1005100038B52E480078002810D100200400E4B23D
:10052000022C0BDA4148E4B210EB4401E4B22000A3
:1005300080B200F00FFF0500641CF0E731BD38B554
:1005400022480078002810D100200400E4B2202CBA
:100550000BDA3748E4B210EB4401E4B2200080B279
:1005600000F0B5FE0500641CF0E731BD38B5174852
:100570000078002810D100200400E4B2202C0BDA0F
:100580002C48E4B210EB4401E4B2200080B200F049
:10059000B3FE0500641CF0E731BD38B50B480078A8
:1005A000002810D100200400E4B2202C0BDA2248ED
:1005B000E4B210EB4401E4B2200080B200F0B3FEDC
:1005C0000500641CF0E731BDF0090020C6040020DE
:1005D000500A0020520A0020560A0020540A002027
:1005E000F4090020F8090020FC090020000A00207E
:1005F000040A0020080A0020D8040020180800205F
:100600000C0A002058080020B40900209809002096
:10061000100A0020140A0020180A002098CC98CC58
:10062000C009002055AA55AAD00900201C0A0020A4
:1006300098080020D80800201809002080B5FFF78E
:1006400055FDFFF76BFDFFF785FDFFF79CFDFFF7FD
:10065000E5FEFFF7DBFDFFF766FE01BD80B500F0AC
:100660008BFDFFF755FFFFF76AFFFFF77FFFFFF7EF
:1006700094FF01BD1CB50024FF208DF8040001A8E3
:1006800000905023012211210B4800F029FF0400A3
:1006900013BD30B583B0040000258DF8044001A8D7
:1006A0000090502301221121034800F019FF05009A
:1006B0002800C0B23EBD000000540040DFF87C03BB
:1006C000006850F00100DFF8741308607047DFF82D
:1006D0007003006850F00100DFF864130860704791
:1006E000DFF85C03006850F00200DFF85413086084
:1006F0007047DFF84C03006850F00400DFF8401347
:1007000008607047DFF83403006850F00400DFF839
:100710002C1308607047DFF82403006850F00800CD
:10072000DFF8181308607047DFF81403006850F012
:100730000800DFF80C1308607047DFF8000300685A
:1007400050F01000DFF8F41208607047DFF8F00294
:10075000006850F01000DFF8E812086070470020D1
:10076000DFF8E0120968890602D50121080001E0DE
:1007700000210800C0B27047DFF8C402006850F0E2
:100780004000DFF8BC1208607047AC48006850F0C9
:100790004000AA4908607047A948006850F480707A
:1007A000A74908607047A548006850F48070A349C5
:1007B00008607047A148006850F400609F490860D5
:1007C00070479F48006850F400609D49086070477A
:1007D0009B48006850F480509949086070479748DA
:1007E000006850F48050954908607047964B1B682C
:1007F000180019001A0010F0030089B2C90811F09E
:10080000040112F4E06292B2520952EA0103184361
:1008100010F03F00C0B270478C48006850F4805020
:100820008A49086070478A48006850F480508849B7
:10083000086070478748006850F0010085490860EB
:1008400070478548006850F0010083490860704790
:100850008048006850F002007E49086070477E487A
:10086000006850F002007C490860704779480068D1
:1008700050F004007749086070477748006850F0EE
:1008800004007549086070477248006850F008001D
:100890007049086070477048006850F008006E4961
:1008A000086070476C48006850F040006A49086072
:1008B00070476848006850F040006649086070471B
:1008C0006548006850F080006349086070476148DF
:1008D000006850F080005F49086070475E4800681B
:1008E00050F480705C49086070475A48006850F4C2
:1008F00080705849086070475748006850F400708D
:100900005549086070475348006850F400705149D9
:10091000086070475048006850F480604E49086095
:1009200070474C48006850F480604A49086070473E
:1009300010B50400E4B2002C0CD1FFF7C8FEFFF79D
:10094000B1FFFFF7BDFFFFF7C9FFFFF7D5FFFFF7C7
:10095000E1FF5EE0E4B2012C0CD1FFF7AFFEFFF740
:10096000A8FFFFF7ADFFFFF7B9FFFFF7C5FFFFF7E0
:10097000D1FF4EE0E4B2022C0CD1FFF79FFEFFF74F
:1009800091FFFFF7A4FFFFF7A9FFFFF7B5FFFFF700
:10099000C1FF3EE0E4B2032C0CD1FFF78FFEFFF75E
:1009A00081FFFFF78DFFFFF7A0FFFFF7A5FFFFF720
:1009B000B1FF2EE0E4B2042C0CD1FFF77FFEFFF76D
:1009C00071FFFFF77DFFFFF789FFFFF79CFFFFF740
:1009D000A1FF1EE0E4B2052C0CD1FFF76FFEFFF77C
:1009E00061FFFFF76DFFFFF779FFFFF785FFFFF767
:1009F00098FF0EE0E4B2062C0BD1FFF75FFEFFF785
:100A000051FFFFF75DFFFFF769FFFFF775FFFFF786
:100A100081FF10BDC0021049096880B210F4F04295
:100A200011430D4A11600B49096880B2C24312F4A8
:100A3000F0421143074A116070470000100801405E
:100A40001408014008080140080C0140100C014046
:100A5000140C0140101001401410014080B500201A
:100A600000F00AF8002000F019F8012000F004F866
:100A7000012000F013F801BD70B504000021200032
:100A8000C0B200F01DF8050000212000C0B200F047
:100A900035F8060016EA0500C0B270BD70B5040056
:100AA00000212000C0B200F048F80500002120001D
:100AB000C0B200F060F8060016EA0500C0B270BDD2
:100AC0002DE9F04182B004000D0000267E48E4B21A
:100AD00010EBC40010F106088DF800507B488079B7
:100AE0000700434600AA3900C9B22000C0B200F096
:100AF00061F806003000C0B2BDE8F6812DE9F04192
:100B000082B004000D0000266F48E4B210EBC40070
:100B100010F106088DF800506C48C079070018F1F4
:100B2000010300AA3900C9B22000C0B200F042F8A7
:100B300006003000C0B2BDE8F6812DE9F04182B078
:100B400004000D0000266048E4B210EBC40010F170
:100B500002088DF800505D4880780700434600AADF
:100B60003900C9B22000C0B200F024F806003000FD
:100B7000C0B2BDE8F6812DE9F04182B004000D005D
:100B800000265148E4B210EBC40010F102088DF8C1
:100B900000504E48C078070018F1010300AA390040
:100BA000C9B22000C0B200F005F806003000C0B2A3
:100BB000BDE8F6812DE9F04704000D0016001F0086
:100BC000B146BA4632002900C9B22000C0B200F0D6
:100BD00028F880465FFA88F8B8F1010F1BD13A0077
:100BE0002900C9B22000C0B200F044F880465FFA84
:100BF00088F8B8F1010F0BD199F800009AF80010AD
:100C0000884202D10120804607E00020804604E0AF
:100C10000020804601E0002080464046C0B2BDE88A
:100C2000F0872DE9F04182B004000D001600E4B217
:100C3000032C01D300201BE0002E01D1002017E07F
:100C40002348E4B2205C804600964346DBB2012292
:100C50002900C9B21F4800F043FC0700FFB2012F72
:100C600002D10120070001E0002007003800C0B2D7
:100C7000BDE8F6812DE9F04182B004000D001600B8
:100C8000E4B2032C01D300201BE0002E01D1002090
:100C900017E00F48E4B2205C804600964346DBB282
:100CA00001222900C9B20B4800F05CFC0700FFB22A
:100CB000012F02D10120070001E0002007003800C9
:100CC000C0B2BDE8F6810000E0090020C03E000887
:100CD000B23000080054004010B504007FF004005A
:100CE00000F0CDFCE4B2082094FBF0F01F4908703E
:100CF0001E4800784FF47A7148431D49088010BDA2
:100D000080B21B4A128802FB00F21A4B1A600022C2
:100D1000194B1A600122194B1A60184A1268110007
:100D200011F00112012AF8D00022144B1A6000229F
:100D3000114B1A6070470D4A127802FB00F20D4BFE
:100D40001A6000220C4B1A6001220C4B1A600B4AED
:100D50001268110011F00112012AF8D00022074B8D
:100D60001A600022044B1A6070470000660A0020D7
:100D7000580A002014E000E018E000E010E000E075
:100D8000DFF800F08904002080B50620FFF7D0FDD1
:100D90000120FFF7CDFD00F085F80220FFF7C8FD28
:100DA00000F080F80320FFF7C3FD00F07BF804207B
:100DB000FFF7BEFD00F076F80620FFF7B9FD01BD94
:100DC000F8B504000D0016000027002D01D0002EFC
:100DD00001D1002012E032002988DFF8EC00FFF793
:100DE000CFFF0700FFB2012F06D1B21C6988DFF8E0
:100DF000D800FFF7C5FF07003800C0B2F2BD2DE9EB
:100E0000F04182B004000D001600EDB2082D01DBA8
:100E100000201EE0DFF8B400EDB210EB8500804644
:100E2000E4B214F0F000EDB215F00F010843ADF894
:100E30000000ADF80260B8F1000F01D1002008E019
:100E4000424600A9DFF88000FFF7BAFF070038002C
:100E5000C0B2BDE8F68170B504000D000026A4B252
:100E6000082C01DB002009E02A0092B22100C9B25F
:100E70003020FFF7C4FF06003000C0B270BD38B5A7
:100E800004000025A4B2082C01DB002009E04FF685
:100E9000FF722100C9B24020FFF7B1FF0500280012
:100EA000C0B232BD38B5002400200500ADB2082D17
:100EB00006DA280080B2FFF7E2FF04006D1CF5E7B8
:100EC0002000C0B232BD00000038004058090020A8
:100ED0002DE9F04F85B00400894693461D00012797
:100EE0005FF0000A8D48E4B20C2101FB0400408849
:100EF000ADF80C00E4B2002C11D1BDF80C001FFAC3
:100F000089F948450BD3BDF80C001FFA89F91FFA7F
:100F10008BFB1BEB0901884201DB002D02D1002075
:100F20000700A9E07D48E4B20C2101FB04008088A1
:100F3000ADF808007948E4B20C2101FB0400C08838
:100F4000ADF806007548E4B20C2101FB04000078FE
:100F50008DF804007148E4B20C2101FB04008068A4
:100F60000490BDF8060010EA090080461FFA88F8D0
:100F7000B8F1000F19D0BDF80800B0EB08081FFA4F
:100F80008AFA1AEB050000909DF80430424692B2AE
:100F90004946C9B2049800F0A3FA07000420FFF7FD
:100FA000AFFE18EB090918EB0A0ABBEB080B1FFA96
:100FB0008BFBBDF808009BFBF0F0ADF80E001FFAAC
:100FC0008BFBBDF808009BFBF0F100FB11B0ADF806
:100FD0000A00002006003000C0B2BDF80E1080B23A
:100FE000884232D21FFA8AFA1AEB050000909DF867
:100FF0000430BDF806204946C9B2049800F070FAE2
:10100000384007000420FFF77BFEBDF8060010EB18
:101010000909BDF8060010EB0A0A1FFA8AFA1AEB52
:10102000050000909DF8043001224946C9B2049899
:1010300000F056FA384007000420FFF761FE1AF16D
:10104000010A19F10109761CC5E7BDF80A0000285C
:1010500012D01FFA8AFA1AEB050000909DF80430AE
:10106000BDF80A204946C9B2049800F039FA384060
:1010700007000420FFF744FE3800C0B205B0BDE809
:10108000F08F2DE9F84F04000D0016001F005FF0EF
:1010900001082248E4B20C2101FB04004088834689
:1010A000E4B2002C0DD11FFA8BFBADB2AB4508D3D7
:1010B0001FFA8BFBADB2B6B27019834501DB002F6E
:1010C00001D1002080465FFA88F8B8F1000F20D0E7
:1010D0001248E4B20C2101FB0400007881460F485D
:1010E000E4B20C2101FB0400408883460B48E4B2C3
:1010F0000C2101FB04008068824600974B46DBB25E
:10110000320092B22900C9B2504600F02BFA0120F9
:1011100080464046C0B2BDE8F28F0000B43E0008F1
:101120002DE9F04104000D0016001F003B003200C5
:1011300092B2290089B22000C0B2FFF7C9FE8046F2
:101140004046C0B2BDE8F0812DE9F04104000D0039
:1011500016001F003B00320092B2290089B2200025
:10116000C0B2FFF78EFF80464046C0B2BDE8F081B6
:1011700080B5FFF7CFFB01BD70B582B04FF4804062
:10118000ADF8000003208DF8020004208DF8030064
:1011900000A9C14800F090FA4FF42040ADF80000DB
:1011A00003208DF8020010208DF8030000A9BA4832
:1011B00000F082FA00200400A4B2102C78DA20009B
:1011C00080B2FFF727FC00200500ADB2082D1FDA22
:1011D000B248ADB230F8150000F0F3F8AF48ADB248
:1011E00030F8150000F0EDF8AC48ADB230F815005D
:1011F00000F0E7F80120FFF79EFDA948A4B210EB2C
:101200000416ADB200F011F926F815006D1CDCE7EC
:10121000A348A4B22101085AA249A4B221F814009B
:101220009F48A4B210EB041040889E49A4B211EB71
:10123000440108849A48A4B210EB041080889949AC
:10124000A4B211EB4401A1F840009548A4B210EB00
:101250000410C0889349A4B211EB4401A1F86000C6
:101260008F48A4B210EB041000898E49A4B211EB90
:101270004401A1F880008A48A4B210EB0410408910
:101280008849A4B211EB4401A1F8A0008448A4B29B
:1012900010EB041080898349A1F8C0008048A4B2F3
:1012A00010EB0410C0897F49A1F8C200641C83E7D9
:1012B0004FF46040ADF8000003208DF802001820C4
:1012C0008DF8030000A9744800F0F6F973BD020020
:1012D0000023002901D100200DE092B2202A01DB79
:1012E000002008E06F4892B230F812000880012018
:1012F00003001800C0B2704702000023002901D18A
:1013000000200FE092B2202A01DB00200AE06548AD
:1013100092B210EB4200B0F84000088001200300B8
:101320001800C0B2704702000023002901D100203C
:101330000FE092B2202A01DB00200AE0594892B265
:1013400010EB4200B0F88000088001200300180074
:10135000C0B2704702000020002901D1C0B213E0E2
:1013600092B2002A06D14F4BB3F8C0300B80012354
:10137000180008E092B2012A05D14A4BB3F8C230F6
:101380000B8001231800C0B270474748006850F432
:1013900000404549086070474448006850F40040E8
:1013A0004249086070474048006850F400503E4988
:1013B000086070473D48006850F400503B490860A1
:1013C000704770B50400002500262500FFF7A2FA3B
:1013D000FFF7F0FF0120FFF7AEFCFFF7A2FA0120B4
:1013E000FFF7A9FC00200600B6B20E2E14DAFFF7B4
:1013F000E1FFADB2280402D5FFF7C7FF01E0FFF718
:10140000CBFF0120FFF797FCFFF7CDFF0120FFF78F
:1014100092FC6D00761CE7E70120FFF78CFCFFF7DC
:1014200079FA0120FFF787FC70BD38B5002400254C
:10143000FFF7ABFFFFF76EFAFFF7BCFF0120FFF7E6
:101440007AFCFFF76EFA0120FFF775FC002005001B
:101450000E2D15D264000120FFF76DFCFFF7A3FFEE
:101460000120FFF768FC4FF480410B4800F0BFF902
:10147000002801D054F00104FFF79CFF6D1CE7E742
:101480000120FFF758FCFFF745FA0120FFF753FC56
:10149000200080B232BD0000000C0140943E0008E4
:1014A000E8040020E8060020100C0140140C014064
:1014B000DFF800F001000020DFF800F03D00002020
:1014C000DFF800F07F000020DFF800F0BB00002014
:1014D000DFF800F01F000020DFF800F0010100201D
:1014E0002DE9F04383B004000D0016001F00DDF865
:1014F0002880002001900020ADF800002000FFF7B8
:10150000D7FF17F0FE073900C9B22000FFF7D4FF5C
:1015100081465FFA89F9B9F1010F1CD12900C9B2DE
:101520002000FFF7CDFF81465FFA89F9B9F1010F7D
:101530000DD1B6B2002E11D0320092B24146200039
:10154000FFF7C2FF81462000FFF7C2FF06E0200040
:10155000FFF7BEFF02E02000FFF7BAFF4846C0B227
:10156000BDE8FE832DE9F04383B004000D001600B2
:101570001F00DDF82880002001900020ADF8000059
:101580005FF000092000FFF793FF17F0FE07390016
:10159000C9B22000FFF790FF81465FFA89F9B9F1DF
:1015A000010F1BD12900C9B22000FFF789FF814636
:1015B0005FFA89F9B9F1010F0CD12000FFF778FF2C
:1015C00033009BB242463900C9B22000FFF784FFC6
:1015D000814606E02000FFF77BFF02E02000FFF7D6
:1015E00077FF4846C0B2BDE8FE8350F8041B61B1E6
:1015F00050F8042BD30744BFA9F101039A18002324
:1016000042F8043B091FFAD1EFE770472449014330
:10161000244A1160704770B4002300210F22C4785F
:10162000002C20D01F4C246814F4E064D4F5E0644E
:10163000240A2300D3F104042100DA4044788C40CA
:1016400023008478144023431B01174C05782B5545
:101650000124057815F01F05AC40144D067876116D
:1016600045F8264009E00124057815F01F05AC4037
:101670000F4D0678761145F8264070BC7047042857
:1016800006D10C49096851F004010A4A116005E0CD
:101690000849096831F00401064A116070470000EA
:1016A0000000FA050CED00E000E400E000E100E0DD
:1016B00080E100E010E000E0F0B500270022002308
:1016C00000240025002691F803C01CF00F0C67468B
:1016D00091F803C05FEACC6C03D591F802C05CEAD4
:1016E000070791F800C05FEA0C6C3AD0D0F800C050
:1016F00065465FF0000C6346082B31D25FF0010CA9
:101700001CFA03FC6446B1F800C014EA0C0C6246F3
:10171000A24223D15FEA830C64465FF00F0C1CFAEF
:1017200004FC6646B54317FA04FC5CEA050591F82B
:1017300003C0BCF1280F06D15FF0010C1CFA03FCBA
:10174000C0F814C00AE091F803C0BCF1480F05D1FD
:101750005FF0010C1CFA03FCC0F810C05B1CCBE767
:101760000560B1F800C0BCF1FF0F3FDDD0F804C048
:1017700065465FF0000C6346082B36D25FF0010C23
:1017800013F1080E1CFA0EFC6446B1F800C014EA0E
:101790000C0C6246A24226D15FEA830C64465FF0DD
:1017A0000F0C1CFA04FC6646B54317FA04FC5CEA0D
:1017B000050591F803C0BCF1280F07D15FF0010CBB
:1017C00013F1080E1CFA0EFCC0F814C091F803C007
:1017D000BCF1480F07D15FF0010C13F1080E1CFAA1
:1017E0000EFCC0F810C05B1CC6E74560F0BD0200EF
:1017F0000020936889B20B4202D00123180001E057
:1018000000231800C0B2704730B400220F2311F03B
:101810000304E4B2A400A3401A000F4BC9B28C1019
:1018200053F8243093430C4CC9B28D1044F8253042
:10183000094BC9B28C1053F82430C0B211F0030424
:10184000E4B2A40010FA04F42343034CC9B28D108F
:1018500044F8253030BC7047080001402DE9F041C4
:1018600004000D0016001F005FF0000872B60A2089
:10187000DFF83C1308703B00DBB207223100280080
:10188000C0B200F0DFF9012802D00320804607E053
:1018900044F6206000F04AFA012801D00320804677
:1018A00062B64046C0B2BDE8F08180B572B6002194
:1018B000012000F0CCF90020BE49087062B600207B
:1018C00000F0BFFA01BD80B572B60021002000F023
:1018D000BEF900F083FA62B601BDF8B504000D0050
:1018E0001600002772B6B4480088032814DBB248FB
:1018F0000188B248006800F096F900280CD1AF4882
:10190000006800782070AC480088801E3080AB48AA
:101910000068401C286001E00520070062B638001E
:10192000C0B2F2BD2DE9F04104000D001600002701
:1019300072B6A0480078002826D1681EA049086029
:101940000120A04908809E48006804709D480088D6
:1019500030189C4908809B4801889948006800F02D
:1019600062F9804697480088411C964A1180934945
:10197000096880B200F801800120934908700121B4
:10198000002000F064F901E00520070062B638008D
:10199000C0B2BDE8F08138B5002400A800F090F98D
:1019A0008449097800296FD0022949D07BD200F000
:1019B00002FA9DF800003A2806D1002083490870F9
:1019C00000207D4908803AE09DF800000D2803D1F1
:1019D00002207849087032E09DF8000000F0F8F825
:1019E00005007A480078002802D0012814D026E0AB
:1019F00071480088FF2809DC2801704909686E4A8F
:101A00001288505401207149087018E0002069497B
:101A1000087000F0E3F912E0674800886749096838
:101A200080B2415C2943654A126880B281546248A1
:101A30000088401C6049088000206449087032E03A
:101A40009DF800005A490978884209D100F0C6F98A
:101A5000002058490870012000F0F3F9040012E05A
:101A60009DF800003A280BD100205849087000204A
:101A70005149088001204F49087000F09CF902E0AC
:101A800000204C4908700EE09DF800003A280AD169
:101A900000F091F900204849088000204B49087067
:101AA0000120444908702000C0B232BD38B500247E
:101AB00045480078002866D0022811D003D30428B6
:101AC00052D049D363E03A2005002800C0B200F0AC
:101AD000EDF802203C49087000203C49087056E0AF
:101AE00038480088002830D038480078002802D0D4
:101AF000012810D02FE0324800680078C0B20009F9
:101B000000F07DF805002800C0B200F0CFF80120F9
:101B10002E4908701FE02A480068007810F00F0076
:101B200000F06DF805002800C0B200F0BFF82448AE
:101B30000068401C224908600020244908702148A0
:101B40000088401E1F49088005E00D2000F0AEF817
:101B500003201D4908701AE01548007800F0A6F827
:101B600004201949087012E000201749087003206A
:101B700000F067F904000021012000F068F800205F
:101B80001149087003E00021012000F060F82000F6
:101B9000C0B232BD80B507480078401E012803D886
:101BA000002004490870FFE700F018F9002002BD8A
:101BB000710A00206F0A00205C0A0020DC0400206B
:101BC000480A00205E0A00206E0A0020700A0020E9
:101BD0000100C9B2302906DBC9B23A2903DAB1F1F2
:101BE0003000C0B20AE0C9B2412906DBC9B24729B8
:101BF00003DAB1F13700C0B200E0FF207047010006
:101C0000C9B20A2903DA11F13000C0B20AE0C9B240
:101C10000A2906DBC9B2102903DA11F13700C0B274
:101C200000E030207047020000200B00591E9BB2DC
:101C3000002B03D013781818521CF6E7C0B24042AC
:101C4000C0B2704710B40400012010BC704738B512
:101C500004000D00E4B2002C08D0FEF7B2FD012212
:101C600040F225512E4800F089F907E0FEF7A2FD69
:101C7000002240F225512A4800F080F9EDB2002DF3
:101C800008D0FEF7ACFD012240F22771244800F095
:101C900075F90AE00520FFF733F8FEF799FD0022F9
:101CA00040F227711E4800F069F931BD10B50400FB
:101CB000E4B2210089B21A4800F08BF9012010BD6E
:101CC00010B50400164800F088F92070012010BDFE
:101CD00080B514480068804701BD80B5124800688F
:101CE000804701BD80B540F225510D4800F079F9DB
:101CF000012806D1FFF7F1FF40F22551084800F016
:101D0000A7F940F22771064800F06BF9012806D1C7
:101D1000FFF7DEFF40F22771014800F099F901BD9D
:101D2000003801403C0A0020380A002030B585B058
:101D3000040000250121042000F019FA3B48006846
:101D400044F62061B0FBF1F0401E0500ADF80840FC
:101D5000ADF804500020ADF80A000020ADF80600F0
:101D600001A9334800F020FA0121314800F07FFA40
:101D70004FF4C060FFF74AFC1E208DF800000020E1
:101D80008DF8010003208DF8020001208DF803007A
:101D900000A8FFF740FC0121254800F095FA002239
:101DA0000121234800F058FA0021214800F046FAAA
:101DB000012005B030BD80B501211D4800F084FA36
:101DC000012201211A4800F047FA0021184800F0CA
:101DD0005CFA0121164800F031FA01BD80B50121FD
:101DE000134800F071FA00220121114800F034FA82
:101DF00000210F4800F049FA00210D4800F01EFABA
:101E000001BD704780B50B480068804701BD80B5B3
:101E10000121074800F03FFA002805D001210448BD
:101E200000F052FAFFF7EEFF01BD0000E4040020CD
:101E300000080040400A002000200E4908700120E0
:101E40007047010001200B4A10700B4801700120FF
:101E5000704701000020074A1278002A07D0064A7E
:101E600012780A700022034B1A7001221000C0B2CF
:101E700070470000750A0020740A00202DE9F04721
:101E800086B004000D00002600275FF000085FF018
:101E900000095FF0000AA8890028A246208A0600EF
:101EA0004CF6FF700640E88806432682A0890600AB
:101EB0004EF6F3100640A88829890843698908432B
:101EC0000643A681A08A06004FF6FF400640A88977
:101ED0000643A68200A800F0CDF82048824502D132
:101EE0000398070001E002980700A089000408D5C4
:101EF000192000FB07F029684900B0FBF1F080468B
:101F000007E0192000FB07F029688900B0FBF1F019
:101F100080466420B8FBF0F000010600300964211F
:101F200001FB10808146A089000409D55FEAC90041
:101F300032306421B0FBF1F010F00700064308E0F6
:101F40005FEA091032306421B0FBF1F010F00F00AD
:101F50000643268106B0BDE8F08700000038014046
:101F6000C9B2012904D1828952F40052828104E06D
:101F700082894DF6FF731A4082817047F0B40023C6
:101F800000240025002689B240F66A17B9420600EF
:101F90000F00FFB27F09FFB23B0089B211F01F07AB
:101FA0003C000127A7403D00012B01D10C3604E085
:101FB000022B01D1103600E01436D2B2002A03D031
:101FC00037682F43376002E03768AF433760F0BCB3
:101FD0007047CA05D20D828070478088C005C00D49
:101FE000704770B40200002300250024002089B24D
:101FF00040F66A16B1420E00F6B27609F6B2340027
:1020000089B211F01F063500012616FA05F5012CDC
:1020100002D19689354006E0022C02D1168A35405D
:1020200001E0968A354089B20E0AB6B23300012625
:1020300016FA03F316883340002D04D0002B02D08B
:102040000126300001E000263000C0B270BC7047AD
:1020500010B40022002389B240F66A14A14289B26A
:102060000C0A22000124944023009BB2DC4304802C
:1020700010BC704730B40021002200230024434DDF
:102080002D6815F00C0529000D00002D04D0042D3D
:1020900005D0082D06D026E03D4D056025E03C4DDD
:1020A000056022E0394D2D6815F470152A00374D72
:1020B0002D6815F480352B00920C921C002B04D156
:1020C000344D05FB02F505600CE0304D2D68AD0385
:1020D00004D5304D05FB02F5056003E02C4D05FBF2
:1020E00002F5056001E02A4D0560284D2D6815F0C8
:1020F000F00529000909284D4D5D2C000568E540D3
:102100004560224D2D6815F4E0652900090A224D2D
:102110004D5D2C004568E54085601C4D2D6815F42B
:1021200060552900C90A1C4D4D5D2C004568E540ED
:10213000C560164D2D6815F440452900890B174DD3
:102140004D5D2C00C568B5FBF4F5056130BC7047EA
:10215000C9B2002905D0124A12680243104B1A6016
:1021600004E00F4A126882430D4B1A607047C9B2EF
:10217000002905D00B4A126802430A4B1A6004E09A
:10218000084A12688243074B1A60704704100240E5
:1021900000127A0000093D00C8040020E00400207D
:1021A000181002401C100240002203881A00DFF8B9
:1021B0002031984212D0DFF8303198420ED0B0F181
:1021C000804F0BD0DFF80C31984207D0DFF8083190
:1021D000984203D0DFF80431984204D14FF68F7350
:1021E0001A404B881A43DFF8F830984208D0DFF8DD
:1021F000F430984204D04FF6FF431A40CB881A437C
:1022000002808B8883850B880385DFF8C430984271
:102210000FD0DFF8D43098420BD0DFF8D03098429E
:1022200007D0DFF8CC30984203D0DFF8C8309842AE
:1022300001D10B7A0386012383827047C9B200293A
:1022400004D0028852F00102028004E002884FF6B6
:10225000FE731A4002807047D2B2002A03D08389ED
:102260000B43838102E083898B4383817047C9B22A
:10227000002904D0028852F08002028004E0028823
:102280004FF67F731A40028070478184704789B28D
:10229000CA430282704730B40200002000230024A9
:1022A000158A0D402B0095890D402C009BB2002B08
:1022B00005D0A4B2002C02D00125280001E00025A1
:1022C0002800C0B230BC704789B2CA43028270474E
:1022D000002C01400004004000080040000C0040B9
:1022E0000010004000140040003401400040014054
:1022F000004401400048014080B500F04DF800F076
:102300005EF800F084F800F081F900F0FEF800F0CB
:1023100022F900F047F9FEF7ECF9FEF73DFAFEF777
:102320002BFAFEF7CBF9FEF7DBF9FEF743FAFEF7DF
:102330004FFAFEF771FAFEF77DFAFEF789FAFEF71B
:1023400095FAFEF7A1FAFEF7E6F9FEF7F6F9FEF7C1
:102350002AFAFEF71AFAFEF766FAFEF772FAFEF7A5
:102360007EFAFEF78AFAFEF796FAFEF7DDF9FEF737
:10237000EDF90620FEF7DCFA0020FEF74BFBFEF736
:1023800079F9FEF76BFBFEF7FFFCFEF7F1FEFEF7B7
:1023900018FAFEF71DFA01BD80B501213C20FFF7B8
:1023A000D7FE01219248FFF7E2FE012144F201002D
:1023B000FFF7CEFE01210120FFF7CAFE01BD80B567
:1023C0004FF4C060FFF722F925208DF800000020AF
:1023D0008DF8010000208DF8020001208DF8030027
:1023E00000A8FFF718F94FF4A060FFF70FF91720C6
:1023F0008DF8000002208DF8010002208DF8020007
:1024000001208DF8030000A8FFF705F901BD80B594
:1024100041F65F10ADF8000003208DF80200102097
:102420008DF8030000A97348FFF746F92020ADF8A6
:10243000000003208DF8020004208DF8030000A99D
:102440006C48FFF739F94FF48060ADF800000320C5
:102450008DF8020004208DF8030000A96548FFF7FD
:102460002BF94FF40070ADF8000003208DF8020046
:1024700018208DF8030000A95E48FFF71DF940F20F
:102480002370ADF8000003208DF8020004208DF8C1
:10249000030000A95848FFF70FF9C020ADF800006D
:1024A00003208DF802001C208DF8030000A952487B
:1024B000FFF702F94FF46040ADF8000003208DF8FB
:1024C000020018208DF8030000A94B48FFF7F4F82C
:1024D0004FF4C050ADF8000003208DF8020010202A
:1024E0008DF8030000A94448FFF7E6F84FF6FF70A7
:1024F000ADF8000003208DF8020010208DF80300D5
:1025000000A93E48FFF7D8F801BD00B585B04FF4EB
:10251000964000904FF48050ADF804000020ADF8D4
:1025200006004FF48060ADF808000020ADF80C0004
:102530000C20ADF80A0000A93148FFF79FFC0122EA
:1025400040F225512E48FFF719FD01212C48FFF7D5
:1025500007FD05B000BD00B585B00020ADF8000056
:102560004FF48270ADF802004FF40060ADF8040043
:102570000020ADF806000020ADF808004FF4007010
:10258000ADF80A000020ADF80C000020ADF80E00F8
:1025900000A91C4800F052F801211A4800F06EF81A
:1025A00005B000BD00B585B00020ADF804004BF6C5
:1025B000FF70ADF806003020ADF808004FF48060E1
:1025C000ADF80A004FF48040ADF80C0042F21070F4
:1025D000009000A90C4800F05FF800210A4800F0C4
:1025E000E9F80121084800F0D7F805B000BD000067
:1025F0000140200000080140000C01400010014093
:1026000000380140003800400054004000B583B05D
:10261000202000F021F905210020FFF7F5F8202007
:10262000009000208DF8040008208DF8050001209E
:102630008DF8060000A800F0CBF807BD10B400220A
:1026400003881A0012F441520B884C8823438C886B
:102650002343CC8823430C8923434C8923438C890F
:102660002343CC8923431A430280838B4FF2FF74A8
:10267000234083830B8A038210BC7047C9B20029B0
:1026800004D0028852F04002028004E002884FF633
:10269000BF731A40028070472DE9F04385B00400F3
:1026A0000D005FF0000900260427DFF8E080A08815
:1026B00081464FF6C07010EA090900A8FFF7DAFC5E
:1026C000029880463248B8FBF0F0060056EA090945
:1026D000A4F8049020884FF6FE7108402080002066
:1026E000814628682B4988420ED228684000B8FBF2
:1026F000F0F00700BFB2042F01DA0420070057EA08
:102700000909701C208426E0E8884BF6FF71884296
:1027100006D1286803214843B8FBF0F0070007E022
:10272000286819214843B8FBF0F0070057F48047A8
:10273000380501D157F0010757F4004050EA090964
:10274000B6B24FF4967000FB06F04FF47A7190FB2E
:10275000F1F0401C2084A4F81C90208850F0010067
:102760002080208881464FF6F53010EA0909A888B4
:102770006989084350EA0909A4F80090A8892989C1
:102780000843208105B0BDE8F083000000127A0004
:1027900040420F00A1860100C9B2002904D002887E
:1027A00052F00102028004E002884FF6FE731A40E4
:1027B00002807047C9B2002904D0028852F020027A
:1027C000028004E002884FF6DF731A4002807047EF
:1027D0000021234A11008279002A36D0204A12684B
:1027E00003689A431E4B1A601E4A126803689A4394
:1027F0001C4B1A60027951180A6803681A430A6070
:10280000194A126803689A43174B1A60174A1268EC
:1028100003689A43154B1A604279102A0CD1124A68
:10282000126803681A43104B1A60104A1268036852
:102830001A430E4B1A600EE0094A110042795118F2
:102840000A6803681A430A6005E0027951180A68A9
:1028500003689A430A6070470549086070470000A2
:102860000004014004040140080401400C0401403C
:10287000140401402DE9F84305000E0017009846A6
:10288000089C5FF00009F6B2002E05D0F6B2002ECB
:1028900002D0F6B2F82E02DB0220814670E0DFF8AB
:1028A0002C020670EDB2002D02D0012D32D054E082
:1028B000DFF81C02DFF81C120860DFF81C02DFF8EA
:1028C0001C120860DFF81802DFF818120860DFF841
:1028D0001802DFF8181208600020DFF814120860F0
:1028E000DFF81002DFF810120860DFF81002DFF8DE
:1028F00010120860DFF80C02DFF80C1208602300E9
:10290000DBB242463900C9B27048007800F01CF9C9
:10291000814624E07D486F4908607D486F49086022
:102920007C48704908607C48704908600020704904
:1029300008607A48704908607948714908607948A8
:10294000714908602300DBB242463900C9B25F48D2
:102950000078FEF783FF814601E0022081465FFA9E
:1029600089F9B9F1000F0BD1FFF766FA002802D1FF
:102970000320814604E06C48057001206B49087013
:102980004846C0B2BDE8F28310B50024674800781D
:10299000012806D14F48006880470020634908702D
:1029A00001E0062004002000C0B210BD38B50025AB
:1029B0005E480078002801D0062085E000A8FFF7D7
:1029C00048FA012840F07F809DF80000002805D0DB
:1029D00002281CD003D3032875D074E073E0554A55
:1029E00055495648414B1B6898470500EDB2002DEC
:1029F0000CD15248007835490978884203D04F48B5
:102A00000078002802D10220FFF71BFA5BE04A4859
:102A1000006800784A49087001204A49087000207F
:102A20000400102C18DA424810F83400002813D0A3
:102A30003F4810F834004249097888420AD13D499C
:102A40003D4800683A4A12EBC402526890473D493B
:102A5000087001E0641CE4E738480078002831D0B1
:102A60003848007800281CD00020324908803448BB
:102A7000007850F08000304909682E4A128850547E
:102A80002C480088401C2B4908802E4800782A4991
:102A90000968284A1288505426480088401C254955
:102AA000088021480078012802D10A20FFF7A9F9FF
:102AB000204802882048016804480078094B1B68B8
:102AC00098470500FFE7002032BD0000690A00209A
:102AD000A52B0008280A0020BF2B00082C0A002084
:102AE000212C0008240A0020D32B0008300A0020E3
:102AF000340A0020A92C0008380A0020292D0008DB
:102B00003C0A0020892D0008400A0020AB1800086C
:102B1000C718000825190008DB18000897190008D5
:102B2000AD1A0008951B00086A0A0020C70400209F
:102B3000080400205A0A0020440A00206B0A0020E2
:102B40006C0A00206D0A00202DE9F84304000D00F6
:102B500016001F005FF0000872B63B00DBB20822CF
:102B600031002800C0B2FFF76DF8012802D0032021
:102B7000804612E0B6F5964F02D92320814604E044
:102B800090487100B0FBF1F08146484680B2FFF7F3
:102B9000CDF8012801D00320804662B64046C0B27D
:102BA000BDE8F28380B572B6002087490870002125
:102BB0000120FFF74CF8FFF7FEF862B601BD80B5C3
:102BC00072B600210020FFF742F8FFF707F962B65E
:102BD00001BD2DE9F04104000D00160000275FF053
:102BE000000872B679480088042812DB774801880B
:102BF000774800F0F7F800280BD17548007820706E
:102C000072480088C01E308072482860012007008A
:102C100001E00520804662B64046C0B2BDE8F081C2
:102C20002DE9F04104000D001600002772B6664839
:102C30000078012831D1681E674908600120674982
:102C4000088065480068047064480088301863494B
:102C50000880624801886048006800F0C3F8804638
:102C60005E480088411C5D4A1180594980B200F8D5
:102C700001805A480088411C584A11801FFA88F880
:102C80005FEA1821524A80B28154012054490870E9
:102C900001210020FEF7DBFF01E00520070062B6FE
:102CA0003800C0B2BDE8F08110B582B0002400A8A1
:102CB000FFF706F844490978002905D002291CD0FD
:102CC00008D3032903D02CE0FFF775F829E0FFF7BC
:102CD00072F826E000203D4908803C480088411CED
:102CE0003A4A11809DF80010394A80B2815402207E
:102CF00035490870FFF75FF813E034480088FF2873
:102D00000ADC32480088411C304A11809DF80010CE
:102D10002F4A80B2815402E003202B490870FFF74C
:102D20004AF82000C0B216BD10B500242C48007827
:102D3000002802D0012805D023E000210120FEF761
:102D400086FF1EE02548008800280FD02248006832
:102D50000078FEF7ABFF20480068401C1E49086061
:102D60001E480088401E1D4908800AE00320FFF726
:102D700068F8040000210120FEF769FF00201849CF
:102D800008702000C0B210BD10B500240E480078B5
:102D9000002804D0022807D003280AD00AE0002027
:102DA000FFF74FF8040005E00120FFF74AF80400A0
:102DB00000E0FFE7FFF712F8012003490870200048
:102DC000C0B210BDA07F1700730A0020640A002063
:102DD000E8050020E90500204C0A0020620A0020D6
:102DE000720A002030B40200FF20FF230D00691E8C
:102DF000ADB2002D0CD0DBB215785D402C00521C1A
:102E0000074D655D45402B00064D655D2800EDE7EB
:102E1000C0B2DBB253EA002080B230BC704700BFC2
:102E2000C8390008C83A00082DE9F04104000D0037
:102E300000262888052818D1607800028046A078EE
:102E400050EA080818F1010801230122414689B21D
:102E5000E01C00F02FF90700FFB2002F07D0380068
:102E6000C0B200F055FA060001E003200600300071
:102E7000C0B2BDE8F0812DE9F04704000D005FF01D
:102E800000092888062833DB607800020600A07855
:102E90000643761CE078000207002079074360793A
:102EA0008046BFB2002F20D0BFB2792F1DDABFB24B
:102EB00078005FFA88F8C0B2804516D101233A0045
:102EC00092B2310089B2A01D00F0F4F882465FFA98
:102ED0008AFABAF1000F05D05046C0B200F018FAD5
:102EE000814607E00520288004E00320814601E0B8
:102EF000032081464846C0B2BDE8F0872DE9F0477F
:102F000004000D005FF000092888052842D1607890
:102F100000020600A0780643761CE0780002070055
:102F200020790700BFB2002F31D0BFB27E2F2EDA3A
:102F3000A04600202880032088F8000018F101082E
:102F40002888401C28803800C0B2400088F8000063
:102F500018F101082888401C288000233A0092B20A
:102F6000310089B2404600F0A5F882465FFA8AFA3D
:102F7000BAF1000F05D05046C0B200F0C9F9814641
:102F80000AE02888BFB210EB4700288004E0032045
:102F9000814601E0032081464846C0B2BDE8F08783
:102FA0002DE9F84F04000D00002628880A287CDB54
:102FB000607800020700A07807437F1CE0780002D9
:102FC0008046207950EA0808607900028146A0799D
:102FD00050EA090919F10109E07900028246207AD4
:102FE00050EA0A0A607A8DF801001FFA88F8B8F1F1
:102FF000000F58D01FFA88F8B8F17E0F53DA1FFA85
:103000008AFABAF1000F4ED01FFA8AFABAF17A0F93
:1030100049DA1FFA8AFA5FEA4A009DF801108842ED
:1030200041D10123524692B2494689B214F10A00B5
:1030300000F040F88DF800009DF80000002828D12D
:10304000A3460020288017208BF800001BF1010BFD
:103050002888401C28804046C0B240008BF8000001
:103060001BF1010B2888401C28800023424692B2A5
:10307000390089B2584600F01DF88DF800009DF81F
:103080000000002805D128881FFA88F810EB4800B6
:1030900028809DF80000002807D09DF8000000F06F
:1030A00037F9060001E0032006003000C0B2BDE899
:1030B000F28F4E462DE9F04704000D0016001F0068
:1030C0005FF00008002C01D1022069E0ADB2002DB4
:1030D00062D0ADB2B6B2701938285DDA681E81468A
:1030E000FFB2002F02D0012F17D057E0B6B2002E4A
:1030F00012D079481FFA89F930F8190082461FFA70
:103100008AFA5FEA1A202070641C84F800A0641C0C
:1031100019F10109761EE9E740E0B6B2002E10D0A1
:10312000207800028246641C207850EA0A0A641C57
:1031300069481FFA89F920F819A019F10109761ECA
:10314000EBE702220021654800F0A4F88046012246
:103150000221634800F09EF8804602220321614864
:1031600000F098F88046012205215F4800F092F8AF
:103170008046022206215D4800F08CF8804620221D
:1031800008215B4800F086F880460E222821594825
:1031900000F080F8804601E0012080464046C0B241
:1031A000BDE8F0872DE9F84304000D001600002764
:1031B000002C01D1022041E0022204214E4800F0FF
:1031C00047F80700202208214C4800F041F807008A
:1031D000202228214A4800F03BF8070020224821FD
:1031E000484800F035F8070008226821464800F0FA
:1031F0002FF80700ADB2002D1CD0ADB2B6B27019D9
:10320000722817DA681E8046B6B2002E14D03F48E6
:103210001FFA88F830F8180081461FFA89F95FEA2A
:1032200019202070641C84F80090641C18F10108B7
:10323000761EE9E7012007003800C0B2BDE8F2833E
:1032400010B40400002010BC704703000020704739
:1032500070B403000024002B01D1022018E089B2D1
:1032600092B2501871280FDA0D0072B692B2002A8D
:1032700008D01888254EADB226F815009B1C6D1C91
:10328000521EF3E762B601E0012004002000C0B244
:1032900070BC704730B403000024002B01D1022021
:1032A00018E089B292B2501837280FDA0D0072B6C2
:1032B00092B2002A08D00848ADB230F81500188044
:1032C0009B1C6D1C521EF3E762B601E00120040056
:1032D0002000C0B230BC7047AC070020F0090020CD
:1032E000520A0020000A0020560A0020F809002097
:1032F00058080020B40900201C0A0020980800206B
:10330000D808002018090020D00900202803002038
:103310000100C9B20A00002A04D0012A05D0072AF8
:1033200006D008E00022100007E00222100004E0AE
:103330000622100001E004221000C0B270472DE9FF
:10334000F84F04000D005FF0000A2888052850D1CE
:10335000607800020600A0780643761CE078000240
:10336000070020790743BFB2002F3FD0BFB2B7F5A7
:10337000FA6F3BDAA14600202880012089F800007E
:1033800019F101092888401C288007210F4206D026
:10339000BFB2082097FBF0F0401C804604E0BFB2AB
:1033A000082097FBF0F0804689F8008019F10109A8
:1033B0002888401C288000233A0092B2310089B24C
:1033C0004846FFF73DFF83465FFA8BFBBBF1000FDA
:1033D00005D05846C0B2FFF79BFF82460BE0288815
:1033E0005FFA88F818EB0000288004E0032082468A
:1033F00001E0032082465046C0B2BDE8F28F2DE9BD
:10340000F04182B004000D0000272888052831D142
:10341000607800020600A0780643761C2079002818
:1034200025D1E078FF2802D0E07800281FD10020C5
:103430008DF80100E078FF2803D101208DF800000D
:1034400002E000208DF8000001230122310089B242
:1034500000A8FFF7F5FE80465FFA88F8B8F1000F84
:103460000AD04046C0B2FFF753FF070004E0032034
:10347000070001E0032007003800C0B2BDE8F68174
:103480002DE9F84F04000D005FF000092888062898
:1034900042DB607800020600A0780643761CE078E4
:1034A00000020700207907436079834607210F4215
:1034B00006D0BFB2082097FBF0F0401C804604E025
:1034C000BFB2082097FBF0F08046BFB2002F20D09B
:1034D000BFB2B7F5F66F1CDC5FFA88F85FFA8BFBBA
:1034E000D84516D101233A0092B2310089B2A01D0D
:1034F000FFF7A6FE82465FFA8AFABAF1000F05D0FE
:103500005046C0B2FFF704FF814607E0052028803F
:1035100004E00320814601E0032081464846C0B212
:10352000BDE8F28F816807E0026811685368891866
:103530005B18C36008320260C2689142F4D04A1C32
:1035400082600878704738B504460D46A068E16887
:10355000884212D120686168884208BF00F0C3F831
:103560002068227C016802B14944A1604268521877
:10357000E260083020609142ECD0A068401CA0605E
:1035800000F8015D31BD2DE9F0418AB000F108017C
:1035900005910268520801EBC201069100210791D2
:1035A00008910168490800EBC101083100910179D7
:1035B00001F001018DF8101040680099400801EBFE
:1035C000C000019000200290039084E005A8FFF75E
:1035D000A9FF044614F0030603D105A8FFF7A2FFD4
:1035E000C61C25090F2D1BD105A8FFF79BFF00F175
:1035F0000F0515E0059801680818059907904968B6
:10360000081808900598083005900798089988428E
:10361000F0D0401C079010F8011D00A8FFF793FFA1
:10362000761EF2D1002D51D005A8FFF77BFF06468C
:10363000A00800F00300032804BF05A8FFF772FFED
:10364000DDF800800299039F06EB002008E0A8F156
:103650000808801A58F8081C58F8042C57183946DE
:1036600058F8082C8A1A8242F1D30C1AAE1C2DD0BD
:10367000BC4206D158F8044B58F8040B0719BC4259
:10368000F8D00298039914F8015B884217D100988A
:103690000199884208BF00F026F8009800689DF85C
:1036A0001010029009B148440290009902984968AC
:1036B000009A09180832039100928842E7D00298D4
:1036C000401C0290761E00F8015DD1D1029803994A
:1036D00088427FF47BAF0198009981427FF476AFF6
:1036E0000AB0BDE8F081012000F000B880B5C04606
:1036F000C046024A11001820ABBEFBE726000200BC
:10370000BFF34F8F5448006810F4E06053490843FA
:1037100051490860BFF34F8FFEE7514908700021FF
:10372000504A1170704710B582B000F0A1F84820DF
:10373000FDF7D2FA4C48006850F000704A49086022
:1037400072B6FEF7D9FDFDF751F804000220009093
:103750004FF4964301222100C9B20020FFF78AF8F6
:10376000FFF712F962B60220FFF7D7FF00F001F869
:10377000FCE780B53A480078002803D002282ED014
:1037800019D367E037480078002803D002280ED00C
:1037900009D30FE0012080F31388FFF7B1FF012068
:1037A0003049087006E002202E49087002E002202D
:1037B000FFF7B3FF4EE02B480078002803D0022823
:1037C00009D004D30AE001202649087006E002204F
:1037D0002449087002E00220FFF79FFF3AE02148E9
:1037E0000078002805D0022820D006D303281ED058
:1037F00030E001201B4908702CE0FCF7B0FF0028E6
:1038000001D0FCF776FFFFF7D1F8FCF717FF174858
:103810000068401C1549086014480068052804D158
:10382000FCF71CFF00201149086013E012E00D486E
:103830000078002803D0022809D004D30AE0012030
:103840000849087006E002200649087002E00020DE
:10385000FFF763FF01BD00000CED00E00400FA0576
:10386000670A0020680A002004000140200A0020A6
:1038700080B54E48006850F001004C4908604C4843
:1038800000684C4908404A490860484800684A496D
:103890000840464908604548006830F480204349A4
:1038A00008604348006830F4FE00414908605FF456
:1038B0001F004249086000F005F85FF000604049D1
:1038C000086001BD80B500F001F801BD82B00020A4
:1038D0000190002000903548006850F48030334952
:1038E00008603248006810F4003000900198401CD5
:1038F00001900098002803D10198B0F5A06FF0D195
:103900002A480068800302D50120009001E00020D1
:1039100000900098012847D12A48006850F0100014
:103920002849086027480068800880002549086009
:103930002448006850F00200224908601C480068D2
:103940001B4908601A48006819490860184800684F
:1039500050F48060164908601548006830F47C1007
:10396000134908601248006850F4E81010490860D4
:103970000E48006850F080700C4908600B480068E1
:103980008001FBD50A48006880088000084908606B
:103990000748006850F002000549086004480068C4
:1039A00010F00C000828F9D102B070470010024056
:1039B000041002400000FFF8FFFFF6FE081002406E
:1039C00008ED00E00020024000C1814001C08041BC
:1039D00001C0804100C1814001C0804100C18140DF
:1039E00000C1814001C0804101C0804100C18140CF
:1039F00000C1814001C0804100C1814001C08041BF
:103A000001C0804100C1814001C0804100C18140AE
:103A100000C1814001C0804100C1814001C080419E
:103A200001C0804100C1814000C1814001C080418E
:103A300001C0804100C1814001C0804100C181407E
:103A400000C1814001C0804101C0804100C181406E
:103A500000C1814001C0804100C1814001C080415E
:103A600001C0804100C1814000C1814001C080414E
:103A700001C0804100C1814001C0804100C181403E
:103A800000C1814001C0804100C1814001C080412E
:103A900001C0804100C1814001C0804100C181401E
:103AA00000C1814001C0804101C0804100C181400E
:103AB00000C1814001C0804100C1814001C08041FE
:103AC00001C0804100C1814000C0C101C30302C2E6
:103AD000C60607C705C5C404CC0C0DCD0FCFCE0E4E
:103AE0000ACACB0BC90908C8D81819D91BDBDA1ABE
:103AF0001EDEDF1FDD1D1CDC14D4D515D71716D62E
:103B0000D21213D311D1D010F03031F133F3F2329D
:103B100036F6F737F53534F43CFCFD3DFF3F3EFE0D
:103B2000FA3A3BFB39F9F83828E8E929EB2B2AEA7D
:103B3000EE2E2FEF2DEDEC2CE42425E527E7E626ED
:103B400022E2E323E12120E0A06061A163A3A2625D
:103B500066A6A767A56564A46CACAD6DAF6F6EAECD
:103B6000AA6A6BAB69A9A86878B8B979BB7B7ABA3D
:103B7000BE7E7FBF7DBDBC7CB47475B577B7B676AD
:103B800072B2B373B17170B050909151935352921D
:103B900096565797559594549C5C5D9D5F9F9E5E8D
:103BA0005A9A9B5B99595898884849894B8B8A4AFD
:103BB0004E8E8F4F8D4D4C8C44848545874746866D
:103BC00082424383418180402DE9F84F04000D007B
:103BD0005FF0000A288805284FD1607800020600AF
:103BE000A0780643761CE07800020700207907439E
:103BF000BFB2002F3ED0BFB2B7F5FA6F3ADAA14696
:103C000000202880022089F8000019F10109288885
:103C1000401C288007210F4206D0BFB2082097FB26
:103C2000F0F0401C804604E0BFB2082097FBF0F0A3
:103C3000804689F8008019F101092888401C2880F5
:103C40003A0092B2310089B24846FFF7FEFA834645
:103C50005FFA8BFBBBF1000F05D05846C0B2FFF7EF
:103C600057FB82460BE028885FFA88F818EB0000C3
:103C7000288004E00320824601E00320824650466B
:103C8000C0B2BDE8F28F2DE9F04704000D005FF0EF
:103C900000092888052841D1607800020600A07834
:103CA0000643761CE0780002070020790743BFB284
:103CB000002F30D0BFB27D2F2DDAA0460020288003
:103CC000042088F8000018F101082888401C28808A
:103CD0003800C0B2400088F8000018F101082888B8
:103CE000401C28803A0092B2310089B24046FFF76A
:103CF00059FA82465FFA8AFABAF1000F05D05046A7
:103D0000C0B2FFF705FB81460AE02888BFB210EB7E
:103D10004700288004E00320814601E0032081461B
:103D20004846C0B2BDE8F08762B38B0708D0521E88
:103D300011F8013B00F8013B00F024808B07F6D11D
:103D4000830740F0208000BF103A07D330B4B1E8B9
:103D50003810103AA0E83810F9D230BC530724BF0D
:103D6000B1E80810A0E8081044BF51F8043B40F83F
:103D7000043BD20724BF31F8022B20F8022B44BFAA
:103D80000B7803707047083A07D3B1E80810083A77
:103D900040F8043B40F804CBF7D25307E4E780B582
:103DA0002020FEF759FDFCF7DAFC002801D0FCF7D3
:103DB000A0FC01BD80B501215FF08040FEF767FAED
:103DC00001BD7047FEE7FEE7FEE7FEE7704770477C
:103DD0007047704770477047704700002DE9F04109
:103DE00004000D0008480688084F14F1010832004D
:103DF00039004046FFF798FF03480088401C2880A0
:103E00000020BDE8F0810000600A00207809002051
:103E100010B5074979441831064C7C44163404E047
:103E20000A68081D511888470146A142F8D110BD03
:103E30000800000030000000B3D7FFFF900500002D
:103E4000E8040020000000003FF7FFFF0200000030
:103E50000200000054010000760200000000002073
:103E6000E804000000F00BF8002801D0FFF7D0FFB5
:103E70000020C046C046FFF756FC00F002F80120C3
:103E8000704700F001B8000007463846FFF72EFCE7
:103E9000FBE70000C4F1C4F3C4F5C4F7C4F9C4FBE4
:103EA000C4FDC4FF0148804701480047713800083D
:103EB000CD3E0008A00000010800070000540040AB
:103EC000000102030405060708FF0000C046C046C3
:103ED000C046C046FFF7C6FFFFF773BFFFF772BFCC
:103EE000FFF771BFFFF770BFFFF76FBFFFF76EBF40
:103EF000FFF76DBFFFF76CBFFFF7FEBFFFF7FEBF19
:103F0000FFF7FEBFFFF7FEBFFFF763BFFFF7FEBF80
:103F1000FFF7FEBFFFF7FEBFFFF7FEBFFFF7FEBFD5
:103F2000FFF7FEBFFFF7FEBFFFF7FEBFFFF7FEBFC5
:103F3000FFF7FEBFFFF7FEBFFFF7FEBFFFF7FEBFB5
:103F4000FFF7FEBFFFF7FEBFFFF7FEBFFFF7FEBFA5
:103F5000FFF7FEBFFFF7FEBFFFF721BFFFF7FEBF72
:103F6000FFF7FEBFFFF7FEBFFFF7FEBFFFF722BF61
:103F7000FFF7FEBFFDF74BBFFFF7FEBFFFF72BBFFD
:103F8000FFF7FEBFFFF7FEBFFFF7FEBFFFF722BF41
:103F9000FDF7A8BEFFF7FEBFFFF7FEBFFFF7FEBFAE
:103FA000FFF71ABFFFF7FEBF201C028852F4807291
:103FB00002804FF6FF721100828AD20703D40029D3
:103FC00001D0491EF8E770471E72001E8004028867
:103FD000920503D51E100A81B0020000200090C98E
:103FE000B21182221027700300908A80070BD40040
:103FF0002B09D0908A400504D50020908200200330
:1040000000F2E75B1EF0E7108B0090002B01D1342B
:104010001003E0012001B060A0010000233EF00485
:104020000140070CD49BB24012F14023EFE71A6124
:104030003E2014704710B403001000421E80B200EE
:104040002818D008781882491C48100104009848A4
:10405000118650022C09D0984612984612048612F6
:1040600064865001002CE344300510BC7047F8B45E
:1040700004C4300F002005009BB2012B43D1C9B20C
:1040800051F00100209440010600A0D250022E09F8
:10409000D0A04C12A04C12064C12764C132088264D
:1040A00010013C1CEA43238020DE222EA04008E6BB
:1040B000E0208850F40070208044136D1C3CF20A0C
:1040C000064620098A1070521C20888005FCD43ACC
:1040D000300A80602080C3E09BB2022B51D14A118C
:1040E00010F11B962372B68CA19C4362B69A6002B3
:1040F00099E0AD1C422640EA60042E01D0761EF8FD
:10410000825188A1BC21967303D528519E115C4031
:1041100001F2FF7C5CF71C6EE03210088B07000098
:104120002E03D1BFB23E3D1251E6F00803002B46EC
:10413000D09BB2032B13D09A1001002E02B850036B
:10414000030034E06DA0235B1E2EF305E2D12EB7F1
:104150001DD094B1D2410E7138E6060023ED1C6AE1
:10416000C7B5E78A18010120F228F003CA19200117
:104170000100011211041C02DD3D00080E031004B1
:1041800000873C000803081003FD2E0008100812E9
:1041900077081206081229081217082402A12F0016
:1041A000080D10033F330008050812FF08120F081E
:1041B0001C0281340008D203F0031F00C93B000831
:1041C000801E70CE0320260024012099811E89358F
:1041D0000015F08206022E07D02600741CB6B2B677
:1041E000F57A7FF3DD00263000C0B2012805D12228
:1041F0001409EE07FDD59E891680C0B2709E22017B
:1042000077200300010203040420020607080908BE
:0E421000000AE80500200204060800A24A0485
:0400000508003ECDE4
:00000001FF
